:100000000C94580B0C94800B0C94800B0C94800B6C
:100010000C94800B0C94800B0C94800B0C94800B34
:100020000C94800B0C94800B0C949F1E0C94111F4D
:100030000C94800B0C94800B0C94800B0C94800B14
:100040000C94800B0C94800B0C94800B0C94800B04
:100050000C94800B0C94800B0C94800B0C94E61683
:100060000C94800B0C94800B0C94800B0C94800BE4
:100070000C94800B0C94800B0C94800B0C94800BD4
:100080000C94800B0C94800B0C94800B0C94800BC4
:100090000C94800B0C94800B0C94800B0C94800BB4
:1000A0000C94800B0C9443150C94800B7E0E810EE7
:1000B000840E870E8A0E8D0E900E930E960E990E5C
:1000C0009C0E38163B162A162E1632165C165C1637
:1000D0005C163F16431647164D1651165C165716FA
:1000E000007F9E797674866FCB6A4466EE61C75D49
:1000F000CD59FF555952DC4E844B50483F45504234
:10010000803FCF3C3B3AC33766352233F730E42E8D
:10011000E72CFF2A2D296E27C2252824A02228217A
:10012000C01F671E1D1DE11BB31A91197C187217A1
:10013000731680159614B713E1121412501194100F
:10014000E00F340F8F0EF10D590DC90C3E0CB90B99
:100150003A0BC00A4B0ADB0970090A09A8084A08C9
:10016000F0079A074707F806AD0664061F06DC0588
:100170009D0560052605EE04B80485045404250495
:10018000F803CD03A4037C03560332030F03EE02EE
:10019000CE02B002930277025C0243022A021202EC
:1001A000FC01E601D201BE01AB0199018801770192
:1001B0006701580149013B012E0121011501090187
:1001C000FE00F300E900DF00D600CD00C400BC0053
:1001D000B400AC00A5009E00970091008A00850045
:1001E0007F007A00740070006B00660062005E00A1
:1001F0005A00560052004F004C0048004500420093
:1002000040003D003A0038003500330031002F0037
:100210002D002B00290027002600240023002100A8
:1002200020001E001D001C001B001A0018001700F3
:100230001600150015001400130012001100110023
:1002400010000F000F000E000D000D000C000C0040
:100250000B000B000A000A00090009000900080051
:100260000800080007000700070006000600060057
:100270000600050005000500050005000400040057
:100280000400040004000300030003000300030053
:10029000030003000300020002000200020002004B
:1002A000020002000200020002000200020001003F
:1002B0000100010001000100010001000100010036
:1002C0000100010001000100010001000100010026
:1002D0000100010001000100010001000000000018
:1002E000FF65554C45403C383532302E2C2A2827A6
:1002F00025242321201F1E1D1C1B1A19191817162F
:1003000016151414131312111110100F0F0E0E0DD9
:100310000D0D0C0C0B0B0B0A0A0A09090908080839
:100320000807070706060606050505050504040473
:100330000404030303030303020202020202020194
:1003400001010101010101010100000000000000A4
:10035000000000000000000000000000000000009D
:1003600000200030002353657175656E6365203988
:100370002D3136002353657175656E636520312D0F
:1003800038000D0A312073657175656E63652072E2
:10039000656365697665642E0D0A0020000D0A64A8
:1003A0006F6E652E0D0A000D1B72726F72206174E4
:1003B00020706F736974696F6E20000D0A68656143
:1003C000646572206973204F4B0D0A0073656E647B
:1003D0002073657175656E6365730D0A000000001A
:1003E000000603070B053616091C361709343617A5
:1003F000094C361709643618090000000006050488
:1004000003020100FFFEFDFCFBFAFAFAF9F9F9FA22
:10041000FAFBFCFDFEFF00010203040506FDFCFBE8
:10042000FAFAF9F9F9F9FAFBFCFDFEFFFF00010207
:100430000304050607070707070605040341416390
:100440006377777F6363637F7F01010101010100AF
:10045000030C030001020702000502050000020769
:100460000200020202020234FF45FF34FF4534FF5E
:100470003445344545344434FF45FF34FF4534FFAB
:100480003445FF34FF45343CFEFE3CFF3737373CF4
:10049000FEFE3CFFFF3C3F3E3E3E3E3E3E3E3E417A
:1004A0004141413C3C3C403C3E40424446484A4C31
:1004B0004A48464442403E3C3CFF3C4343FF4345A0
:1004C000FE3C4541FE45413C484B4A484644434179
:1004D0003F3E3F3B3C3E3734393C453B3F433F4248
:1004E000FE40FE3BFE37FE3C483C453C413C433C25
:1004F000483C4A3C473C4843434343FF4646464604
:10050000FF4646FF4646464145484C4145474A401E
:1005100043474A40434548414141414140404043AF
:1005200043413E3CFFFFFF4141414141404040408B
:100530003E3E403EFF43FE404040FE404040FE40C5
:10054000433C3E40FEFFFF4343414140403EFE43AB
:1005500043414140403EFE3C3C4343454543FE4110
:100560004140403E3E3CFE05021B010207052605B8
:1005700002050920020200082208070703200102E1
:1005800004011001020401080302020C0007077FA6
:10059000E0EEE0FFE07160FFE06AEE7FFF7FE07A6F
:1005A000E07F606FEFFFE0EFEF7FFF7FE0EEE0FFC7
:1005B000E07160FFE06A6E7FFF7F607AE07FE06F4E
:1005C000EFFFE0EFEF7FFFFF68EA62FF607A60FF16
:1005D00070EF70FCFDFDFDFDFFF0F7F8FFF0F7F0A8
:1005E000FFF0FCF0FFF0FDFCFFFDFDFDFDFCFFFC5E
:1005F000FDFDFDFDFFF0FDF2FFF0F5F5FFF0F7F773
:10060000FFF8F7F8FFFDFDFDFDFCFFFFF0FCF0FF3C
:10061000F0F5F5FFF0FCF00000D8DCD80000FEFE9D
:10062000FEFEFEFEFEFEFEFEFEFEFEFEFEFEFEFEEA
:10063000FEFE00AA15CAE522E5CA15AA00FFFF00C2
:100640000000FF000000FFFF00FFFF000000FF00B0
:100650000000FF000000FFFF00FFFF000000FF00A0
:100660000000FFFF00FFFF000000FF000000FF0090
:100670000000FFFF00FFFF000000FF000000FFFF81
:1006800000FFFF000000FF000000FF000000FFFF70
:1006900000FFFFFF00AA55A850A851A850A853ABCF
:1006A00053030303030303030303030303AB53AB2A
:1006B00053AB50AA007FFF80FF7F00AA00FFFFFC22
:1006C00000FCFFFC00FCFFFF00FFFFFC00FCFFFC48
:1006D00000FCFFFC00FCFFFF00FFFFFC00FCFFFC38
:1006E00000FCFFFF00FFFFFC00FCFFFC00FCFFFC28
:1006F00000FCFFFF00FFFFFC00FCFFFC00FCFFFF15
:1007000000FFFFFC00FCFFFC00FCFFFC00FCFFFF07
:1007100000FFFFFF00AA55AA552A152A55AA55AA77
:100720005528142854A854A85428142854AA55AA63
:10073000552A152A55AA54AA542A152A54A955A946
:100740005429152954A955A95429152954A955A93D
:100750005429152954A955A95429152954A955A92D
:100760005429152954A955A95429152954A955A91D
:100770005429152954A955A95429152954A955A90D
:100780005429152954A955A95429152954A955A9FD
:100790005429152954AA5500FEFF01FFFE005500FB
:1007A000FEFF01FFFE005500FEFF01FFFE005500A9
:1007B000FEFF01FFFE000100FEFF01FFFE005500ED
:1007C000FEFF01FFFE005500FEFF01FFFE00550089
:1007D000FEFF01FFFE000100FEFF01FFFE005500CD
:1007E000FEFF01FFFE005500FEFF01FFFE00550069
:1007F000FEFF01FFFE000100FEFF01FFFE005500AD
:10080000FEFF01FFFE005500FEFF01FFFE00550048
:10081000FEFF01FFFE005500FFFF00FFFF00550037
:10082000FFFF00FFFF005500FFFF00FFFF00550026
:10083000FFFF00FFFF000000FFFF00FFFF0055006B
:10084000FFFF00FFFF005500FFFF00FFFF00550006
:10085000FFFF00FFFF000000FFFF00FFFF0055004B
:10086000FFFF00FFFF005500FFFF00FFFF005500E6
:10087000FFFF00FFFF000000FFFF00FFFF0055002B
:10088000FFFF00FFFF005500FFFF00FFFF005500C6
:10089000FFFF00FFFF005500FFFF00FFFF005500B6
:1008A000FFFF00FFFF005500FFFF00FFFF005500A6
:1008B000FFFF00FFFF000000FFFF00FFFF005500EB
:1008C000FFFF00FFFF005500FFFF00FFFF00550086
:1008D000FFFF00FFFF000000FFFF00FFFF005500CB
:1008E000FFFF00FFFF005500FFFF00FFFF00550066
:1008F000FFFF00FFFF000000FFFF00FFFF005500AB
:10090000FFFF00FFFF005500FFFF00FFFF00550045
:10091000FFFF00FFFF005500FFFF00FFFF00550035
:10092000FFFF00FFFF005500FFFF00FFFF00550025
:10093000FFFF00FFFF000000FFFF00FFFF0055006A
:10094000FFFF00FFFF005500FFFF00FFFF00550005
:10095000FFFF00FFFF000000FFFF00FFFF0055004A
:10096000FFFF00FFFF005500FFFF00FFFF005500E5
:10097000FFFF00FFFF000000FFFF00FFFF0055002A
:10098000FFFF00FFFF005500FFFF00FFFF005500C5
:10099000FFFF00FFFF0055803F7F607F3FC0558015
:1009A0003F7F607F3FC05D803F7F607F3FC055805D
:1009B0003F7F607F3FC050803F7F607F3FC055805A
:1009C0003F7F607F3FC055803F7F607F3FC0558045
:1009D0003F7F607F3FC050803F7F607F3FC055803A
:1009E0003F7F607F3FC055803F7F607F3FC0558025
:1009F0003F7F607F3FC050803F7F607F3FC055801A
:100A00003F7F607F3FC055803F7F607F3FC0558004
:100A10003F7F607F3FC05541636F7573746963208A
:100A20005069616E6F0000456C6563747269632084
:100A30005069616E6F0000547562756C617220427E
:100A4000656C6C730000004D6172696D626100003D
:100A5000000000000000004A617A7A20477569743E
:100A60006172000000000046696E67657220426195
:100A700073730000000000536C6170204261737357
:100A80000000000000000050657263757373696FA9
:100A90006E000000000000AA44AA11AA440201C28C
:100AA000E4C20102A4F2F1F2F4F2F1F2F4F2F1F292
:100AB000F4F2F1F2F4F2F1F2F4F2F1F2F4F2F1F212
:100AC000F4F2F1F2F4F2F1F2F4F2F1F2F4F2F1F202
:100AD000F4F2F1F2F4F2F1F2F4F2F1F2F4F2F1F2F2
:100AE000F4F2F1F2F4F2F1F2F4F2F1F2F4F2F1F2E2
:100AF000F4F2F1F2F4F2F1F2F4F2F1F2F4F2F1F2D2
:100B0000F4F2F1F2F4F2F1F2F40211AA44AA11AAF9
:100B100044AA11AA44AA11AA44AA11AA4480008690
:100B20004E8600804A9F1F9F5F9F1F9F5F9F1F9F52
:100B30005F9F1F9F5F9F1F9F5F9F1F9F5F9F1F9FC5
:100B40005F9F1F9F5F9F1F9F5F9F1F9F5F9F1F9FB5
:100B50005F9F1F9F5F9F1F9F5F9F1F9F5F9F1F9FA5
:100B60005F9F1F9F5F9F1F9F5F9F1F9F5F9F1F9F95
:100B70005F9F1F9F5F9F1F9F5F9F1F9F5F9F1F9F85
:100B80005F9F1F9F5F9F1F9F5F8011AA44AA11AAAA
:100B900044AA11AA44AA11AA44AA11AA44AA110259
:100BA000A4F2F1F2F4F2F1F2F4F2F1F2F4F201AAA9
:100BB00044AA11AA44AA1102A4F2F1F2F4F2F1F249
:100BC000F4F2F1F2F4F201AA44AA11AA44AA110221
:100BD000A4F2F1F2F4F2F1F2F4F2F1F2F4F201AA79
:100BE00044AA11AA44AA1102A4F2F1F2F4F2F1F219
:100BF000F4F2F1F2F4F201AA44AA11AA44AA1102F1
:100C0000A4F2F1F2F4F2F1F2F4F2F1F2F4F201AA48
:100C100044AA11AA44AA11AA44AA11AA44AA11805A
:100C20004A9F1F9F5F9F1F9F5F9F1F9F5F9F00AAFD
:100C300044AA11AA44AA11804A9F1F9F5F9F1F9F29
:100C40005F9F1F9F5F9F00AA44AA11AA44AA118018
:100C50004A9F1F9F5F9F1F9F5F9F1F9F5F9F00AACD
:100C600044AA11AA44AA11804A9F1F9F5F9F1F9FF9
:100C70005F9F1F9F5F9F00AA44AA11AA44AA1180E8
:100C80004A9F1F9F5F9F1F9F5F9F1F9F5F9F00AA9D
:100C900044AA11AA44AA11AA44AA11AA44AAF17A00
:100CA0001C0E0706030303030306070E1C7AF1AAB2
:100CB00044AA11AA44AAF17A1C0E070603030303EF
:100CC0000306070E1C7AF1AA44AA11AA44AAF17AD3
:100CD0001C0E0706030303030306070E1C7AF1AA82
:100CE00044AA11AA44AAF17A1C0E070603030303BF
:100CF0000306070E1C7AF1AA44AA11AA44AAF17AA3
:100D00001C0E0706030303030306070E1C7AF1AA51
:100D100044AA11AA44AA11AA44AA11AA44AF3FF0B6
:100D2000C08000000000000000000080C0F03FAF65
:100D300044AA11AA44AF3FF0C080000000000000A8
:100D400000000080C0F03FAF44AA11AA44AF3FF0BA
:100D5000C08000000000000000000080C0F03FAF35
:100D600044AA11AA44AF3FF0C08000000000000078
:100D700000000080C0F03FAF44AA11AA44AF3FF08A
:100D8000C08000000000000000000080C0F03FAF05
:100D900044AA11AA44AA11AA44AA11AA042A112AEF
:100DA00085AB93AB86AE16AE86AB93AB852A112A84
:100DB000042A512A04AA112A05AB13AB862E96AE3B
:100DC00006AB932B85AA91AA042A512A042A112A38
:100DD00085AB93AB86AE162E86AB132B052A112A54
:100DE000042A512A042A91AA85AB93AB062E96AE0B
:100DF00086AB932B052A91AA042A512A04AA91AA08
:100E000085AB932B06AE96AE86AB132B05AA91AAA3
:100E1000042A11AA44AA11AA44AA11AA0080008097
:100E20003FBF0484048000BF3FA424A43F9B0080F4
:100E30000080558000BF3F8E3FBF009F3FA03F9F77
:100E400000BF3FA000BF3F80008055800080008031
:100E500000803FBF008000803FBF20A020A0008016
:100E600000805580008020BF3FA020BF1F803FBF73
:100E70000C9C37A300813FBF0080558000A03FBF7E
:100E800020A03F9F00BF3F8C1CB7238031B92CA707
:100E9000238000AA44AA11007E665A5A7E426A4202
:100EA0007E4266427E665A5A7E42525A7E425E5E5A
:100EB0007E00FFE0F3E0FFE0FAE0FFE0FFFEE0FE8F
:100EC000FFE0FFE0F1E0FFF1EEE2FFEFFFEFFF20D8
:100ED00062797465732072656365697665642E0D49
:100EE0000A61626F727465642E00206279746573A2
:100EF0002072656365697665642E0D0A61626F72A2
:100F00007465642E00200000000000003E5B4F5B13
:100F10003E3E6B4F6B3E1C3E7C3E1C183C7E3C189C
:100F20001C577D571C1C5E7F5E1C00183C1800FF80
:100F3000E7C3E7FF0018241800FFE7DBE7FF3048AE
:100F40003A060E2629792926407F050507407F05A8
:100F5000253F5A3CE73C5A7F3E1C1C08081C1C3E9F
:100F60007F14227F22145F5F005F5F06097F017F8D
:100F7000006689956A606060606094A2FFA2940830
:100F8000047E040810207E201008082A1C08081C73
:100F90002A08081E101010100C1E0C1E0C30383EB3
:100FA0003830060E3E0E06000000000000005F0014
:100FB000000007000700147F147F14242A7F2A12E0
:100FC00023130864623649562050000807030000C6
:100FD0001C2241000041221C002A1C7F1C2A0808F8
:100FE0003E0808008070300008080808080000600B
:100FF000600020100804023E5149453E00427F40F7
:101000000072494949462141494D331814127F1055
:1010100027454545393C4A4949314121110907369F
:1010200049494936464949291E000014000000403C
:101030003400000008142241141414141400412236
:10104000140802015909063E415D594E7C121112E5
:101050007C7F494949363E414141227F4141413EE1
:101060007F494949417F090909013E414151737F47
:101070000808087F00417F41002040413F017F0870
:101080001422417F404040407F021C027F7F0408C1
:10109000107F3E4141413E7F090909063E415121F1
:1010A0005E7F09192946264949493203017F010318
:1010B0003F4040403F1F2040201F3F4038403F639B
:1010C0001408146303047804036159494D43007FF5
:1010D0004141410204081020004141417F040201C6
:1010E0000204404040404000030708002054547868
:1010F000407F284444383844444428384444287FB6
:10110000385454541800087E090218A4A49C787F0F
:101110000804047800447D40002040403D007F10DA
:1011200028440000417F40007C047804787C080457
:1011300004783844444438FC18242418182424180B
:10114000FC7C08040408485454542404043F4424F8
:101150003C4040207C1C2040201C3C4030403C4413
:10116000281028444C9090907C4464544C440008CF
:1011700036410000007700000041360800020102FD
:1011800004023C2623263C1EA1A161123A404020C5
:101190007A38545455592155557941215454784140
:1011A000215554784020545579400C1E5272123902
:1011B00055555559395454545939555454580000BB
:1011C000457C410002457D420001457C40F02924D8
:1011D00029F0F0282528F07C545545002054547CF3
:1011E000547C0A097F4932494949323248484832D9
:1011F000324A4848303A4141217A3A424020780008
:101200009DA0A07D39444444393D4040403D3C24AC
:10121000FF2424487E4943662B2FFC2F2BFF0929EE
:10122000F620C0887E090320545479410000447D93
:10123000413048484A32384040227A007A0A0A72DD
:101240007D0D19317D2629292F2826292929263087
:10125000484D4020380808080808080808382F10AA
:10126000C8ACBA2F102834FA00007B000008142AFA
:10127000142222142A14089500220095AA00550071
:10128000AAAA55AA55AA000000FF00101010FF00DE
:10129000141414FF001010FF00FF1010F010F014D1
:1012A0001414FC001414F700FF0000FF00FF1414D6
:1012B000F404FC141417101F10101F101F14141422
:1012C0001F00101010F0000000001F101010101F61
:1012D00010101010F010000000FF1010101010106F
:1012E000101010FF10000000FF140000FF00FF00AE
:1012F000001F10170000FC04F41414171017141426
:10130000F404F40000FF00F714141414141414F778
:1013100000F7141414171410101F101F141414F4D1
:10132000141010F010F000001F101F0000001F1418
:10133000000000FC140000F010F01010FF10FF146B
:101340001414FF141010101F00000000F010FFFF15
:10135000FFFFFFF0F0F0F0F0FFFFFF0000000000E3
:10136000FFFF0F0F0F0F0F38444438447C2A2A3EEA
:10137000147E02020606027E027E02635549416324
:101380003844443C04407E201E2006027E0202991E
:10139000A5E7A5991C2A492A1C4C7201724C304AB7
:1013A0004D4D303048784830BC625A463D3E494940
:1013B00049007E0101017E2A2A2A2A2A44445F44E8
:1013C0004440514A444040444A51400000FF010318
:1013D000E080FF000008086B6B08361236243606E2
:1013E0000F090F0600001818000000101000304010
:1013F000FF0101001F01011E00191D1712003C3CD6
:101400003C3C00000000000000000200090F00004A
:10141000030401000C0000000000000000000000B8
:10142000000000000000F0F89C8E8783878E9CF8F7
:10143000F00000FEFF0303030303070EFCF80000A7
:10144000FEFF0303030303070EFCF80000FFFF0089
:10145000000000000000FFFF0000FEFF8383838385
:1014600083C7EE7C380000F8FC0E07030303070E69
:10147000FCF800003F7FE0C08080C0E07F3FFFFFBE
:1014800001010101010101FFFF0000FFFF0C0C0C35
:101490000C1C3E77E3C100007FFFC0C0C0C0C0E0AD
:1014A000703F1F00001F3F70E0C0C0C0E0703F1FD2
:1014B00000007FFFC1C1C1C1C1E3773E1C00001F16
:1014C0003F70E0C0C0C0E0703F1F0000000000019E
:1014D000FFFF0100000000000000240027002A0098
:1014E0002D003000D5F08D14A1C881CFD9F1AF20E7
:1014F0000004080201104080401020408040800815
:101500000204018040201002011080102040402081
:1015100000000000250028002B002E0031000404EC
:10152000040404030405020202020403020202028C
:101530000606060606060404020202040414021348
:101540000212021502070208020A020A010B020B2C
:10155000010902090104010C010601000501200135
:10156000020007052C050200050920020200000800
:10157000220807000703200102000401100102FEF7
:101580000401080302FE080B000202020100090424
:1015900000000102020000052400100105240101E1
:1015A000010424020605240600010705810310003A
:1015B0004009040100020A00000007050202400081
:1015C00000070583024000000403090441726475AA
:1015D000696E6F204C4C430041726475626F7900F4
:1015E0001201000200000040412336800001010288
:1015F000030112010002EF02014041233680000185
:1016000001020301070B150F290F231527293F3B63
:10161000153F290F531557290F6B156F2901020428
:1016200006080A0C0E1012141418181E1E4B22CA9B
:10163000224C23CF235524DC246525F0257E260D5E
:10164000279E273228C8286029FA29962A342BD5C4
:101650002B792C1E2DC62D712E1E2FCD2F7F3034B1
:1016600031EB31A53261332134E334A8356F363A9A
:10167000370838D838AC39833A5D3B3A3C1A3DFDDF
:101680003DE43ECE3FBC40AD41A2429A4300040837
:1016900010141820242830343840444850545860DE
:1016A0006468707478808488909498A0A400732AE9
:1016B00011241FBECFEFDAE0DEBFCDBF28E0AAE3E2
:1016C000B1E001C01D92A536B207E1F711E0A0E03C
:1016D000B1E0EAEFF7E502C005900D92AA33B10739
:1016E000D9F71BE0C8E5DBE004C02197FE010E94AA
:1016F0006E2BC735D107C9F70E9490250C94FB2BA0
:101700000C9400000F931F93CF93DF93DC014C9355
:1017100011962C93119712961C921297EC01239616
:1017200080E090E0FB01E80FF91FE491E993019656
:1017300085309105B9F7ED01289680E090E0F80139
:10174000E80FF91FE491E993019680319105B9F70B
:101750005C961C921E925B975D961C925D975896C4
:101760001C92DF91CF911F910F9108959FE9980FDF
:10177000963008F480529091C605923039F48A3040
:1017800011F08D30C9F51092C60536C0833221F4B0
:1017900082E08093C60530C020ED280F2A3020F06B
:1017A0003FEB380F3630B0F4992319F0913031F017
:1017B00023C091E09093C6051092C8059091C8058A
:1017C0009093C7058A3314F0875301C0822F80930A
:1017D000C80512C0803221F08A3011F08D3061F4DA
:1017E000992351F0913021F41092C60581E00895BB
:1017F00081E08093CB05089580E00895EF920F93E8
:10180000362F330F330F330F3F5F860F911DFC01CF
:10181000808587FD0AC06CE6681B70E093E0E92EC6
:1018200003E025E042E654E00AC08E3F61F483E025
:10183000E82E03E025E04DE554E069E270E0832FF7
:1018400090E00E94F4210F91EF900895EF920F9392
:10185000FC01818165E070E0681B710987FD73956B
:10186000660F70E083E0E82E01E025E049E454E0F3
:101870008EE190E00E94F4210F91EF900895CF93B4
:10188000C82F803120F483E693E00E94D3216C2F8F
:1018900070E080E090E040E10E94922181E693E0D8
:1018A000CF910C94D3210F931F93CF93DF93EC012F
:1018B0008C01085E1F4F89910E943F0CC017D10711
:1018C000D1F780E8DF91CF911F910F910C943F0CDD
:1018D0000F931F93CF932EE1829FC00111248C019F
:1018E0000B5D194FC8010E94260CC0E06C2FC80187
:1018F0000E94FE0BCF5FC031C9F7CF911F910F91AE
:1019000008950F931F9307E515E020E04CE367E689
:1019100075E085E296E00E94820B07E415E020E086
:101920004CE367E675E083E496E00E94820B07E3F0
:1019300015E021E040E66CE675E081E696E00E9465
:10194000820B07E215E021E040E66CE675E08FE7E8
:1019500096E00E94820B07E115E021E040E66CE68C
:1019600075E08DE996E00E94820B07E015E02FEF0D
:101970004AE461E775E08BEB96E00E94820B07EF8B
:1019800014E020E040EC66E775E089ED96E00E9407
:10199000820B07EE14E020E044E966E775E087EF8C
:1019A00096E00E94820B07ED14E020E04CE46BE728
:1019B00075E085E197E00E94820B07EC14E020E0DF
:1019C0004EE76BE775E083E397E00E94820B07EB3D
:1019D00014E02FEF42E860E875E081E597E00E94AF
:1019E000820B07EA14E020E040EF60E875E08FE644
:1019F00097E00E94820B07E914E02FEF48E765E8C3
:101A000075E08DE897E00E94820B07E814E02FEF65
:101A100043E765E875E08BEA97E00E94820B07E7F1
:101A200014E02FEF42E86AE875E089EC97E00E9445
:101A3000820B07E614E02FEF42E86AE875E087EED4
:101A400097E00E94820B1F910F9108958F929F92B1
:101A5000AF92BF92DF92EF92FF920F931F93CF93BB
:101A6000DF931F92CDB7DEB75C017B01D42E490115
:101A70008FEF8983672B19F4CE0101967C01F50164
:101A800080818823A9F00E9430178D2121F4F5016F
:101A90001082F4010AC0F7018081882311F081507F
:101AA00011C081E0F7018083F801099581E00CC045
:101AB0000E9430178D218D1106C081E0F5018083D1
:101AC00085E0F701808380E00F90DF91CF911F9137
:101AD0000F91FF90EF90DF90BF90AF909F908F900D
:101AE0000895EF92FF920F931F93CF93DF9340914E
:101AF0003A0191E0492740933A019FEF980F9031C6
:101B000008F04DC090E001979C012370332731E12C
:101B1000239F202D1124235E959587959595879574
:101B2000880FC82FCC0FCC0F8C0F8B5FC82FD0E045
:101B3000E22EF12C442331F000E02BE042E1BE0123
:101B4000C7013FC001E02BE042E1BE01C7010E9496
:101B5000832320E0AE01B70189E098E00E942718B6
:101B600087010F5E1F4F20E0AE01B80189E098E0C9
:101B70000E9427182A9620E0AE01B70189E098E07C
:101B80000E94271820E0AE01B80189E098E0DF91BB
:101B9000CF911F910F91FF90EF900C9427188631F1
:101BA00090F481519EE0899F802D1124845E90E005
:101BB000442311F000E001C001E029E04FE06EE2B3
:101BC00070E00E948323DF91CF911F910F91FF90CE
:101BD000EF900895CF93C82F80913A01882321F088
:101BE00080913C010E94710DC63124F41C161CF03A
:101BF000C1E001C0C5E1C0933C018C2FCF910C9492
:101C0000710DCF92EF920F93CF93E09175019EE10A
:101C1000E99FF0011124EB5DF94FC081C80FC0832B
:101C2000C13F20F4C83318F4C8E301C0C0EF01E09D
:101C300027E042E162E070E088E090E00E946123EA
:101C4000C43698F08C2F64E60E944E2B20E3280FB8
:101C5000CC24C394EE24E39400E042E050E068E03A
:101C600070E085E098E00E944E188C2F64E60E9498
:101C70004E2B492F62E08EE00E94A324E091750173
:101C80008EE1E89FF0011124EB5DF94FC083CF9105
:101C90000F91EF90CF900895EF920F93CF93DF9332
:101CA000EC01C60FD11D888587FD60C0962F6CE6BC
:101CB000681B70E0990F990F990F81E0890F23E05D
:101CC000E22E03E025E048E554E090E00E94F42194
:101CD000C88580ED8C0F853208F048C0D0E0E097D1
:101CE000CE016CE070E00E945A2BFC013197EB3082
:101CF000F10528F5EA5AFF4F0C946E2BE4E028E238
:101D000020C0ECE02AE21DC0E4E02CE21AC0ECE0C6
:101D10002EE217C0ECE022E314C0E4E024E311C09B
:101D2000ECE026E30EC0E4E028E30BC0ECE02AE39D
:101D300008C0E4E02CE305C0ECE02EE302C0ECE0D8
:101D400026E2F0E0CE016CE070E00E945A2B822F78
:101D50009CE1699F800D112493E0E92E03E023E0CC
:101D600045E554E0BF0190E00E94F421DF91CF915E
:101D70000F91EF900895EF92FF921F93CF93DF930F
:101D8000C0915801C13059F024F4CC2309F4A7C004
:101D90003BC0C23059F0C33109F4A1C035C0DF9156
:101DA000CF911F91FF90EF900C94010EE09175017F
:101DB0002E2F30E04EE1E49FF0011124EB5DF94F4E
:101DC000D181D80FD33024F4DE3F1CF4DEEF01C004
:101DD000D2E0CEE1C29FC001C39F900D11248B5D64
:101DE000994F0E94260CE0917501CE9FF0011124BD
:101DF000CF018B5D994FFC01D183DF91CF911F9172
:101E0000FF90EF900C94260CC35090917501EC2E2E
:101E1000F12C292F30E0F7014EE1949FE00DF11DE8
:101E20001124EB5DF94F9085D92FD80F9F3F21F4F6
:101E300018160CF452C00DC09F3F24F487FF09C050
:101E4000D4E507C0D03324F0D5351CF0DEEF01C057
:101E5000DFEF4EE1429FC001439F900D11248B5D47
:101E6000994FFC01228DC21303C06C2F0E944C0EAF
:101E7000809175011EE1189FC00111246C2F8B5DAC
:101E8000994F0E94FE0B80917501189FC00111248B
:101E90008B5D994FFC01EE0DFF1DD0876C2F0E94CA
:101EA000FE0B80917501189FC00111248B5D994F25
:101EB000FC01228DC21313C06C2F0E944C0E809126
:101EC0007501189FC00111248B5D994FDF91CF914F
:101ED0001F91FF90EF900C94B823D0E3BACFDF911D
:101EE000CF911F91FF90EF900895EF920F93209163
:101EF0003A0191E0922790933A01813071F499234D
:101F000011F001E001C000E02BE047E060E070E08C
:101F100080E090E00E94832314C0823031F0880F6B
:101F2000880F880F885163E102C060E08DE170E0A6
:101F300093E0E92E04E027E04EE454E090E00E94B4
:101F4000F4210F91EF900895CF93DF93C82F8091E4
:101F50003A01882321F0809158010E94750FC33106
:101F600024F4C2301CF4C1E001C0C3E0C0935801A6
:101F70008C2F0E94750FE0917501DEE1DE9FF0016C
:101F80001124EB5DF94F858D811120C0C330F4F031
:101F9000628DCF010E944C0E6DEF6C0FE0917501C8
:101FA000DE9FF0011124EB5DF94F608F618F628F2E
:101FB000CF010E944C0E80917501D89FC001112461
:101FC0008B5D994FDF91CF910C94B823DF91CF9126
:101FD0000895EF920F93CF93DF93EC0101E027E098
:101FE00046E06BE070E08EE090E00E9461238D8D12
:101FF000E12C07E026E0882319F04DE354E002C00D
:1020000043E454E06BE070E08EE090E00E94F42145
:10201000DF91CF910F91EF9008954F925F926F9261
:102020007F928F929F92AF92BF92CF92DF92EF9268
:10203000FF920F931F93CF93DF93EB01542EFB017D
:102040004491282F30E0AFE1B0E00E94EC2B242F28
:1020500030E040E050E00E94AB2BF901E35EFB4F23
:10206000E490F901E350FC4F84918E010C5F1F4F07
:10207000F8019491E82F880FFF0B9F01290F311D64
:10208000C9012396FE0124910E2C000CFF08E20EDC
:10209000F11CF801049110E0FE01C491D0E0AC0104
:1020A000401B510B57FF03C05195419551099701B2
:1020B0002C1B3D0B37FF03C031952195310944247A
:1020C00043942417350714F0412C0AC03E2D2F2DC0
:1020D0007C01832F922F3C2F2D2FE801032F122FED
:1020E000EC16FD0654F4302F212F8C01832F922FF4
:1020F0003C2F2D2FE701E32EF22E37016C1A7D0ABB
:102100005C01A01AB10AB7FE03C0B194A194B10852
:10211000630177FE03C0FFEFCF1ADF0AD594C7949F
:102120000817190714F08FEF01C081E0882E880F7F
:102130009908EC16FD06B4F0252D442019F0AE01E7
:10214000B80102C0A801BE0189E098E00E942718EA
:10215000CA18DB08D7FE04C0080D191DC60CD71C11
:102160002196E7CFDF91CF911F910F91FF90EF90D4
:10217000DF90CF90BF90AF909F908F907F906F90A7
:102180005F904F900895AF92BF92CF92DF92EF92FF
:10219000FF920F93CF936C017B01C42F40E0FC01B1
:1021A00080810E940D10C7FDC0E0F701249130E04E
:1021B0004C2F0C2E000C550B241735070CF4C49132
:1021C000F601C0835701F2E0AF0EB11CF501649136
:1021D0006701FFEFCF1ADF0AF601849170E001E09A
:1021E00027E04CE090E00E946123F5016491F60144
:1021F00084914C2F0E94A3240E94D82441E0B7016F
:102200008C2FCF910F91FF90EF90DF90CF90BF90E8
:10221000AF900C940D10CF92DF92EF92FF920F933C
:102220001F93CF93DF93C82F87FD04C088301CF025
:10223000C7E001C0C0E0C0934D0101E029E045E6E0
:1022400064E070E08DE090E00E94612320E1C20232
:10225000C0011124895E954F0E947F24E090750192
:102260003EE1E39EC00111249C01285D394F7901B4
:1022700084E0C82E86E1D82E35E0C302E0011124A7
:1022800000E010E0F801EC0FFD1FE959FA4F44910E
:10229000B601C701800F911F0E94C3100F5F1F4F2F
:1022A00085E0C80ED11C0530110561F7DF91CF9193
:1022B0001F910F91FF90EF90DF90CF900895E091E4
:1022C00075019EE1E99FF0011124E85DF94F9091BD
:1022D0004C019330B9F02CF4913049F0923061F018
:1022E00008959530E9F0ACF0963009F10895909199
:1022F0004D01890F0C940B114081480F64E076E189
:10230000CF011BC04181480F69E076E1CF01019602
:1023100014C04281480F6EE076E1CF0102960DC0F5
:102320004381480F63E176E1CF01039606C0448103
:10233000480F68E176E1CF0104960C94C3108091B8
:10234000590190915A018130910541F082309105F7
:1023500041F0892B89F48FEF0C945F118FEF0C946F
:10236000BB0E80913C01811104C0809175018F5F8B
:1023700001C08C5F0C94EA0D0895809159019091F1
:102380005A018130910541F08230910541F0892B4D
:10239000B9F481E00C945F1181E00C94BB0E909134
:1023A0003C01911104C0809175018F5F07C08CEFD3
:1023B000890F21E0953109F020E0821B0C94EA0D91
:1023C00008950F9300913A0191E0092700933A0193
:1023D00094E0899F90011124F901E352FC4F84910C
:1023E000F901E252FC4F6491F901E152FC4F449132
:1023F000F901E052FC4F249170E090E00E948323A9
:102400000F910895CF93C82F80913A01882321F02E
:1024100080914C010E94E111C73024F41C161CF07D
:10242000C1E001C0C6E0C0934C018C2FCF910C9449
:10243000E1118091590190915A018130910551F03B
:102440008230910561F0892B99F480914C018F5F66
:102450000C940212809158018F5F0C94A40F80910C
:102460003C01811102C0809175018F5F0C94EA0DCF
:1024700008958091590190915A018130910551F050
:102480008230910561F0892BA9F480914C01815033
:102490000C9402128091580181500C94A40F8091E9
:1024A0003C01811104C0809175018F5F01C0815092
:1024B0000C94EA0D0895FF920F931F93CF93DF932F
:1024C000082F80913B018130F1F098F08230B1F516
:1024D000C0E0FF24F3941EE186E795E00E94851D8D
:1024E000892B09F46AC180913B01823009F065C1F2
:1024F00027C08FEF9FEF909383058093820581E043
:1025000080933B011BC0C0910D016AE070E080E048
:1025100090E00E94AC16CC2389F08CEC93E00E94F2
:10252000D32182E080933B011092C6051092CA0528
:102530001092C9051092CB051092EC05C0E03DC188
:1025400086E795E00E94811E2091C9053091CA0559
:102550002530310544F40E94B60B882309F10E940E
:102560004C19C82FB9CF25303105E1F40E94B60BC4
:10257000811105C08091CB05811105C011C00E9459
:102580004C198823B9F38091C9059091CA05069723
:1025900009F07EC01092EB058BEB93E00E94D321F3
:1025A000C0E09ACF0E94B60B882309F44DC0209159
:1025B000C70580E1280290011124D091C805D22BD3
:1025C0006D2F70E080E090E040E10E9492218BE965
:1025D00093E00E94D321E091EB05E13081F01CF4FF
:1025E000EE2331F01BC0E23079F0E83181F016C003
:1025F00088EC8D0F893B90F0F092CB05DCC082E037
:102600008D0F8530C8F70AC0D038B1F707C0D03871
:1026100029F482E893E00E94D321CDC081E08E0F9F
:102620008093EB050E2E000CFF0BE353FA4FD08383
:1026300020E08091C9059091CA0501969093CA0542
:102640008093C905211126C08091CB058823B9F05C
:1026500087EA93E00E94D3216091C9057091CA0571
:10266000072E000C880B990B97FF03C00E941925B9
:1026700003C04AE00E9492210E94D42403C0CC23CC
:1026800009F48ECF8DE993E00E94D32110923B0193
:10269000C1E022CF8091CB058111D6CFA091CD058D
:1026A0003091CE058091CF05002309F448C0909168
:1026B000EC05692F092E000C770B169FF001179F70
:1026C000F00D1124EB5DF94FA083318382838EE1FD
:1026D0009802A00111244B5D594F20E030E0FA012F
:1026E000E20FF31FD901AA53BA4F1A968C91838334
:1026F0002F5F3F4F2530310591F720E030E0FA01A0
:10270000E20FF31FD901AA53BA4F1F968C9180870D
:102710002F5F3F4F2031310591F7169FF001179F32
:10272000F00D1124EB5DF94F158E9F5F9093EC0532
:102730008091CC059817ECF51092EB0585CF209190
:102740007501422F50E0149FF001159FF00D1124E8
:10275000EB5DF94FA083318382838EE1289F900146
:1027600011242B5D394F80E090E0F901E80FF91F4B
:10277000DC01AA53BA4F1A966C9163830196853097
:10278000910599F780E090E0F901E80FF91FDC016D
:10279000AA53BA4F1F966C916087019680319105BC
:1027A00099F7149FF001159FF00D1124EB5DF94F7F
:1027B000158EC1E049CF21E03CCF8C2FDF91CF9126
:1027C0001F910F91FF9008950F931F93CF93C82FE0
:1027D00090913B01913061F018F09230C1F05DC0F2
:1027E0008FEF9FEF909383058093820581E00CC06B
:1027F000C0910D016AE070E080E090E00E94AC16AC
:10280000CC2309F44AC082E080933B0146C0811189
:1028100002C011E001C010E181E60E943F0C82E697
:102820000E943F0C86E40E943F0C8DE40E943F0C06
:1028300081E00E943F0C812F0E943F0C0E94D42413
:10284000CC23D9F005E216E0C0E0C11103C084E753
:1028500093E004C0C83031F485E693E00E94D321B0
:102860000E94D424C8010E94530C0E94D424CF5F3C
:10287000025E1F4FC03149F70CC0809175012EE1F7
:10288000829FC00111248B5D994F0E94530C0E94BE
:10289000D42410923B0181E001C080E0CF911F91D0
:1028A0000F9108952F923F924F925F926F927F9275
:1028B0008F929F92AF92BF92CF92DF92EF92FF9250
:1028C0000F931F93CF93DF9300D000D01F92CDB70B
:1028D000DEB780E191E00E949019898381E191E067
:1028E0000E9490198A8382E191E00E9490198B8363
:1028F00083E191E00E9490198C8344E050E061E311
:1029000071E0CE0101960E94882B892B09F082C0CC
:1029100084E191E00E949019823008F07BC085E14B
:1029200091E00E949019282F813108F020E105E202
:1029300016E086E2E82E86E0F82EAA24BB24A01A30
:10294000B10A512C94E5492E30E3332E40E8242E71
:10295000521609F45DC0480188E1880E911C680197
:102960003501EAEE6E1AEEEF7E0AC3018C0D9D1D55
:102970002D830E949019F60181936F012D81E81536
:10298000F90599F7F8019081983308F498E3913F9D
:1029900008F090EFF8019083F70190819E3F0CF4CE
:1029A0009EEF93300CF092E0F7019083E4E0F6E1C3
:1029B00080E090E0D801A80FB91F13963C911397BF
:1029C0004491341708F0349113963C930196359650
:1029D0008530910579F780E090E0F801E80FF91F64
:1029E0003085303310F4308603C035350CF0408626
:1029F00001968031910589F7F80122825394025E95
:102A00001F4FFEE1EF0EF11C86E0A81AB108A0CF1F
:102A100081E001C080E00F900F900F900F900F9019
:102A2000DF91CF911F910F91FF90EF90DF90CF90AA
:102A3000BF90AF909F908F907F906F905F904F90DE
:102A40003F902F900895EF92FF920F931F93CF9393
:102A5000DF931F92CDB7DEB77C01FC0100811181AD
:102A6000C80169830E94952B6981681719F0C80114
:102A70000E949D2BC7010F90DF91CF911F910F9165
:102A8000FF90EF9008951F920F920FB60F921124AE
:102A90002F938F939F938091000181508093000129
:102AA00087FF0CC021E02093000180914E0190919E
:102AB0004F0190589093CF00209350019F918F9198
:102AC0002F910F900FBE0F901F901895CF92DF920D
:102AD000EF92FF920F931F93DC015A96EC915A9755
:102AE00054968D919C915597EE2329F101E010E0C9
:102AF0008230910514F400E010E021E030E05696B9
:102B0000ED90FC905797F2E0EF16F10414F420E0FA
:102B100030E0020F131F012E000C220B330BEC5F71
:102B200004C0000F111F221F331FEA95D2F7400F78
:102B3000511F621F731F0D911D912D913C91139791
:102B4000400F511F621F731F1496CD90DD90ED90C2
:102B5000FC9017970C0D1D1D2E1D3F1D0D931D93F1
:102B60002D933C931397E62FEF7767FF03C020E880
:102B70002E1BE22FF0E0E052FD4F24911E96EC91C7
:102B80001E97F0E0E20FF11D9F012227232B11F089
:102B9000EFEFF0E0EE0FFF1FE052FF4F2591349171
:102BA00057969C938E93569770FF03C0319521954D
:102BB000310955963C932E93549754968D919C9140
:102BC00055971F910F91FF90EF90DF90CF90089550
:102BD0003FB7F89480913F0190914001A09141014D
:102BE000B091420126B5A89B05C02F3F19F0019670
:102BF000A11DB11D3FBFBA2FA92F982F8827820F83
:102C0000911DA11DB11DBC01CD0142E0660F771FD2
:102C1000881F991F4A95D1F70895362F90E0FC013F
:102C2000E95FFB4E4491FC01EF50FB4E2491FC0107
:102C3000E25EFA4E8491882309F451C04423E1F105
:102C400050E0FA013197EF30F105B0F5EF59FF4F41
:102C50000C946E2B909180009F7707C0909180001C
:102C60009F7D03C090918000977F9093800024C047
:102C700094B59F7702C094B59F7D94BD1DC090917F
:102C800090009F7707C0909190009F7D03C0909126
:102C90009000977F909390000FC09091C0009F7715
:102CA00003C09091C0009F7D9093C00005C090919B
:102CB000C200977F9093C200E82FF0E0EE0FFF1F55
:102CC000E05FFA4EA591B4918FB7F894EC91311171
:102CD00003C020952E2301C02E2B2C938FBF089567
:102CE000CF93DF9390E0FC01EF50FB4E2491FC0169
:102CF000E25EFA4E8491882361F190E0880F991F7B
:102D0000FC01EA52FB4EC591D491FC01E05FFA4E02
:102D1000A591B491611109C09FB7F894888120955D
:102D200082238883EC912E230BC0623061F49FB71D
:102D3000F8943881822F809583238883EC912E2B01
:102D40002C939FBF06C08FB7F894E8812E2B288361
:102D50008FBFDF91CF9108958F929F92AF92BF92D4
:102D6000CF92DF92EF92FF926B017C010E94E815F7
:102D70004B015C01C114D104E104F104F1F00E94A3
:102D8000E815DC01CB0188199909AA09BB09883E1D
:102D90009340A105B10570F321E0C21AD108E10802
:102DA000F10888EE880E83E0981EA11CB11CC114A6
:102DB000D104E104F10419F7DDCFFF90EF90DF902B
:102DC000CF90BF90AF909F908F9008951F920F92D9
:102DD0000FB60F9211242F933F938F939F93AF932E
:102DE000BF938091510190915201A0915301B091F4
:102DF000540130913E0123E0230F2D3720F401963A
:102E0000A11DB11D05C026E8230F0296A11DB11D0D
:102E100020933E018093510190935201A09353015E
:102E2000B093540180913F0190914001A0914101E4
:102E3000B09142010196A11DB11D80933F01909375
:102E40004001A0934101B0934201BF91AF919F9186
:102E50008F913F912F910F900FBE0F901F9018955B
:102E60008FB12CB193B130E0209530952074332789
:102E7000A90123E0559547952A95E1F7292F30E0E0
:102E800020953095207133273595279535952795D1
:102E9000242B8095807F822B08951F93CF93DF93FF
:102EA0001F92CDB7DEB7162F682F8AE049830E94A4
:102EB0000D16612F8BE00E940D164981642F89E069
:102EC0000F90DF91CF911F910C940D1683B7817FE6
:102ED00083BF83B7816083BF889583B78E7F83BFAD
:102EE0000895E0914A01F0914B0190818091490150
:102EF000892B8083E0914701F09148019081809176
:102F00004601809589238083E0914A01F0914B012D
:102F10009081809149018095892380830895E09173
:102F20004701F0914801908180914601892B80836F
:102F3000E0914A01F0914B01908180914901809587
:102F40008923808308958EBD00000DB407FEFDCF58
:102F50008EB508950F931F93CF93DF9300D01F92E8
:102F6000CDB7DEB7182F062F61E089E04B830E94B2
:102F70000D1668EC70E080E090E00E94AC1660E016
:102F8000802F0E940D1682E090E09A8389834B8106
:102F9000642FCE0101960E94231564EF71E080E05A
:102FA00090E00E94AC1661E0802F0E940D160E94F6
:102FB000301781238117D9F30F900F900F90DF9175
:102FC000CF911F910F910895FC01840F911D181648
:102FD0001906E4F5E038F105CCF5F7FF02C0E0E0B2
:102FE000F0E08138910514F080E890E0382F3E1B26
:102FF000AB0177FF02C0495F5F4F83E0559547956E
:103000008A95E1F75695542F442757954795E40F35
:10301000F51FEA58FE4F6770772781E090E001C006
:10302000880F6A95EAF7482F222349F0213071F47E
:10303000315020F08081842B8193FACF08958095C0
:10304000315020F0908198239193FACF0895603801
:10305000710518F54034510500F5E42FE695E69525
:10306000E695F0E047705527F695FE2FEE27F79589
:10307000E7956E0F7F1FFB01EA58FE4F81E090E05D
:1030800001C0880F4A95EAF7222319F09081892B15
:1030900003C0809590818923808308952F923F9269
:1030A0004F925F926F927F928F929F92AF92BF9258
:1030B000CF92DF92EF92FF920F931F93CF93DF9304
:1030C000CDB7DEB728970FB6F894DEBF0FBECDBFE1
:1030D000FB0135E0C39EE00DF11D11241E161F06F5
:1030E0000CF067C02C2C312CFA01A8E0CA9EE00D30
:1030F000F11D11241E161F060CF05BC05E834D836C
:1031000035E0239FF0011124FA83E98378876F83E8
:10311000A12CB12CAC014C5F5F4F5C834B8355E01D
:10312000A516B10441F0E981FA81EA0DFB1DE95FC2
:10313000F04F149101C010E04D805E8088E0D82EE1
:1031400010FD02C0FE2C01C0F02EF11009C0E012EB
:1031500007C01695DA94420C531CD110F1CF1BC056
:103160008F809884882DAF818A1B8C1590F732014F
:10317000862D84198C1558F42F2DA301B4018B8151
:103180009C810E9427188FEF681A780AF1CF9FEF71
:10319000891A990AE7CFBFEFAB1ABB0AEF81F8850E
:1031A000E20DF31DF887EF83F6E0AF16B10409F0E6
:1031B000B6CF28960FB6F894DEBF0FBECDBFDF9115
:1031C000CF911F910F91FF90EF90DF90CF90BF9024
:1031D000AF909F908F907F906F905F904F903F90B7
:1031E0002F900895CF92EF920F93603871052CF4D1
:1031F0004034510514F40E944E180F91EF90CF9077
:103200000895CF92EF920F93CF93DF93EC016A3042
:1032100069F42A8D8E899F8938E0239F800D911D46
:1032200011249F8B8E8B1D8A1C8A2EC06D3061F1FC
:10323000262F4E895F896C897D89CA8CE98C088D1F
:103240000E94F2182A8D422F50E08C899D8936E029
:10325000239F800D911D11249D8B8C8B2B8D222300
:1032600099F06AEF64039001659F300D1124205896
:103270003F4F2817390744F4E881F9810190F08124
:10328000E02D6AE0CE01099581E090E0DF91CF91D9
:103290000F91EF90CF900895CF938091C70520E1D3
:1032A0008202C0011124C091C805C82B6C2F70E0A8
:1032B00080E090E040E10E94922185E09FE00E9442
:1032C000D3212091C9053091CA0524303105E9F098
:1032D0001CF437FF0AC01BC025303105C1F4C09370
:1032E000CC051092CB0581E013C08C2F90E0F90142
:1032F000EF5CFE4F4081042E000C550B84179507A0
:1033000031F081E08093CB0503C0CC23D1F380E082
:103310002F5F3F4F3093CA052093C905CF91089581
:103320000C94952B4F925F926F927F928F929F9207
:10333000AF92BF92CF92DF92EF92FF920F931F93C3
:10334000CF93DF93C091750110923A0110923D0125
:103350008091590190915A018130910509F45EC024
:103360008230910509F4A0C0892B09F030C10E9478
:103370000A2510921C0810921B0810921A0810922D
:103380001908EE24E39400E420E847E95AE060E0FD
:1033900070E080E090E00E94F42180914D0120E1F6
:1033A0008202C0011124895E954F0E947F2424E08F
:1033B000E22E26E1F22E8EE1C89F80011124C0E0AA
:1033C000D0E06801E3E0CE0ED11CFE01E00FF11F5A
:1033D000EB5DF94FC6018C0F9D1F4381B7018B5DDB
:1033E000994F0E94C3102196F5E0EF0EF11CC530F5
:1033F000D10559F780914C01DF91CF911F910F9129
:10340000FF90EF90DF90CF90BF90AF909F908F9004
:103410007F906F905F904F900C94E1110E940A256D
:1034200010921C0810921B0810921A08109219088A
:10343000EE24E39400E420E847E156E060E070E029
:1034400080E090E00E94F42180917501CEE1C89F58
:10345000C00111248B5D994F0E94E90F8091750185
:103460000E94680C80E00E94010E80917501C89F47
:10347000C00111248B5D994FFC01628D0E944C0E9E
:1034800080915801DF91CF911F910F91FF90EF90A4
:10349000DF90CF90BF90AF909F908F907F906F9074
:1034A0005F904F900C94750F00E02EE34DE461E0C7
:1034B00070E089E190E00E9483232CE34BE462E01A
:1034C00070E08AE190E00E94832301E02AE349E46E
:1034D00063E070E08BE190E00E946123412C05E005
:1034E00010E094E5692E712C6801065F1F4F542C83
:1034F000CDE1D0E020E0A601BE0189E098E00E9485
:1035000027185E01F1E1AF0EB11C20E0A601B50164
:1035100089E098E00E94271820E0A801BE0189E018
:1035200098E00E94271820E0A801B50189E098E002
:103530000E9427182EE1529E40011124E12CF12C0B
:10354000F701E80DF91DEB5DF94F808587FD17C088
:10355000A301481B510987FD539557FF02C04D5FDA
:103560005F4F55954795559547954C0D5D1D20E04E
:10357000B7016C0F7D1F89E098E00E9427188FEF3C
:10358000E81AF80AE0E1EE16F104D1F65394E501E9
:10359000C136D10509F0AECFF4E04F0E0D32110562
:1035A00009F0A2CF00E02CE044E460E370E08DE19C
:1035B00090E00E946123EE24E3940CE024E44FE8C1
:1035C00055E060E370E08DE190E00E94F421DF912E
:1035D000CF911F910F91FF90EF90DF90CF90BF9010
:1035E000AF909F908F907F906F905F904F900895D5
:1035F0008091590190915A018230910570F4909315
:1036000056018093550182E090E090935A01809397
:10361000590110923C010C9492190895EBE5F1E0E8
:103620008AE0DF011D928A95E9F780915901909116
:103630005A018130910569F01CF4892B39F0089505
:103640008230910559F0039771F0089581E090E080
:1036500022C010925A011092590121C08091550147
:103660009091560118C00E94D4246091C9057091B0
:10367000CA05072E000C880B990B97FF03C00E9408
:10368000192503C04AE00E9492218AEE9EE00E9422
:10369000D32182E090E090935A01809359010C94D9
:1036A00092198F929F92AF92BF92CF92DF92EF9238
:1036B000FF920F931F93CF93DF9300D0CDB7DEB768
:1036C0002091590130915A012230310529F02330DF
:1036D000310509F4EFC00DC190913C0195316CF4B6
:1036E0008091750191310CF048C09111B6C08F5F87
:1036F00080933C010E94710D0EC1953109F0ADC05F
:1037000080E191E09A83898361E6CE0101960E946F
:10371000231581E191E09A83898362E6CE010196C7
:103720000E94231582E191E09A83898366E4CE01A9
:1037300001960E94231583E191E09A8389836DE4C9
:10374000CE0101960E94231584E191E09A8389833A
:1037500061E0CE0101960E94231585E191E09A83F4
:10376000898360E1CE0101960E94231585E2E82E4F
:1037700086E0F82E00E010E04CC02EE1829FF001C0
:103780001124EB5DF94F158E23E030E030935A01A0
:10379000209359019093570110923B0100E027E1DB
:1037A00041E363E170E087E290E00E94832301E05F
:1037B00025E14FE264E170E088E290E00E9461233D
:1037C00000E028E04DE168E170E081E390E00E94D4
:1037D0006123EE24E39408E02DE142EB5EE068E132
:1037E00070E081E390E00E94F42100E028E04BE1EA
:1037F00060E270E082E390E00E94612308E02BE148
:1038000047E95EE060E270E082E390E00E94F4212C
:1038100082C0570148E1A40EB11C6701C801805164
:1038200095404C01F60161916F01C4018E0F9F1FFD
:103830009A838983CE0101960E942315CA14DB0462
:1038400089F7FEE1EF0EF11C06501109003A2FEF47
:103850001207F9F60E94521428C091509093650106
:10386000E09175012EE12E9FF0011124EB5DF94FDF
:10387000358D892F90E031110FC030E1308F148EDB
:10388000138E31E0358F289FF001299FF00D112410
:10389000EB5DF94F158E09C0289FF001299FF00DAF
:1038A0001124EB5DF94F81E0858F80915501909156
:1038B000560118C00E94D4246091C9057091CA05B0
:1038C000072E000C880B990B97FF03C00E94192547
:1038D00003C04AE00E9492218FEC9EE00E94D32117
:1038E00082E090E090935A01809359010E949219CE
:1038F00012C0809175014EE1849FC00111248B5D3F
:10390000994FFC01558D41E04527458F2130310508
:1039100011F40E94E90F0F900F90DF91CF911F914A
:103920000F91FF90EF90DF90CF90BF90AF909F905E
:103930008F900895409170015091710120916E0116
:1039400030916F0142175307B4F49091E8009570DD
:10395000E1F39091E80092FD19C08093F10080910D
:1039600070019091710101968F739927892B19F439
:103970008EEF8093E8008091700190917101019623
:10398000909371018093700181E0089580E0089523
:10399000CF92DF92EF92FF920F931F93CF93DF931B
:1039A0001F92CDB7DEB7182F062FE42E862F880F73
:1039B0008E5F99830E949A1C83E00E949A1CF12ECC
:1039C000C12E9981D92E8C2D8F19801798F4F6016C
:1039D000E7FE02C0849101C080810E949A1C182FCA
:1039E00080E00E949A1C8123FFEFCF1ADF0A811129
:1039F000EACF01C081E00F90DF91CF911F910F912D
:103A0000FF90EF90DF90CF900895DF92EF92FF92BA
:103A10000F931F93CF93DF93D82E8A017B01E40E7F
:103A2000F51EEB01CE15DF0571F0D7FE03C0FE01D8
:103A3000849101C088810E949A1C21968111F2CF45
:103A40008FEF9FEF01C0C801DF91CF911F910F91C0
:103A5000FF90EF90DF900895615030F02091F100D9
:103A6000FC0120830196F8CF289884E680937301A7
:103A70000895CF92DF92EF92FF920F931F93CF930F
:103A8000DF936C017A018B01C0E0D0E0CE15DF0539
:103A900089F0D8016D918D01D601ED91FC910190D5
:103AA000F081E02DC6010995892B11F47E0102C039
:103AB0002196ECCFC701DF91CF911F910F91FF901D
:103AC000EF90DF90CF900895CF93DF931F92CDB703
:103AD000DEB76983DC01ED91FC910280F381E02D7A
:103AE00041E050E0BE016F5F7F4F09950F90DF917D
:103AF000CF91089583E08093E9008091F2008823BC
:103B000019F08AE38093E8000895FC018485958587
:103B100097FD0BC09FB7F89482E08093E9008091F5
:103B2000F2009FBF90E0019608959FB7F89482E05D
:103B30008093E9008091F2009FBF90E008950F9379
:103B40001F93CF93DF931F92CDB7DEB782E08983B7
:103B500042E450E066E875E180E80E94051D0E949D
:103B60007C25DC0112960D911C911397011511050E
:103B700069F0D801ED91FC910280F381E02DBE0146
:103B80006F5F7F4FC801099597FF07C089810F902C
:103B9000DF91CF911F910F910895F8010085118554
:103BA000E5CF8F929F92AF92BF92CF92DF92EF922A
:103BB000FF920F931F93CF93DF935C016B018A01F8
:103BC00080910D01882309F45EC0809174018823DF
:103BD00009F459C08091440180FF05C08091E00044
:103BE00082608093E000E8018AEFF82E93E0E92EEE
:103BF0002FE3822E3AE3932E209709F43DC08FB72E
:103C0000F894E092E9009091E80095FF06C0909149
:103C1000F200282D291B922F01C090E08FBF911137
:103C20000AC0FA94FF2079F161E070E080E090E052
:103C30000E94AC16E1CF292F30E0C217D3070CF455
:103C40009C2F8FB7F894E092E9002091E80025FFBF
:103C500011C0292F30E0C21BD30BF601915020F088
:103C600041914093F100FACFC20ED31E9091E8002B
:103C700095FF13C08FBFC0CF5D9884E6809372011B
:103C80001016110644F081E090E0F50193838283E1
:103C900080E090E005C0C80103C09092E800EACF40
:103CA000DF91CF911F910F91FF90EF90DF90CF9018
:103CB000BF90AF909F908F9008950F931F93CF93D5
:103CC000DF931F92CDB7DEB78C01FC01848595850B
:103CD00097FF0EC0CE0101960E945225019719F45C
:103CE000298130E002C02FEF3FEFF80135872487AC
:103CF000F801848595850F90DF91CF911F910F91E9
:103D00000895CF93DF931F92CDB7DEB7FC01848572
:103D1000958597FD05C02FEF3FEF358724870BC0B2
:103D2000CE0101960E945225019719F4898190E0F5
:103D300002C08FEF9FEF0F90DF91CF9108951F92F8
:103D40000F920FB60F9211248F939F938091E100F1
:103D50009091E100937F9093E10083FF0FC0109258
:103D6000E90091E09093EB001092EC0092E39093C5
:103D7000ED001092740198E09093F00082FF20C053
:103D800093E09093E9009091F200992319F09AE35F
:103D90009093E80090917201992339F0909172010B
:103DA000915090937201992389F190917301992315
:103DB00039F090917301915090937301992341F1DF
:103DC00084FF10C08091E2008E7E81608093E200CB
:103DD0008091E1008F7E8093E100809144018E7E8E
:103DE000806111C080FF16C08091E2008E7E8061EC
:103DF0008093E2008091E1008E7E8093E1008091CB
:103E000044018E7E81608093440104C05D9ACDCFD1
:103E1000289AD6CF9F918F910F900FBE0F901F9031
:103E200018951F920F920FB60F921124CF92DF9226
:103E3000EF92FF920F931F932F933F934F935F93B4
:103E40006F937F938F939F93AF93BF93EF93FF9362
:103E5000CF93DF93CDB7DEB76C97DEBFCDBF1092A7
:103E6000E9008091E80083FFFAC168E0CE01459641
:103E70000E942C1D82EF8093E8008D8987FF05C08A
:103E80009091E80090FFFCCF03C09EEF9093E80074
:103E9000982F907609F0C6C09E892F89188D9111B0
:103EA0000CC0803829F4809145018093F10002C054
:103EB0001092F1001092F10047C1422F50E0512BB7
:103EC000913051F4811140C14130510509F03CC19C
:103ED000809145018D7F0BC0933061F4811134C115
:103EE0004130510509F030C18091450182608093D5
:103EF00045012AC1953041F48091E80080FFFCCF54
:103F000020682093E30020C1963009F05FC0EB8C5D
:103F1000FC8C1092E9001092710110927001123025
:103F200091F510926F0110926E010E949F1D99E011
:103F3000BE016F5F7F4FDB01E92F1D92EA95E9F724
:103F400099831A8391E09E8390EA98879AEF9987E4
:103F50002091700130917101275F3F4F3C832B838B
:103F60008D831092E9001092710110927001F0920D
:103F70006F01E0926E0149E050E080E00E94051D73
:103F80000E949F1DE1C0F0926F01E0926E010E94BD
:103F90007C25DC011296ED90FC901397E114F1045E
:103FA00009F4C0C0D701ED91FC910480F581E02DAA
:103FB000BE016B5E7F4FC7010995009719F00CF0A9
:103FC000C3C0C6C0F701E084F184E8CF973009F49C
:103FD000BFC0983021F481E08093F100B5C09930E2
:103FE00009F0B2C0837009F0B3C0E3E1F1E081E011
:103FF00021E036E39081992361F08093E9002093DA
:10400000EB0091919093EC003093ED008F5F87303F
:1040100089F78EE78093EA001092EA008F898093F7
:10402000740192C08B8D9C8D1092E90010927101E9
:104030001092700190936F0180936E01898D8111B0
:1040400056C08E899D89913A59F4813209F080C019
:1040500047E050E066E071E080E00E94051D74C01A
:10406000913209F075C0833289F4888D90E0982FE1
:1040700088272F89822BA0E0B0E0809302019093E3
:104080000301A0930401B09305015EC0803269F47E
:104090008091E80082FFFCCF67E086E091E00E941B
:1040A0002C1D8BEF8093E80006C0823209F04CC0D3
:1040B0008F8980930D0180914301882319F0EEEFE1
:1040C000FAE002C0E0E0F8E080910601909107017B
:1040D000A0910801B0910901803B9440A105B10570
:1040E00009F088C080910D0180FFA0C083C00E94AC
:1040F0007C25DC0112960D911C9113970115110579
:1041000039F1D801ED91FC910190F081E02DBE01D3
:104110006B5E7F4FC8010995811116C0F8010085BB
:104120001185ECCF1130C1F0133091F48F898823C1
:1041300009F455C08230E9F440E867E088ED95E184
:104140000E94C81C882321F08EEF8093E80087C06E
:1041500081E28093EB0083C08B8D9C8D089711F4D6
:1041600010936D0180916D01811136C060EE75E193
:1041700038C0813029F440E86BE08CEC95E1E0CF69
:10418000833031F70E947C25DC011296ED90FC9083
:1041900013978E010F5F1F4F6801E114F10479F04E
:1041A000D701ED91FC910680F781E02DB801C701A0
:1041B0000995080F111DF701E084F184EECFD801B5
:1041C0001C92F60101900020E9F73197BF016C19AC
:1041D0007D0940E0C601B4CF62EF75E102C068EC32
:1041E00075E16115710509F4B3CFFB01449150E00D
:1041F00080E833CF0FB6F894A8958091600088616D
:1042000080936000109260000FBEA895EE3F2AE0F8
:10421000F20739F08091FE0A9091FF0A9183808322
:1042200093CF1092FF0A1092FE0A8ECFEE3F8AE0E3
:10423000F80731F0808191819093FF0A8093FE0A04
:1042400087E797E7918380839BE088E10FB6F89436
:10425000A895809360000FBE9093600075CF6C9618
:104260000FB6F894DEBF0FBECDBFDF91CF91FF91A7
:10427000EF91BF91AF919F918F917F916F915F91DE
:104280004F913F912F911F910F91FF90EF90DF90F1
:10429000CF900F900FBE0F901F901895BC01009704
:1042A00091F0FC0101900020E9F73197AF01481B24
:1042B000590BE0917605F09177050280F381E02DAE
:1042C00086E795E0099480E090E00895DF92EF9210
:1042D000FF920F931F93CF93DF937C01D22E8B011C
:1042E000040F111DEB0177FF0EC0C0E0D0E00BC042
:1042F000C417D5077CF42D2DAE01B70189E098E0F5
:104300000E9427182196A801013411058CF340E47E
:1043100050E0EECFDF91CF911F910F91FF90EF9082
:10432000DF9008958F929F92AF92BF920F931F9349
:10433000CF93DF93CDB7DEB7A1970FB6F894DEBF6A
:104340000FBECDBF19A2423008F44AE08E010F5DC6
:104350001F4F842E912CA12CB12CA50194010E94F9
:10436000CA2BE62FB901CA0101501109EA3014F431
:10437000E05D01C0E95CD801EC93232B242B252BB5
:1043800061F7C8010E944E21A1960FB6F894DEBFD6
:104390000FBECDBFDF91CF911F910F91BF90AF9016
:1043A0009F908F9008950F931F93CF93DF938C016D
:1043B000C0E0D0E0F801EC0FFD1F6491662371F0BE
:1043C000E0917605F09177050190F081E02D86E788
:1043D00095E00995892B11F02196ECCFCE01DF9164
:1043E000CF911F910F9108952F923F924F925F921C
:1043F0006F927F928F929F92AF92BF92CF92DF92F5
:10440000EF92FF920F931F93CF93DF93CDB7DEB759
:104410002D970FB6F894DEBF0FBECDBFED82E22E12
:10442000F12C9C012E0D3F1D37FD32C180389105C6
:104430000CF02EC19B01200F311D37FD29C16034C6
:1044400071050CF025C1DB0177FF04C0AA27BB274B
:10445000A61BB70BA770BB279B0177FF02C0295F84
:104460003F4F13E0359527951A95E1F777FF08C080
:104470002150310968E070E0FB01EA1BFB0BDF0112
:10448000E02FE695E695E695CE2ED12C077019F033
:10449000FFEFCF1ADF0AB9017695762F6627779559
:1044A0006795680F791F6A587E4F8601020F131FA8
:1044B00019870887C12CD12CF8E0AF2EB12C8501CB
:1044C0000A1B1B0B1F830E830885198520173107D4
:1044D00009F4DEC02830310509F4DAC02F3F1FEFA0
:1044E00031070CF4CAC08B0100581F4F1D870C8781
:1044F0004B013B012B011C011C830B831A83098395
:104500001B861A860A851B850E151F050CF0B5C083
:1045100010E82116310409F4B0C037FC89C02F3FE0
:10452000EFEF3E0709F4B0C00A851B850C0D1D1D79
:10453000FD81F13079F4F801E40FF51FE491F0E02A
:104540008F010A2E01C0000F0A94EAF7F301B08030
:104550000B2925C0FD81F11114C0F801E40FF51FEE
:10456000E491F0E00A2E02C0EE0FFF1F0A94E2F77A
:104570008F0100951095F401A080B12C0A211B2118
:104580000EC0F801E40FF51FE491F0E08F010A2E50
:1045900001C0000F0A94EAF7F201B0800B250083F6
:1045A000109709F445C02730310509F441C00A8548
:1045B0001B850C0D1D1DFD81F13089F4F801E40F00
:1045C000F51FE4910E2F10E00E8002C0159507959F
:1045D0000A94E2F7EC85FD85B0800B2928C0FD81A7
:1045E000F11115C0F801E40FF51FE4910E2F10E052
:1045F0000E8002C0159507950A94E2F70095109574
:10460000E981FA81A080B12C0A211B2110C0F80198
:10461000E40FF51FE4910E2F10E00E8002C01595F7
:1046200007950A94E2F7EB81FC81B0800B250083AB
:104630000A851B850F5F1F4F1B870A870C851D8509
:104640000F5F1F4F1D870C8709811A810F5F1F4F56
:104650001A8309830B811C810F5F1F4F1C830B83FF
:104660001FEF211A310AEFEF4E1A5E0AFFEF6F1AA1
:104670007F0A0FEF801A900A45CF2F5F3F4F605897
:104680007F4FCE0CDF1C20CF109709F090CFD0CFFA
:104690002D960FB6F894DEBF0FBECDBFDF91CF9140
:1046A0001F910F91FF90EF90DF90CF90BF90AF9050
:1046B0009F908F907F906F905F904F903F902F9042
:1046C0000895CF92DF92EF92FF920F931F93CF93B3
:1046D000DF936B01122FEC017C01E40EF11CCE156F
:1046E000DF0544F4202F412FB601CE010E94662140
:1046F0002196F5CFDF91CF911F910F91FF90EF9011
:10470000DF90CF900895DF92EF92FF920F931F9367
:10471000CF93DF93EC017B01D42E122F603471050F
:1047200020F4202FCE010E94E417B701610F711D04
:10473000615071096034710528F4202F4D2DCE0190
:104740000E94E417202F412FB701CE010E9466215D
:10475000CE018D0D911D202F412FB7010197DF91C3
:10476000CF911F910F91FF90EF90DF900C946621F5
:104770004F925F926F927F929F92AF92BF92CF9231
:10478000DF92EF92FF920F931F93CF93DF938C01F1
:10479000DC0158968C91F801E80FF11D808587FDAA
:1047A00088C0CDEED5E0E12CF12C4CE0942E52E007
:1047B000A52EB12C65E9462E55245394612C712CFD
:1047C000F801808DE80FF11DD80111969C9180852C
:1047D000999D800D1124E82F082E000CFF0BF595F4
:1047E000E795F595E795E357F94E45915491E42FF8
:1047F000EF708370E82BB8E0EB9FF0011124E35DCC
:10480000F94E25913491F701E351FA4F6F01E38D91
:10481000F0E0E35EF94EA491B0E00E94EC2B552746
:1048200024E0559547952A95E1F7DC01CB0104C0BA
:10483000880F991FAA1FBB1F4A95D2F78C839D83AF
:10484000AE83BF83188219821A821B82BD8AAC8A0A
:10485000D60158968C9190E0A0E0B0E031E1880F4D
:10486000991FAA1FBB1F3A95D1F78C879D87AE87EA
:10487000BF87F601818D811105C0188A198A1A8AAD
:104880001B8A0DC0A301920104C0220F331F441FD5
:10489000551F8A95D2F7288B398B4A8B5B8B3CE16D
:1048A000E30EF11C6C9648E3E416F10409F088CF9E
:1048B00016C08F3FA1F480E090E0AFEFB0E08093AE
:1048C000F9059093FA05A093FB05B093FC0580933E
:1048D000150690931606A0931706B0931806DF915D
:1048E000CF911F910F91FF90EF90DF90CF90BF90ED
:1048F000AF909F907F906F905F904F900895CF9270
:10490000EF920F931F93CF93DF931FE0FC0124914D
:10491000EC012196222381F0612F70E0CC24C39416
:10492000EE24E39400E045E050E085E098E00E944A
:10493000F2181A5FCE01EACFDF91CF911F910F914C
:10494000EF90CF900895AF92BF92CF92EF920F93D6
:104950001F93CF93DF93C82F842FA62EB12CD0E0C6
:104960006AE00E944E2B192F20E3280FCC24C39419
:10497000EE24E39400E0A501BE0185E098E00E94EA
:10498000F21820E3210FBE016A5F7F4FA50185E089
:1049900098E00E94F218DF91CF911F910F91EF9054
:1049A000CF90BF90AF90089586E391E00C944E2194
:1049B000CF93DF93A09175018EE1A89FD0011124C0
:1049C000A85DB94FED01E4E0F6E184919881891783
:1049D00010F4849188832196359686E1ED31F807AD
:1049E000A1F78C918093070611968C911197809373
:1049F000080612968C9112978093050613968C9157
:104A000013978093060614968C9180932206DF916B
:104A1000CF91089520E086E791E0B22FB111BFEF6A
:104A2000FC010024B193B193B193B1930394D1F7F6
:104A30000895CF92DF92EF92FF92CF93DF936B01B5
:104A40007C01E0917605F09177050190F081E02DF1
:104A50006DE286E795E00995EC0166277727CB01A3
:104A60006C197D098E099F094AE00E9492218C0FE2
:104A70009D1FDF91CF91FF90EF90DF90CF90089531
:104A8000809176018EBDE7E7F1E081910DB407FEDC
:104A9000FDCF8EBD85E0E637F807B9F70DB407FE08
:104AA000FDCF0895FC0180917401811103C08FEF47
:104AB0009FEF08959FB7F89482E08093E9002091DA
:104AC000F20030E01216130614F421E030E0211554
:104AD000310559F0289884E6809373018091F100A4
:104AE00080838091F200882319F09FBFC901089547
:104AF0008BE68093E800F9CF8091250881110DC0E5
:104B000082E08093210884E0809322081092240898
:104B10001092230881E08093250881E298E00895AF
:104B2000789484B5826084BD84B5816084BD85B588
:104B3000826085BD85B5816085BD80916E00816094
:104B400080936E001092810080918100826080933A
:104B5000810080918100816080938100809180003C
:104B600081608093800080919100826080939100A9
:104B7000809191008160809391008091900081608C
:104B8000809390008091C10084608093C1008091E7
:104B9000C10082608093C1008091C10081608093D8
:104BA000C1008091C30081608093C3008091C000E8
:104BB00082608093C0008091C20081608093C200B7
:104BC00080917A00846080937A0080917A0082607C
:104BD00080937A0080917A00816080937A0080913E
:104BE0007A00806880937A001092740110924501D7
:104BF000109244018091D70081608093D70080EAB1
:104C00008093D80089B5806189BD89B5826089BDEE
:104C100009B400FEFDCF61E070E080E090E00E940A
:104C2000AC168091D8008F7C80618093D8008091F1
:104C3000E000807F8093E0008091E1008E7E809391
:104C4000E1008DE08093E200559A209AEEEFFFE7B5
:104C5000859194918B3F9C4D19F481E080934301A1
:104C6000CFB7F89480916701811127C0EFE2F5E199
:104C70008491E2E0F5E19491E82FF0E0EE0FFF1F60
:104C8000EA52FB4EA591B491EC91E92321F461E045
:104C900081E10E940D1661E081E10E9470168CB5E1
:104CA00080618CBD8CB580648CBD61E08FE00E941A
:104CB000701661E080E10E947016809167018F5F3D
:104CC00080936701CFBFCDE3D5E1FE0184912296A9
:104CD00031966491882319F00E947016F6CF61E036
:104CE00086E00E940D1661E070E080E090E00E9496
:104CF000AC1660E086E00E940D166AE070E080E08D
:104D000090E00E94AC1661E086E00E940D16EAE297
:104D1000F5E1E491F0E0EE0FFF1FE05FFA4E8591C0
:104D2000949190934B0180934A01EDEFF4E1E4916B
:104D3000E0934901E2E2F5E1E491F0E0EE0FFF1FBC
:104D4000E05FFA4E859194919093480180934701DA
:104D5000E5EFF4E1E491E09346018CB58C7F8CBDE6
:104D60008DB581608DBD0E947117C4EED4E11C2FFA
:104D7000135FFE0184910E94A31721961C13F9CFA3
:104D80000E948F17809164008160809364008091FD
:104D900064008260809364008091640080688093E6
:104DA0006400809164008064809364008091650059
:104DB000816080936500C0E0D4E080E00E94A3178A
:104DC0002197D9F70E94301787FF3CC00E947117C6
:104DD00085EA0E94A3170E948F1740E060E080E000
:104DE0000E944D170E94301784FD03C00E94661771
:104DF000F9CF41E061E081E00E944D170E947117F8
:104E000084EA0E94A3170E948F171CC060E089E00B
:104E10000E940D160E9430178478843821F44FEFD9
:104E20006BE00E94AA170E9430178471843121F42C
:104E300040E06AE00E94AA1768EC70E080E090E031
:104E40000E94AC160E94301782FDE0CF61E089E03D
:104E50000E940D1660E08AE00E940D16CEEEDFEF94
:104E60001C2FCC3F19F441E060E004C0C83129F4A4
:104E700040E061E081E00E944D170E940A25EE2487
:104E8000E39400E128E546E254E1BE0184E190E0CC
:104E90000E94F4210E9440256BE170E080E090E0E8
:104EA0000E94AC16103F31F46AEF70E080E090E0B1
:104EB0000E94AC162196C931D10591F66EEE72E0D2
:104EC00080E090E00E94AC1661E089E00E940D163F
:104ED00082E090E00E94952B882359F061E085E004
:104EE0000E94701661E08DE00E94701681E0809350
:104EF000660182E480930E0810925A0110925901C3
:104F000061E08DE00E94701661E085E00E947016FD
:104F10008091C100877F8093C1008091C1008B7F09
:104F20008093C1008091C1008D7F8093C1008091EA
:104F3000C10081608093C1008091C0008260809335
:104F4000C0008091C30081608093C3008091C30042
:104F50008D7F8093C3008091C0008F778093C000C5
:104F60008091C00080648093C00080917200846052
:104F700080937200CA9AECE5F5E1E491E0930706AC
:104F8000EDE5F5E1E491E0930806EEE5F5E1E49165
:104F9000E0930506EFE5F5E1E491E0930606E0E62F
:104FA000F5E1E491E093220681E080934C01809347
:104FB000580110924D01EBE5F1E08AE0DF011D920E
:104FC0008A95E9F70E94301783FF03C00E94810C85
:104FD00004C00E9452148823C9F31092750181E025
:104FE000809342060E94921980E00E940B110E9459
:104FF00040252EE1F22E30E7432E3CE4532E612C67
:10500000712C48E1342E50E0C52E50E0D52EEE2410
:10501000E394812C912C5401AA949FE0292E809135
:105020005001882309F446C280916801909169017A
:1050300090934F0180934E01109250018091010195
:1050400081508093010187FF6AC020920101409145
:10505000F9055091FA056091FB057091FC05411529
:105060005105BFEF6B07710530F58091FD059091FB
:10507000FE05A091FF05B0910006840F951FA61FA5
:10508000B71FAC01BD01442755276627452B462B8A
:10509000472B49F48093F9059093FA05A093FB05FB
:1050A000B093FC0508C08092F9059092FA05A09291
:1050B000FB05B092FC0540911506509116066091D3
:1050C00017067091180641155105EFEF6E0771052F
:1050D00030F58091190690911A06A0911B06B091A7
:1050E0001C06840F951FA61FB71FAC01BD014427E6
:1050F00055276627452B462B472B49F480931506E9
:1051000090931606A0931706B093180608C08092D5
:10511000150690921606A0921706B092180640E067
:1051200050E0BA018DEE95E00E946615AC01990F32
:10513000660B770B8CE0440F551F661F771F8A950F
:10514000D1F789E096E00E946615909369018093FB
:10515000680120917501F29EE0011124CB5DD94FC9
:105160008D8D882361F18B8D9C8D01979C8F8B8F0A
:1051700097FF25C0888D8031D8F4CE010E94B823D6
:10518000288130E040E050E0C301B2010E94AB2B27
:105190002F5F3F4F329EC001339E900D1124019727
:1051A0009C8F8B8F888D91E0980F988F898F07C087
:1051B00080916501281385C1188E1C8E1B8E8FB7B8
:1051C000F8944091510150915201609153017091B6
:1051D00054018FBF80911708882389F080910F08B0
:1051E000F42FF81BF093180880910C0890910D088B
:1051F000019690930D0880930C08109217088091E7
:10520000130890911408A0911508B091160848173A
:1052100059076A077B0738F4841B823008F44AC1B7
:105220000E94661747C180910E088A019B01080FF2
:10523000111D211D311D0093130810931408209394
:1052400015083093160840930F0850931008609388
:10525000110870931208E092170880916A01882360
:1052600021F00E94402510926A010DEB11E1980196
:1052700040E861E671E08BE591E00E94260D909197
:105280006A01892B80936A010FE911E1980140E1DD
:1052900062E671E08CE591E00E94260D90916A0132
:1052A000892B80936A0109E312E1980140E260E0F2
:1052B00070E08DE591E00E94260D90916A01892BA6
:1052C00080936A0109E112E1980140E460E070E036
:1052D0008EE591E00E94260D90916A01892B8093C2
:1052E0006A0108EF1AE121E53BE148E063E671E07D
:1052F0008FE591E00E94260D90916A01892B8093A1
:105300006A010EE01BE1980144E060E070E080E695
:1053100091E00E94260D90916A01892B80936A0189
:105320008091590190915A0181309105A9F1833002
:10533000910509F489C0892B09F0BCC080916C01EA
:10534000882309F4B7C0C4E0D6E100E010E0809102
:105350006B01F801F89EE00DF11D1124EB5DF94F92
:1053600040E0BE0183810E940D1080917501F8011B
:10537000F89EE00DF11D1124EB5DF94F41E0BE01F7
:1053800083810E940D100F5F1F4F25960530110578
:10539000F1F610926C0176C0E0917501FE9EF0016D
:1053A0001124EB5DF94F918D808D981709F482C01F
:1053B000628DCF010E944C0E80916C01882361F1B7
:1053C000C0916B01FC9EF0011124CF018B5D994FC0
:1053D000DC015A966C910E944C0E80917501C817A1
:1053E00039F08C2F0E94680C809175010E94680C26
:1053F00010926C0180E00E94010E80917501F89E70
:10540000C00111248B5D994FFC01628D0E944C0EEE
:10541000809158010E94750F80917501F89EC0011E
:1054200011248B5D994FDC0159966C910E944C0EB2
:10543000E0917501FE9EF0011124EB5DF94F818D25
:10544000828F808D818F1EC080915701823159F0EB
:1054500024F4813179F580E007C08331B1F08431E3
:1054600049F581E013C081E00E94E413882311F123
:10547000809155019091560190935A018093590162
:105480000E949219E0926A0115C080E00E945B12AE
:10549000882381F0C0915501D0915601D0935A01D3
:1054A000C09359010E949219E0926A01CD2B11F02C
:1054B0000E94D824C114D10409F4B1CD0E94000087
:1054C000ACCDE0926C0120936B011D8EF89EF00133
:1054D0001124EB5DF94F108E998D918F809375019A
:1054E0000E94D8246CCECF93DF931092790510924E
:1054F000780588EE93E0A0E0B0E080937A05909381
:105500007B05A0937C05B0937D058DE191E09093A0
:105510007705809376058FEF9FEF909383058093B7
:105520008205109208081092070810920A0810923B
:105530000B0880E180930E0810920D0810920C0861
:105540001092130810921408109215081092160861
:10555000109217088DE291E0909306088093050859
:1055600010921A081092190810921C0810921B0829
:1055700081E080931D0810921E0880931F081092EE
:105580002008A5E2B6E0E2E4F6E028E790E82C93F4
:10559000EF016C971882219698836696188221965F
:1055A0001882219618825C961C921E925B978083CB
:1055B0005E967E9638E0A530B30749F7EDEEF5E04C
:1055C00080E090E021E01082118212821382148622
:1055D0001586168617861482158216821782108AFF
:1055E000118A128A138A158A148A178A168ADC018C
:1055F000A351BA4F5B962C935B9759961C9259977F
:1056000058961C9258975A961C924C967C968833C2
:105610009105C9F688E78093CD051092CE0580E804
:105620008093CF051092E5051092E6051092E705EC
:105630001092E9051092E80581E08093EA05EDE219
:10564000F8E080E090E021E0108211821282138263
:10565000148615861686178614821582168217827E
:10566000108A118A128A138A158A148A178A168A4E
:10567000DC01A35DB74F5B962C935B9759961C9208
:10568000599758961C9258975A961C924C967C960D
:1056900088339105C9F6DF91CF910895991B79E080
:1056A00004C0991F961708F0961B881F7A95C9F7B2
:1056B0008095089597FB072E16F4009407D077FD88
:1056C00009D00E94742B07FC05D03EF4909581957B
:1056D0009F4F0895709561957F4F0895EE0FFF1FBE
:1056E0000590F491E02D0994AA1BBB1B51E107C062
:1056F000AA1FBB1FA617B70710F0A61BB70B881F62
:10570000991F5A95A9F780959095BC01CD010895F0
:10571000FB01DC0104C08D910190801921F44150FE
:105720005040C8F7881B990B0895F999FECF92BD98
:1057300081BDF89A992780B50895262FF999FECF53
:105740001FBA92BD81BD20BD0FB6F894FA9AF99A9E
:105750000FBE01960895052E97FB1EF400940E943B
:10576000C22B57FD07D00E94CA2B07FC03D04EF472
:105770000C94C22B50954095309521953F4F4F4F3B
:105780005F4F089590958095709561957F4F8F4FED
:105790009F4F0895A1E21A2EAA1BBB1BFD010DC04D
:1057A000AA1FBB1FEE1FFF1FA217B307E407F507D1
:1057B00020F0A21BB30BE40BF50B661F771F881FAD
:1057C000991F1A9469F760957095809590959B0143
:1057D000AC01BD01CF010895A29FB001B39FC001EC
:1057E000A39F700D811D1124911DB29F700D811D0D
:0A57F0001124911D0895F894FFCFD5
:1057FA00010FFFFFFFFF00E10000000000000100B1
:10580A00000000C1808100000000000000641DD17A
:10581A001D851D811E5D1E7A1D00000000011939BB
:0A582A001D6162464D000D0A0000EA
:00000001FF
