:100000000C94550A0C947D0A0C947D0A0C947D0A7C
:100010000C947D0A0C947D0A0C947D0A0C947D0A44
:100020000C947D0A0C947D0A0C94C71A0C94391B0D
:100030000C947D0A0C947D0A0C947D0A0C947D0A24
:100040000C947D0A0C943D0C0C947D0A0C947D0A52
:100050000C947D0A0C947D0A0C947D0A0C94500B30
:100060000C947D0A0C947D0A0C947D0A0C947D0AF4
:100070000C947D0A0C947D0A0C947D0A0C947D0AE4
:100080000C94DB0C0C947D0A0C947D0A0C947D0A74
:100090000C947D0A0C947D0A0C947D0A0C947D0AC4
:1000A0000C947D0A0C9405120C947D0A0013031322
:1000B000F212F612FA1224132413241307130B134B
:1000C0000F131513191324131F13C213C713CC13C3
:1000D000D613E0132A142A142A14EA13F413FE1375
:1000E000081415142A141D144218451848184B18E2
:1000F0004E185118541857185A185D186018007F78
:100100009E797674866FCB6A4466EE61C75DCD5981
:10011000FF555952DC4E844B50483F455042803F7A
:10012000CF3C3B3AC33766352233F730E42EE72C19
:10013000FF2A2D296E27C2252824A0222821C01F8E
:10014000671E1D1DE11BB31A91197C1872177316D7
:1001500080159614B713E112141250119410E00F89
:10016000340F8F0EF10D590DC90C3E0CB90B3A0B23
:10017000C00A4B0ADB0970090A09A8084A08F007F7
:100180009A074707F806AD0664061F06DC059D05BD
:1001900060052605EE04B804850454042504F8031C
:1001A000CD03A4037C03560332030F03EE02CE02F9
:1001B000B002930277025C0243022A021202FC019F
:1001C000E601D201BE01AB01990188017701670107
:1001D000580149013B012E01210115010901FE00D1
:1001E000F300E900DF00D600CD00C400BC00B4007D
:1001F000AC00A5009E00970091008A0085007F005A
:100200007A00740070006B00660062005E005A00A5
:10021000560052004F004C0048004500420040008C
:100220003D003A0038003500330031002F002D002A
:100230002B00290027002600240023002100200095
:100240001E001D001C001B001A00180017001600DD
:100250001500150014001300120011001100100009
:100260000F000F000E000D000D000C000C000B0025
:100270000B000A000A000900090009000800080034
:100280000800070007000700060006000600060039
:100290000500050005000500050004000400040039
:1002A0000400040003000300030003000300030034
:1002B000030003000200020002000200020002002C
:1002C0000200020002000200020002000100010020
:1002D0000100010001000100010001000100010016
:1002E0000100010001000100010001000100010006
:1002F0000100010001000100010000000000FF6595
:10030000554C45403C383532302E2C2A28272524A0
:100310002321201F1E1D1C1B1A191918171616152C
:100320001414131312111110100F0F0E0E0D0D0DCA
:100330000C0C0B0B0B0A0A0A090909080808080724
:10034000070706060606050505050504040404045A
:10035000030303030303020202020202020101017A
:100360000101010101010100000000000000000086
:100370000000000000000000000000000000000677
:10038000050403020100FFFEFDFCFBFAFAFAF9F98D
:10039000F9FAFAFBFCFDFEFF00010203040506FD6D
:1003A000FCFBFAFAF9F9F9F9FAFBFCFDFEFFFF0094
:1003B00001020304050607070707070605040301F2
:1003C00000030C0300010000D8DCD80000FEFEFE94
:1003D000FEFEFEFEFEFEFEFEFEFEFEFEFEFEFEFE3D
:1003E000FE00AA15CAE522E5CA15AA00FFFF000013
:1003F00000FF000000FFFF00FFFF000000FF000003
:1004000000FF000000FFFF00FFFF000000FF0000F2
:1004100000FFFF00FFFF000000FF000000FF0000E2
:1004200000FFFF00FFFF000000FF000000FFFF00D3
:10043000FFFF000000FF000000FF000000FFFF00C2
:10044000FFFFFF00AA55A850A851A850A853AB53CE
:10045000030303030303030303030303AB53AB537C
:10046000AB50AA007FFF80FF7F00AA00FFFFFC00C7
:10047000FCFFFC00FCFFFF00FFFFFC00FCFFFC009A
:10048000FCFFFC00FCFFFF00FFFFFC00FCFFFC008A
:10049000FCFFFF00FFFFFC00FCFFFC00FCFFFC007A
:1004A000FCFFFF00FFFFFC00FCFFFC00FCFFFF0067
:1004B000FFFFFC00FCFFFC00FCFFFC00FCFFFF005A
:1004C000FFFFFF00AA55AA552A152A55AA55AA5575
:1004D00028142854A854A85428142854AA55AA55B6
:1004E0002A152A55AA54AA542A152A54A955A9549A
:1004F00029152954A955A95429152954A955A95490
:1005000029152954A955A95429152954A955A9547F
:1005100029152954A955A95429152954A955A9546F
:1005200029152954A955A95429152954A955A9545F
:1005300029152954A955A95429152954A955A9544F
:1005400029152954AA5500FEFF01FFFE005500FEA3
:10055000FF01FFFE005500FEFF01FFFE005500FEFB
:10056000FF01FFFE000100FEFF01FFFE005500FE3F
:10057000FF01FFFE005500FEFF01FFFE005500FEDB
:10058000FF01FFFE000100FEFF01FFFE005500FE1F
:10059000FF01FFFE005500FEFF01FFFE005500FEBB
:1005A000FF01FFFE000100FEFF01FFFE005500FEFF
:1005B000FF01FFFE005500FEFF01FFFE005500FE9B
:1005C000FF01FFFE005500FFFF00FFFF005500FF89
:1005D000FF00FFFF005500FFFF00FFFF005500FF79
:1005E000FF00FFFF000000FFFF00FFFF005500FFBE
:1005F000FF00FFFF005500FFFF00FFFF005500FF59
:10060000FF00FFFF000000FFFF00FFFF005500FF9D
:10061000FF00FFFF005500FFFF00FFFF005500FF38
:10062000FF00FFFF000000FFFF00FFFF005500FF7D
:10063000FF00FFFF005500FFFF00FFFF005500FF18
:10064000FF00FFFF005500FFFF00FFFF005500FF08
:10065000FF00FFFF005500FFFF00FFFF005500FFF8
:10066000FF00FFFF000000FFFF00FFFF005500FF3D
:10067000FF00FFFF005500FFFF00FFFF005500FFD8
:10068000FF00FFFF000000FFFF00FFFF005500FF1D
:10069000FF00FFFF005500FFFF00FFFF005500FFB8
:1006A000FF00FFFF000000FFFF00FFFF005500FFFD
:1006B000FF00FFFF005500FFFF00FFFF005500FF98
:1006C000FF00FFFF005500FFFF00FFFF005500FF88
:1006D000FF00FFFF005500FFFF00FFFF005500FF78
:1006E000FF00FFFF000000FFFF00FFFF005500FFBD
:1006F000FF00FFFF005500FFFF00FFFF005500FF58
:10070000FF00FFFF000000FFFF00FFFF005500FF9C
:10071000FF00FFFF005500FFFF00FFFF005500FF37
:10072000FF00FFFF000000FFFF00FFFF005500FF7C
:10073000FF00FFFF005500FFFF00FFFF005500FF17
:10074000FF00FFFF0055803F7F607F3FC055803F27
:100750007F607F3FC05D803F7F607F3FC055803FAF
:100760007F607F3FC050803F7F607F3FC055803FAC
:100770007F607F3FC055803F7F607F3FC055803F97
:100780007F607F3FC050803F7F607F3FC055803F8C
:100790007F607F3FC055803F7F607F3FC055803F77
:1007A0007F607F3FC050803F7F607F3FC055803F6C
:1007B0007F607F3FC055803F7F607F3FC055803F57
:1007C0007F607F3FC05541636F75737469632050CC
:1007D00069616E6F0000456C6563747269632050D7
:1007E00069616E6F0000547562756C6172204265BC
:1007F0006C6C730000004D6172696D6261000000F5
:100800000000000000004A617A7A2047756974612F
:1008100072000000000046696E67657220426173D5
:10082000730000000000536C61702042617373001C
:10083000000000000000AA44AA11AA440201C2E478
:10084000C20102A4F2F1F2F4F2F1F2F4F2F1F2F4E4
:10085000F2F1F2F4F2F1F2F4F2F1F2F4F2F1F2F474
:10086000F2F1F2F4F2F1F2F4F2F1F2F4F2F1F2F464
:10087000F2F1F2F4F2F1F2F4F2F1F2F4F2F1F2F454
:10088000F2F1F2F4F2F1F2F4F2F1F2F4F2F1F2F444
:10089000F2F1F2F4F2F1F2F4F2F1F2F4F2F1F2F434
:1008A000F2F1F2F4F2F1F2F40211AA44AA11AA440C
:1008B000AA11AA44AA11AA44AA11AA448000864EE9
:1008C0008600804A9F1F9F5F9F1F9F5F9F1F9F5FA4
:1008D0009F1F9F5F9F1F9F5F9F1F9F5F9F1F9F5F28
:1008E0009F1F9F5F9F1F9F5F9F1F9F5F9F1F9F5F18
:1008F0009F1F9F5F9F1F9F5F9F1F9F5F9F1F9F5F08
:100900009F1F9F5F9F1F9F5F9F1F9F5F9F1F9F5FF7
:100910009F1F9F5F9F1F9F5F9F1F9F5F9F1F9F5FE7
:100920009F1F9F5F9F1F9F5F8011AA44AA11AA4427
:10093000AA11AA44AA11AA44AA11AA44AA1102A45B
:10094000F2F1F2F4F2F1F2F4F2F1F2F4F201AA446B
:10095000AA11AA44AA1102A4F2F1F2F4F2F1F2F4FB
:10096000F2F1F2F4F201AA44AA11AA44AA1102A4D3
:10097000F2F1F2F4F2F1F2F4F2F1F2F4F201AA443B
:10098000AA11AA44AA1102A4F2F1F2F4F2F1F2F4CB
:10099000F2F1F2F4F201AA44AA11AA44AA1102A4A3
:1009A000F2F1F2F4F2F1F2F4F2F1F2F4F201AA440B
:1009B000AA11AA44AA11AA44AA11AA44AA11804AB7
:1009C0009F1F9F5F9F1F9F5F9F1F9F5F9F00AA4466
:1009D000AA11AA44AA11804A9F1F9F5F9F1F9F5F71
:1009E0009F1F9F5F9F00AA44AA11AA44AA11804A90
:1009F0009F1F9F5F9F1F9F5F9F1F9F5F9F00AA4436
:100A0000AA11AA44AA11804A9F1F9F5F9F1F9F5F40
:100A10009F1F9F5F9F00AA44AA11AA44AA11804A5F
:100A20009F1F9F5F9F1F9F5F9F1F9F5F9F00AA4405
:100A3000AA11AA44AA11AA44AA11AA44AAF17A1C8A
:100A40000E0706030303030306070E1C7AF1AA44EC
:100A5000AA11AA44AAF17A1C0E0706030303030392
:100A600006070E1C7AF1AA44AA11AA44AAF17A1C1C
:100A70000E0706030303030306070E1C7AF1AA44BC
:100A8000AA11AA44AAF17A1C0E0706030303030362
:100A900006070E1C7AF1AA44AA11AA44AAF17A1CEC
:100AA0000E0706030303030306070E1C7AF1AA448C
:100AB000AA11AA44AA11AA44AA11AA44AF3FF0C09D
:100AC0008000000000000000000080C0F03FAF4444
:100AD000AA11AA44AF3FF0C080000000000000004F
:100AE000000080C0F03FAF44AA11AA44AF3FF0C05D
:100AF0008000000000000000000080C0F03FAF4414
:100B0000AA11AA44AF3FF0C080000000000000001E
:100B1000000080C0F03FAF44AA11AA44AF3FF0C02C
:100B20008000000000000000000080C0F03FAF44E3
:100B3000AA11AA44AA11AA44AA11AA042A112A8510
:100B4000AB93AB86AE16AE86AB93AB852A112A0467
:100B50002A512A04AA112A05AB13AB862E96AE069B
:100B6000AB932B85AA91AA042A512A042A112A851B
:100B7000AB93AB86AE162E86AB132B052A112A0437
:100B80002A512A042A91AA85AB93AB062E96AE86EB
:100B9000AB932B052A91AA042A512A04AA91AA856B
:100BA000AB932B06AE96AE86AB132B05AA91AA0487
:100BB0002A11AA44AA11AA44AA11AA008000803FBF
:100BC000BF0484048000BF3FA424A43F9B00800096
:100BD00080558000BF3F8E3FBF009F3FA03F9F00DA
:100BE000BF3FA000BF3F8000805580008000800094
:100BF000803FBF008000803FBF20A020A000800079
:100C0000805580008020BF3FA020BF1F803FBF0CC9
:100C10009C37A300813FBF0080558000A03FBF20CC
:100C2000A03F9F00BF3F8C1CB7238031B92CA72366
:100C30008000AA44AA1100000000003E5B4F5B3E0A
:100C40003E6B4F6B3E1C3E7C3E1C183C7E3C181C91
:100C5000577D571C1C5E7F5E1C00183C1800FFE788
:100C6000C3E7FF0018241800FFE7DBE7FF30483A2E
:100C7000060E2629792926407F050507407F052590
:100C80003F5A3CE73C5A7F3E1C1C08081C1C3E7F18
:100C900014227F22145F5F005F5F06097F017F00DF
:100CA0006689956A606060606094A2FFA2940804FF
:100CB0007E040810207E201008082A1C08081C2A20
:100CC00008081E101010100C1E0C1E0C30383E3878
:100CD00030060E3E0E06000000000000005F00001F
:100CE0000007000700147F147F14242A7F2A122390
:100CF0001308646236495620500008070300001CA0
:100D00002241000041221C002A1C7F1C2A08083EA8
:100D100008080080703000080808080800006060BB
:100D20000020100804023E5149453E00427F400029
:100D300072494949462141494D331814127F102701
:100D4000454545393C4A4949314121110907364950
:100D5000494936464949291E000014000000403424
:100D60000000000814224114141414140041221429
:100D70000802015909063E415D594E7C1211127C50
:100D80007F494949363E414141227F4141413E7FB1
:100D9000494949417F090909013E414151737F0891
:100DA00008087F00417F41002040413F017F081437
:100DB00022417F404040407F021C027F7F04081098
:100DC0007F3E4141413E7F090909063E4151215E76
:100DD0007F09192946264949493203017F01033F0A
:100DE0004040403F1F2040201F3F4038403F631499
:100DF00008146303047804036159494D43007F419B
:100E000041410204081020004141417F04020102D7
:100E100004404040404000030708002054547840FC
:100E20007F284444383844444428384444287F3890
:100E30005454541800087E090218A4A49C787F0812
:100E400004047800447D40002040403D007F10288D
:100E5000440000417F40007C047804787C0804044E
:100E6000783844444438FC1824241818242418FCE6
:100E70007C08040408485454542404043F44243C8B
:100E80004040207C1C2040201C3C4030403C4428FA
:100E90001028444C9090907C4464544C4400083694
:100EA0004100000077000000413608000201020402
:100EB000023C2623263C1EA1A161123A4040207A22
:100EC000385454555921555579412154547841216C
:100ED0005554784020545579400C1E5272123955A1
:100EE000555559395454545939555454580000459E
:100EF0007C410002457D420001457C40F0292429C7
:100F0000F0F0282528F07C545545002054547C549A
:100F10007C0A097F493249494932324848483232CD
:100F20004A4848303A4141217A3A42402078009D6F
:100F3000A0A07D39444444393D4040403D3C24FF1D
:100F40002424487E4943662B2FFC2F2BFF0929F6CA
:100F500020C0887E090320545479410000447D411B
:100F60003048484A32384040227A007A0A0A727D74
:100F70000D19317D2629292F28262929292630488F
:100F80004D4020380808080808080808382F10C8FD
:100F9000ACBA2F102834FA00007B000008142A1481
:100FA0002222142A14089500220095AA005500AAAE
:100FB000AA55AA55AA000000FF00101010FF001447
:100FC0001414FF001010FF00FF1010F010F01414A4
:100FD00014FC001414F700FF0000FF00FF1414F4C9
:100FE00004FC141417101F10101F101F1414141FCA
:100FF00000101010F0000000001F101010101F1043
:10100000101010F010000000FF1010101010101041
:101010001010FF10000000FF140000FF00FF000090
:101020001F10170000FC04F414141710171414F404
:1010300004F40000FF00F714141414141414F7003F
:10104000F7141414171410101F101F141414F41490
:101050001010F010F000001F101F0000001F1400FF
:101060000000FC140000F010F01010FF10FF14142A
:1010700014FF141010101F00000000F010FFFFFFFD
:10108000FFFFF0F0F0F0F0FFFFFF0000000000FFB6
:10109000FF0F0F0F0F0F38444438447C2A2A3E14A8
:1010A0007E02020606027E027E02635549416338D3
:1010B00044443C04407E201E2006027E020299A584
:1010C000E7A5991C2A492A1C4C7201724C304A4DE2
:1010D0004D303048784830BC625A463D3E49494917
:1010E000007E0101017E2A2A2A2A2A44445F4444C0
:1010F00040514A444040444A51400000FF0103E04F
:1011000080FF000008086B6B083612362436060F85
:10111000090F06000018180000001010003040FFF2
:101120000101001F01011E00191D1712003C3C3C6B
:101130003C000000000006011501260137014A01AC
:101140005D01720188019F01B801D201EE010B021D
:101150002A024B026E029302BA02E40210033F031A
:101160007003A403DC03170455049704DD0427056A
:101170007505C80520067D06E0064907B8072D0855
:10118000A9082D09B9094D0AEA0A900B400CFA0C7E
:10119000C00D910E6F0F5A1053115B1272139A14F7
:1011A000D41520178018F519801B231DDE1EB420CE
:1011B000A622B524E4263429A72B402E0031EA3399
:1011C0000037453ABC3D68414C456B49C84D6852B3
:1011D0004F57805C006210111213151617181A1C55
:1011E0001D1F21232527292C2E3134373A3E414516
:1011F000494E52575C62686E757B838B939CA5AF9A
:10120000B9C4D0DCE9F70000000200090F000003B8
:101210000401000C000000000000000000000000BD
:101220000000000000F0F89C8E8783878E9CF8F009
:101230000000FEFF0303030303070EFCF80000FE9B
:10124000FF0303030303070EFCF80000FFFF000089
:101250000000000000FFFF0000FEFF838383838304
:10126000C7EE7C380000F8FC0E07030303070EFCF2
:10127000F800003F7FE0C08080C0E07F3FFFFF01BB
:10128000010101010101FFFF0000FFFF0C0C0C0C2C
:101290001C3E77E3C100007FFFC0C0C0C0C0E0704B
:1012A0003F1F00001F3F70E0C0C0C0E0703F1F0044
:1012B000007FFFC1C1C1C1C1E3773E1C00001F3FD9
:1012C00070E0C0C0C0E0703F1F000000000001FFE0
:1012D000FF0100000000000000240027002A002D6C
:1012E000003000D5F08D14A1C881CFD9F1AF200016
:1012F00014021302120215020702080204010C0173
:1013000006010005012001020007052C0502000569
:10131000092002020000082208070007032001023A
:10132000000401100102FE0401080302FE04080289
:10133000011040804010204080408008020401805D
:1013400040201002011080102040402000000000CA
:10135000250028002B002E0031000404040404039F
:101360000405020202020403020202020606060645
:10137000060604040202020404030102020202023D
:10138000010101010102070200050205000102043A
:1013900006080A0C0E1012141418181E1E4B22CA2E
:1013A000224C23CF235524DC246525F0257E260DF1
:1013B000279E273228C8286029FA29962A342BD557
:1013C0002B792C1E2DC62D712E1E2FCD2F7F303444
:1013D00031EB31A53261332134E334A8356F363A2D
:1013E000370838D838AC39833A5D3B3A3C1A3DFD72
:1013F0003DE43ECE3FBC40AD41A2429A43000408CA
:101400001014182024283034384044485054586070
:101410006468707478808488909498A0A441416333
:101420006377777F6363637F7F080B0002020201AB
:10143000000904000001020200000524001001055B
:101440002401010104240206052406000107058188
:101450000310004009040100020A00000007050211
:101460000240000007058302400000040309044114
:10147000726475696E6F204C4C43004172647562F2
:101480006F79001201000200000040412336800005
:10149000010102030112010002EF02014041233663
:1014A0008000010102030100802111241FBECFEF43
:1014B000DAE0DEBFCDBF28E0AAEAB1E001C01D92AC
:1014C000AA35B207E1F711E0A0E0B1E0EAECF5E4FB
:1014D00002C005900D92AA3AB107D9F71AE0C5E506
:1014E000DAE004C02197FE010E946522C435D107CD
:1014F000C9F70E94761D0C94E3220C940000909191
:101500002A0281E0892780932A028091CC01909160
:10151000CD01019711F40C94EB160895EF920F93FF
:101520002091AD0191E092279093AD01813071F44B
:10153000992311F001E001C000E02BE047E060E0FA
:1015400070E080E090E00E94251514C0823031F0F8
:10155000880F880F880F885163E102C060E08DE139
:1015600070E093E0E92E04E027E04FEB53E090E0D9
:101570000E9481150F91EF900895CF93C82F80910D
:10158000AD01882321F08091C2010E948E0AC331EF
:1015900020F4C23018F4C1E001C0C3E0C093C2011E
:1015A0008C2F0E948E0A80912A02811113C0C330B1
:1015B00088F0809126020E9411188DEF8C0F809385
:1015C000240280932502809326020E941118CF9155
:1015D0000C946817CF9108950F932091AD0191E07D
:1015E00092279093AD01E82FF0E0992359F0EE0F88
:1015F000FF1FEE0FFF1FE05DFE4F618170E08081F5
:1016000001E00AC0EE0FFF1FEE0FFF1FE05DFE4F6F
:10161000618170E0808100E02381428190E00E943E
:1016200025150F910895CF93C82F8091AD01882380
:1016300021F08091C3010E94EC0AC73020F4C1114F
:1016400003C0C1E001C0C6E0C093C3018C2FCF919D
:101650000C94EC0A8091CC019091CD01009719F087
:10166000019731F008958091C3018F5F0C94130BA3
:101670008091C2018F5F0C94BD0A8091CC01909142
:10168000CD01009719F0019731F008958091C301C1
:1016900081500C94130B8091C20181500C94BD0AAF
:1016A0001F920F920FB60F9211242F933F938F9397
:1016B0009F93AF93BF938091C8019091C901A0916E
:1016C000CA01B091CB013091BC0123E0230F2D372B
:1016D00020F40196A11DB11D05C026E8230F029636
:1016E000A11DB11D2093BC018093C8019093C90135
:1016F000A093CA01B093CB018091BD019091BE012E
:10170000A091BF01B091C0010196A11DB11D8093B0
:10171000BD019093BE01A093BF01B093C001BF91E2
:10172000AF919F918F913F912F910F900FBE0F908E
:101730001F9018958FB12CB193B130E02095309562
:1017400020743327A90123E0559547952A95E1F7A1
:10175000292F30E020953095207133273595279536
:1017600035952795242B8095807F822B0895FC0149
:1017700021912EBD9C5F21910DB407FEFDCF2EBDA2
:10178000E817F907C1F70DB407FEFDCF0895CF9212
:10179000DF92EF92FF920F931F93CF93E82FF0E029
:1017A000E758FC4EC491E62FF0E0603330F4EA5283
:1017B000FE4EE4910E2F10E006C0EE0FFF1FEA521E
:1017C000FF4E059114916801E12CF12C60E074E268
:1017D00084EF90E0A70196010E949322BA01A9012B
:1017E00041505109610971094115510581E06807AE
:1017F000710580F060E970ED83E090E0A70196014B
:101800000E949322BA01A90141505109610971094D
:1018100083E001C081E0C130C9F0C33031F590915F
:101820009100987F892B8093910050939900409369
:1018300098001093BB010093BA0181E08093B90135
:10184000809171008260809371000FC0909181003F
:10185000987F892B80938100509389004093880062
:1018600080916F00826080936F00CF911F910F91E4
:10187000FF90EF90DF90CF9008951F920F920FB6D8
:101880000F9211242F933F938F939F93AF93BF9306
:10189000EF93FF938091B201882309F44DC08091AA
:1018A000AE019091AF01A091B001B091B101892B2F
:1018B0008A2B8B2B51F18091E701E091E801F091A7
:1018C000E9019081892780838091AE019091AF01D9
:1018D000A091B001B091B101181619061A061B06A5
:1018E000A4F58091AE019091AF01A091B001B091AB
:1018F000B1010197A109B1098093AE019093AF01A5
:10190000A093B001B093B10120C01092B2018091B8
:101910006F008D7F80936F009091E701E091E80167
:10192000F091E9018081282F30E0892F90E08095A7
:1019300090958223932308C08091E701E091E8010C
:10194000F091E901908189278083FF91EF91BF9108
:10195000AF919F918F913F912F910F900FBE0F905C
:101960001F901895E82FF0E0E758FC4EE491E13025
:1019700019F0E33069F0089580916F008D7F8093B6
:101980006F009091E701E091E801F091E90108C052
:101990001092B9019091E401E091E501F091E60126
:1019A0008081282F30E0892F90E0809590958223C8
:1019B0009323808308951F920F920FB60F921124E4
:1019C0002F933F934F935F936F937F938F939F9347
:1019D000AF93BF93EF93FF938091B901882349F0B0
:1019E0008091E401E091E501F091E6019081892781
:1019F00080838091C101882309F493C08091B5014F
:101A00009091B601A091B701B091B801892B8A2BB2
:101A10008B2B09F486C08091B5019091B601A091FD
:101A2000B701B091B8010197A109B1098093B5013F
:101A30009093B601A093B701B093B801892B8A2B7C
:101A40008B2B09F06EC0E091B301F091B401BF019E
:101A50006F5F7F4F7093B4016093B3014491942FF3
:101A6000907F842F8F70903819F40E94B20CEBCFC6
:101A7000903981F43296F093B401E093B301FB0105
:101A800064919091EA018917F0F667FDDCCF0E941E
:101A9000C70BD9CF903E29F41092B4011092B30134
:101AA000D2CF903F19F41092C1013BC097FDCBCF2C
:101AB0003296F093B401E093B301FB01249130E03E
:101AC000342BA091BA01B091BB010E94D4226C507A
:101AD0007E4F8F4F9F4F28EE33E040E050E00E9452
:101AE000B2222093B5013093B6014093B7015093D1
:101AF000B8018091B5019091B601A091B701B09164
:101B0000B801892B8A2B8B2B61F481E090E0A0E057
:101B1000B0E08093B5019093B601A093B701B09364
:101B2000B801FF91EF91BF91AF919F918F917F91FC
:101B30006F915F914F913F912F910F900FBE0F903A
:101B40001F9018956038710518F54034510500F55F
:101B5000A42FA695A695A695B0E047705527B695F3
:101B6000BA2FAA27B795A7956A0F7B1FFC01E60F2E
:101B7000F71F81E090E001C0880F4A95EAF7222321
:101B800019F09489892B03C0809594898923848BCB
:101B900008952F923F924F925F926F927F928F9211
:101BA0009F92AF92BF92CF92DF92EF92FF920F93EC
:101BB0001F93CF93DF93CDB7DEB728970FB6F89476
:101BC000DEBF0FBECDBFFB0135E0C39EE00DF11DB2
:101BD00011241E161F060CF064C02C2C312CFA01A7
:101BE000A8E0CA9EE00DF11D11241E161F060CF080
:101BF00058C05E834D839C838B8335E0239FF00127
:101C00001124FA83E98378876F83A12CB12C85E0B6
:101C1000A816B10441F0E981FA81EA0DFB1DEA5CE6
:101C2000F34F149101C010E04D805E8088E0D82E03
:101C300010FD02C0FE2C01C0F02EF11009C0E01210
:101C400007C01695DA94420C531CD110F1CF1BC07B
:101C50008F809884882DBF818B1B8C1590F7320163
:101C6000862D84198C1558F42F2DA301B4018B8176
:101C70009C810E94A20D9FEF691A790AF1CFAFEF04
:101C80008A1A9A0AE7CFEFEFAE1ABE0A8F819885BB
:101C9000820D931D98878F8396E0A916B10409F0F1
:101CA000B6CF28960FB6F894DEBF0FBECDBFDF913A
:101CB000CF911F910F91FF90EF90DF90CF90BF9049
:101CC000AF909F908F907F906F905F904F903F90DC
:101CD0002F900895CF92EF920F93603871052CF4F6
:101CE0004034510514F40E94C90D0F91EF90CF902C
:101CF00008958F929F92AF92BF92CF92EF920F93DF
:101D0000CF93DF936A30A1F4FC01E85EFB4F408182
:101D100032972081318158E0459F200D311D1124DB
:101D200031832083EC01CC5EDB4F198218824DC0D9
:101D30006D3009F44AC0262FEC014C0188EE881A58
:101D40008BEF980AFE01EA5EFB4F408151815E01F4
:101D5000ECEEAE1AEBEFBE0AF50160817181F40181
:101D6000C080E12C01E0CE010E946A0EF4012081C6
:101D7000422F50E0F50180819181F6E02F9F800D88
:101D8000911D1124F50191838083359620812223B2
:101D9000E1F06AEF64039001659F300D1124205833
:101DA0003F4F281739078CF4E881F9810190F081C1
:101DB000E02D6AE0CE01DF91CF910F91EF90CF90AF
:101DC000BF90AF909F908F900994DF91CF910F912A
:101DD000EF90CF90BF90AF909F908F900895CF924B
:101DE000EF920F931F93CF93C0912302C80FC0931C
:101DF0002302C13F20F4C83318F4C8E301C0C0EF88
:101E000008E010E021E047E062E070E0C8010E94D5
:101E1000F9140F5F1F4F0A311105A1F7C43698F06E
:101E20008C2F64E60E94452220E3280FCC24C39423
:101E3000EE24E39400E042E050E068E070E083EAE2
:101E400093E00E94C90D8C2F64E60E944522492F21
:101E500062E08EE00E943717C0932302CF911F915A
:101E60000F91EF90CF9008950F931F93CF93DF932F
:101E7000C091C201C13039F008F454C0C23049F0F9
:101E8000C331D9F44FC0DF91CF911F910F910C94C2
:101E9000EF0EC0912702C80FC33024F4CE3F1CF4CC
:101EA000CEEF01C0C2E00E947F18C0932702DF91ED
:101EB000CF911F910F910C947F18C3500C2F10E0FD
:101EC0000D5D1D4FF8019085D92FD80F97FF22C0C7
:101ED000181634F187FD1CC080912602C81303C078
:101EE0008C2F0E9411188C2F0E949818F801D0870F
:101EF0008C2F0E94981880912602C81313C08C2F33
:101F00000E941118DF91CF911F910F910C946817C7
:101F1000D4E5E2CF80ED8D0F8532F0F2DFEFDCCF3C
:101F2000D0E3DACFDF91CF911F910F9108954F92B7
:101F30005F926F927F928F929F92AF92BF92CF9259
:101F4000DF92EF92FF920F931F93CF93DF93EC01F9
:101F5000562EA8810A2E000CBB0B2FE130E00E9408
:101F60006B222981022E000C330B440B550B0E946F
:101F70009322F901E156FC4F8491F901E158FC4F9D
:101F8000E4910D8110E00E2E000CFF0BA8014E0F06
:101F90005F1FCC81D0E0082E000C990B7E01E80E6B
:101FA000F91EF7FF03C0F195E195F10997FF03C012
:101FB000919581959109442443948E179F0714F0BD
:101FC000412C0AC09E2D8F2D7A01492F582F9C2F0E
:101FD0008D2FE801092F182FEC16FD0654F4902FD1
:101FE000812F8A01492F582F9C2F8D2FE701E92E31
:101FF000F82E37016C1A7D0A5A01A01AB10AB7FEF1
:1020000003C0B194A194B108630177FE03C08FEFC0
:10201000C81AD80AD594C7940417150714F08FEF7F
:1020200001C081E0882E880F9908EC16FD06B4F0F7
:10203000252D442019F0AE01B80102C0A801BE014F
:1020400083EA93E00E94A20DCA18DB08D7FE04C001
:10205000080D191DC60CD71C2196E7CFDF91CF9133
:102060001F910F91FF90EF90DF90CF90BF90AF90B6
:102070009F908F907F906F905F904F900895CF9238
:10208000DF92EF92FF920F931F93CF93DF93EC01B8
:10209000162F60E00E94970F17FD02C0188301C041
:1020A00018828981988189170CF48883CB80D12C80
:1020B000EA8000E010E0F12CC8018E0D9F1D0F5F3B
:1020C0001F4F0D30110531F021E047E0B6010E94AD
:1020D000F914F2CF48816B818A810E943717809171
:1020E000010180930502809107018093060280918F
:1020F0000D0180930302809113018093040280916B
:1021000019018093200261E0CE01DF91CF911F91F0
:102110000F91FF90EF90DF90CF900C94970FEF927C
:102120000F93CF93DF930E94B4181092AD011092D9
:10213000AC018091CC019091CD010097A9F001975D
:1021400009F050C0EE24E39400E420E846EC53E0AC
:1021500060E070E080E090E00E9481150E94EB1644
:102160000E947F18C0E029C0EE24E39400E420E838
:1021700046E358E060E070E080E090E00E94811566
:102180008091C40120E18202C00111248A53984F3A
:102190000E941317C1E0D1E06881CE010E943F1078
:1021A000269681E0CF31D807B9F78091C301DF913E
:1021B000CF910F91EF900C94EC0A8C2F0E949818FD
:1021C000CF5FC031D1F7809126020E94111880E0C4
:1021D0000E94EF0E8091C201DF91CF910F91EF909D
:1021E0000C948E0ADF91CF910F91EF900895EEEC51
:1021F000F1E088E0DF011D928A95E9F78091CC013A
:102200009091CD01892B39F481E090E09093CD013C
:102210008093CC0104C01092CD011092CC010C949B
:102220008F10AF92BF92CF92DF92FF920F931F93C6
:10223000CF93DF931F92CDB7DEB76C018B01F42EE5
:1022400059018FEF8983672B19F48E010F5F1F4FA0
:10225000F60180818823A1F00E949A0B8F2119F446
:10226000F601108209C0F8018081882311F08150A5
:1022700011C081E0F8018083F501099581E00CC06F
:102280000E949A0B8F218F1106C081E0F601808396
:1022900085E0F801808380E00F90DF91CF911F915E
:1022A0000F91FF90DF90CF90BF90AF900895EF9285
:1022B000FF920F931F93CF93DF93C82F87FD04C026
:1022C00087301CF0C6E001C0C0E0C093C4010DE03F
:1022D00010E021E049E064E070E0C8010E94F914D8
:1022E0000F5F1F4F02371105A1F720E1C202C001A5
:1022F00011248A53984F0E94131781E0E82E81E041
:10230000F82E86E0C802E001112400E010E0F80198
:10231000EC0FFD1FE05BFE4F6081C7010E943F1084
:102320000F5F1F4F26E0E20EF11C0530110579F713
:10233000809101018093050280910701809306023C
:1023400080910D0180930302809113018093040218
:102350008091190180932002DF91CF911F910F91FD
:10236000FF90EF9008959091C3019330B9F028F455
:10237000913049F0923061F008959530D9F0A0F095
:102380009630F1F008959091C401890F0C94571183
:1023900060910101680F81E091E017C06091070131
:1023A000680F87E091E011C060910D01680F8DE02A
:1023B00091E00BC060911301680F83E191E005C0CB
:1023C00060911901680F89E191E00C943F108091B0
:1023D000CC019091CD01009719F0019721F008955B
:1023E0008FEF0C94B3118FEF0C94340F8091CC01CC
:1023F0009091CD01009719F0019721F0089581E0A7
:102400000C94B31181E00C94340F1F920F920FB60D
:102410000F9211242F938F939F93809100018150ED
:102420008093000187FF0CC021E020930001809180
:10243000C5019091C60190589093CF002093C70199
:102440009F918F912F910F900FBE0F901F90189515
:10245000CF92DF92EF92FF920F931F93DC015A9677
:10246000EC915A9754968D919C915597EE2329F1B2
:1024700001E010E08230910514F400E010E021E06A
:1024800030E05696ED90FC905797F2E0EF16F1048D
:1024900014F420E030E0020F131F012E000C220B79
:1024A000330BEC5F04C0000F111F221F331FEA958E
:1024B000D2F7400F511F621F731F0D911D912D9177
:1024C0003C911397400F511F621F731F1496CD90BC
:1024D000DD90ED90FC9017970C0D1D1D2E1D3F1DDE
:1024E0000D931D932D933C931397E62FEF7767FF82
:1024F00003C020E82E1BE22FF0E0E250FD4F2491B4
:102500001E96EC911E97F0E0E20FF11D9F0122272D
:10251000232B11F0EFEFF0E0EE0FFF1FE250FF4F23
:102520002591349157969C938E93569770FF03C0D4
:1025300031952195310955963C932E935497549695
:102540008D919C9155971F910F91FF90EF90DF9087
:10255000CF900895CF92DF92EF92FF920F931F9347
:10256000CF93DF936C017A018B01C0E0D0E0CE15F0
:10257000DF0589F0D8016D918D01D601ED91FC91B7
:102580000190F081E02DC6010995892B11F47E019F
:1025900002C02196ECCFC701DF91CF911F910F911F
:1025A000FF90EF90DF90CF900895362F90E0FC01E0
:1025B000EA5FFD4E4491FC01E35DFC4E2491FC0179
:1025C000E65AFC4E8491882309F451C04423E1F17A
:1025D00050E0FA013197EF30F105B0F5EA5AFF4FBC
:1025E0000C946522909180009F7707C090918000A5
:1025F0009F7D03C090918000977F9093800024C0BE
:1026000094B59F7702C094B59F7D94BD1DC09091F5
:1026100090009F7707C0909190009F7D03C090919C
:102620009000977F909390000FC09091C0009F778B
:1026300003C09091C0009F7D9093C00005C0909111
:10264000C200977F9093C200E82FF0E0EE0FFF1FCB
:10265000E45BFC4EA591B4918FB7F894EC913111E5
:1026600003C020952E2301C02E2B2C938FBF0895DD
:102670003FB7F8948091BD019091BE01A091BF0138
:10268000B091C00126B5A89B05C02F3F19F0019657
:10269000A11DB11D3FBFBA2FA92F982F8827820FE8
:1026A000911DA11DB11DBC01CD0142E0660F771F38
:1026B000881F991F4A95D1F708950E948622CF93CB
:1026C000DF9390E0FC01E35DFC4E2491FC01E65AAF
:1026D000FC4E8491882361F190E0880F991FFC01E2
:1026E000EB52FD4EC591D491FC01E45BFC4EA591EB
:1026F000B491611109C09FB7F89488812095822315
:102700008883EC912E230BC0623061F49FB7F8945C
:102710003881822F809583238883EC912E2B2C93F4
:102720009FBF06C08FB7F894E8812E2B28838FBFF8
:10273000DF91CF9108951F93CF93DF93182FEB0173
:1027400061E00E945F13209711F460E004C0CF3F66
:10275000D10539F461E0812FDF91CF911F910C9465
:10276000D512E12FF0E0EA5FFD4EE4914E2F50E0EC
:10277000FA013197EF30F10508F06CC0EB59FF4FCB
:102780000C94652284B5806884BDC7BD68C084B5DB
:10279000806284BDC8BD63C08091800080688093E2
:1027A0008000D0938900C093880059C08091800038
:1027B000806280938000D0938B00C0938A004FC0CA
:1027C00080918000886080938000D0938D00C093BA
:1027D0008C0045C080919000806880939000D093D9
:1027E0009900C09398003BC08091900080628093D4
:1027F0009000D0939B00C0939A0031C080919000CC
:10280000886080939000D0939D00C0939C0027C067
:102810008091C00080688093C0008091C0008F7B51
:102820008093C000C093CF001AC08091C000806226
:102830008093C000C093D00012C08091C200886015
:102840008093C2008091C2008B7F8093C200C093AE
:10285000D20005C0C038D1050CF07CCF76CFDF9117
:10286000CF911F9108958F929F92AF92BF92CF9276
:10287000DF92EF92FF926B017C010E9438134B01B3
:102880005C01C114D104E104F104F1F00E94381399
:10289000DC01CB0188199909AA09BB09883E93403C
:1028A000A105B10570F321E0C21AD108E108F108D1
:1028B00088EE880E83E0981EA11CB11CC114D104BF
:1028C000E104F10419F7DDCFFF90EF90DF90CF9096
:1028D000BF90AF909F908F9008958F929F92AF92EC
:1028E000BF92CF92DF92EF92FF920F931F93CF93FD
:1028F000DF935C016B018A0180912701882309F431
:102900005EC08091E301882309F459C08091E10100
:1029100080FF05C08091E00082608093E000E801C4
:102920008AEFF82E93E0E92E2FE3822E3AE3932EDE
:10293000209709F43DC08FB7F894E092E900909198
:10294000E80095FF06C09091F200282D291B922FD8
:1029500001C090E08FBF91110AC0FA94FF2079F175
:1029600061E070E080E090E00E943314E1CF292F15
:1029700030E0C217D3070CF49C2F8FB7F894E09285
:10298000E9002091E80025FF11C0292F30E0C21B8B
:10299000D30BF601915020F041914093F100FACF12
:1029A000C20ED31E9091E80095FF13C08FBFC0CF19
:1029B0005D9884E68093E0011016110644F081E0F2
:1029C00090E0F5019383828380E090E005C0C80128
:1029D00003C09092E800EACFDF91CF911F910F9151
:1029E000FF90EF90DF90CF90BF90AF909F908F902F
:1029F0000895DF92EF92FF920F931F93CF93DF938F
:102A00007C01D22E8B01040F111DEB0177FF0EC04C
:102A1000C0E0D0E00BC0C417D5077CF42D2DAE016B
:102A2000B70183EA93E00E94A20D2196A801013428
:102A300011058CF340E450E0EECFDF91CF911F9170
:102A40000F91FF90EF90DF9008956F927F928F9299
:102A50009F92AF92BF92CF92DF92EF92FF920F932D
:102A60001F93CF93DF936C017B01122F5C01A40EA7
:102A7000B11CEC0197FF02C0C0E0D0E04E0135016F
:102A800081E8A816B1041CF080E8682E712C861429
:102A900097045CF4202FA701B40183EA93E00E941D
:102AA000A20D8FEF881A980AEACF4701810E911C78
:102AB00081E0881A9108202FC615D70544F4A40197
:102AC000BE0183EA93E00E94A20D2196F4CF412F2C
:102AD000B701C6010E94F914202F412FB701C5018B
:102AE0000197DF91CF911F910F91FF90EF90DF90B1
:102AF000CF90BF90AF909F908F907F906F900C94ED
:102B0000F9142F923F924F925F926F927F928F9221
:102B10009F92AF92BF92CF92DF92EF92FF920F936C
:102B20001F93CF93DF93CDB7DEB728970FB6F894F6
:102B3000DEBF0FBECDBF222E312C9C01220D331DD6
:102B400037FD30C1803891050CF02CC19B01200F5E
:102B5000311D37FD27C1603471050CF023C1DB0145
:102B600077FF04C0AA27BB27A61BB70BA770BB27FC
:102B70009B0177FF02C0295F3F4F13E035952795F2
:102B80001A95E1F777FF08C02150310968E070E03D
:102B90005B01AA1ABB0AD501E02FE695E695E695FA
:102BA000CE2ED12C077019F00FEFC01AD00AB90140
:102BB0007695762F662777956795680F791F56016A
:102BC000A20EB31EBC82AB82412C512CF8E0CF2E5A
:102BD000D12C86010A1B1B0B1A830983AB80BC8096
:102BE0002A153B0509F4DEC02830310509F4DAC0A6
:102BF0002F3F1FEF31070CF4CAC03B01E0E86E0E17
:102C0000711C8B01095C1B4F1E830D834C0100E07E
:102C100010E0021513050CF0BAC0E0E88E1691041E
:102C200009F4B5C097FCA8C02F3FFFEF3F0709F498
:102C3000B5C0F801E40DF51DCD80DE80C618D708BB
:102C4000AA24A394E40FF51FEA1013C0E491C60E62
:102C5000D71EF0E05F010A2E02C0AA0CBB1C0A942A
:102C6000E2F7B886AF82F601B080EF81F885EB29F4
:102C70002BC0E11017C0E491C60ED71EF0E00A2E5B
:102C800002C0EE0FFF1F0A94E2F75F01A094B09418
:102C9000B886AF82F601A080B12CEF81F885AE2214
:102CA000BF2213C0E491C60ED71EF0E05F010A2ECA
:102CB00002C0AA0CBB1C0A94E2F7B886AF82F601E8
:102CC000B080EF81F885EB255F01F601A0821097B7
:102CD00009F452C02730310509F44EC0F801E40D63
:102CE000F51DAA24A394EA1011C0E40FF51FE49186
:102CF000CE2ED12C5601098002C0B594A7940A9417
:102D0000E2F7ED81FE81D080AD2835C0CD80DE8038
:102D1000C618D708E40FF51FE11018C0E491C60CDF
:102D2000D71CAE2EB12C098002C0B594A7940A948A
:102D3000E2F7F501E095F095F887EF83F601A080C2
:102D4000B12CEF81F885AE22BF2214C0E491C60CED
:102D5000D71CAE2EB12CF501098002C0F595E79580
:102D60000A94E2F7F887EF83F601B080EF81F885E7
:102D7000EB255F01F601A0820F5F1F4FED81FE8101
:102D80003196FE83ED83FFEF8F1A9F0A42CF2F5FAC
:102D90003F4F420C531C60587F4F20CF109709F0D3
:102DA0009DCFEACF28960FB6F894DEBF0FBECDBFF9
:102DB000DF91CF911F910F91FF90EF90DF90CF9017
:102DC000BF90AF909F908F907F906F905F904F904B
:102DD0003F902F900895EF920F93CF93DF93CEE023
:102DE000D0E021E047E06BE070E0CE010E94F914F2
:102DF0002196C431D105A9F780912A02E12C07E080
:102E000026E0882319F04DE154E102C043E254E189
:102E10006BE070E08EE090E00E948115DF91CF9131
:102E20000F91EF900895CF92EF920F931F93CF934E
:102E3000DF931FE0FC012491EC012196222381F015
:102E4000612F70E0CC24C394EE24E39400E045E0CD
:102E500050E083EA93E00E946A0E1A5FCE01EACF47
:102E6000DF91CF911F910F91EF90CF900895AF9286
:102E7000BF92CF92EF920F931F93CF93DF93C82F00
:102E8000842FA62EB12CD0E06AE00E944522192F93
:102E900020E3280FCC24C394EE24E39400E0A501A2
:102EA000BE0183EA93E00E946A0E20E3210FBE0177
:102EB0006A5F7F4FA50183EA93E00E946A0EDF916B
:102EC000CF911F910F91EF90CF90BF90AF90089549
:102ED0004F925F926F927F929F92AF92BF92CF92EA
:102EE000DF92EF92FF920F931F93CF93DF93E091C6
:102EF0002402F0E0ED5DFD4F908497FC82C080914C
:102F000027022CE0829F900C1124892D092D990C09
:102F1000110B159507951595079503501C4E837059
:102F2000982ECBEED1E0E12CF12C52E0A52EB12C65
:102F300065E9462E55245394612C712CF801459176
:102F40005491E42FEF70E92938E0E39FF001112458
:102F5000E356FC4E25913491C70185519E4F6C017B
:102F6000DC015B96EC91F0E0E357FC4EA491B0E0FD
:102F70000E94D422552724E0559547952A95E1F7DC
:102F8000DC01CB0104C0880F991FAA1FBB1F4A9503
:102F9000D2F78C839D83AE83BF83188219821A82F5
:102FA0001B82BD8AAC8AF601808D90E0A0E0B0E083
:102FB00031E1880F991FAA1FBB1F3A95D1F78C8763
:102FC0009D87AE87BF87818D811105C0188A198AB8
:102FD0001A8A1B8A0DC0A301920104C0220F331F5D
:102FE000441F551F8A95D2F7288B398B4A8B5B8BF0
:102FF0003CE1E30EF11C6C9648E3E416F10409F0A1
:103000009DCFDF91CF911F910F91FF90EF90DF90B7
:10301000CF90BF90AF909F907F906F905F904F90B8
:103020000895EF920F93CF93DF93C82FD0E0CD5D3B
:10303000DD4F988597FD5EC06CE6691B70E0880FD8
:10304000880F880F8F5F23E0E22E03E025E048E839
:1030500053E190E00E948115C88580ED8C0F853288
:1030600008F048C0D0E0E097CE016CE070E00E942C
:103070005122FC013197EB30F10528F5EC58FF4F58
:103080000C946522E4E028E220C0ECE02AE21DC0B6
:10309000E4E02CE21AC0ECE02EE217C0ECE022E300
:1030A00014C0E4E024E311C0ECE026E30EC0E4E049
:1030B00028E30BC0ECE02AE308C0E4E02CE305C001
:1030C000ECE02EE302C0ECE026E2F0E0CE016CE0A2
:1030D00070E00E945122822F9CE1699F800D112493
:1030E00093E0E92E03E023E045E853E1BF0190E0DF
:1030F0000E948115DF91CF910F91EF900895EF928B
:103100000F938091270265E070E0681B710987FDCD
:103110007395660F70E083E0E82E01E025E040E85B
:1031200053E18EE190E00E9481150F91EF90089598
:10313000EF920F93E82FF0E0ED5DFD4F908597FD46
:1031400010C06CE6691B70E0880F880F880F8F5FD6
:1031500093E0E92E03E025E04BE753E190E00E9485
:1031600081150F91EF90089520E087EB93E0B22F47
:10317000B111BFEFFC010024B193B193B193B193AE
:103180000394D1F70895CF93DF939091EA019230A1
:1031900009F46EC0C82F292F30E0F901E758FC4E22
:1031A000D491F901E753F84F80839F5F9093EA0130
:1031B00061E00E945F13D13019F0D33039F158C06B
:1031C000109280001092810080918100886080932D
:1031D0008100809181008160809381008C2F90E03C
:1031E000FC01E65AFC4EE491F0E0EE0FFF1FE45BB9
:1031F000FC4E259134913093E9012093E801FC01C4
:10320000E35DFC4E84918093E70132C01092900000
:10321000109291008091910088608093910080913C
:1032200091008160809391008C2F90E0FC01E65A20
:10323000FC4EE491F0E0EE0FFF1FE45BFC4E2591A5
:1032400034913093E6012093E501FC01E35DFC4EEF
:1032500084918093E4018091EA01882321F06CE35A
:1032600080E00E94C70B80E0DF91CF910C94B20CFC
:10327000DF91CF910895FC018091E301811103C09A
:103280008FEF9FEF08959FB7F89482E08093E90055
:103290002091F20030E01216130614F421E030E021
:1032A0002115310559F0289884E68093E201809138
:1032B000F10080838091F200882319F09FBFC9013B
:1032C00008958BE68093E800F9CF8091C1078111C2
:1032D0000DC082E08093BD0784E08093BE0710920A
:1032E000C0071092BF0781E08093C1078DEB97E084
:1032F0000895CF93DF931F92CDB7DEB76983DC01CA
:10330000ED91FC910280F381E02D41E050E0BE019F
:103310006F5F7F4F09950F90DF91CF91089583E004
:103320008093E9008091F200882319F08AE380936A
:10333000E8000895FC018485958597FD0BC09FB733
:10334000F89482E08093E9008091F2009FBF90E0C2
:10335000019608959FB7F89482E08093E9008091E8
:10336000F2009FBF90E0089540915808509159088D
:10337000209156083091570842175307B4F49091A2
:10338000E8009570E1F39091E80092FD19C08093F8
:10339000F100809158089091590801968F739927F0
:1033A000892B19F48EEF8093E80080915808909152
:1033B00059080196909359088093580881E0089520
:1033C00080E00895CF92DF92EF92FF920F931F93C8
:1033D000CF93DF931F92CDB7DEB7182F062FE42EC1
:1033E000862F880F8E5F99830E94B41983E00E9414
:1033F000B419F12EC12E9981D92E8C2D8F198017D9
:1034000098F4F601E7FE02C0849101C080810E9419
:10341000B419182F80E00E94B4198123FFEFCF1A4E
:10342000DF0A8111EACF01C081E00F90DF91CF91D7
:103430001F910F91FF90EF90DF90CF900895DF9252
:10344000EF92FF920F931F93CF93DF93D82E8A01B1
:103450007B01E40EF51EEB01CE15DF0571F0D7FE02
:1034600003C0FE01849101C088810E94B419219695
:103470008111F2CF8FEF9FEF01C0C801DF91CF9193
:103480001F910F91FF90EF90DF900895615030F001
:103490002091F100FC0120830196F8CF289884E662
:1034A0008093E2010895CF93DF931F92CDB7DEB7EB
:1034B000FC018485958597FD05C02FEF3FEF35878B
:1034C00024870BC0CE0101960E943B19019719F485
:1034D000898190E002C08FEF9FEF0F90DF91CF9135
:1034E00008950F931F93CF93DF931F92CDB7DEB74D
:1034F0008C01FC018485958597FF0EC0CE01019655
:103500000E943B19019719F4298130E002C02FEF86
:103510003FEFF80135872487F801848595850F9062
:10352000DF91CF911F910F9108950F931F93CF9328
:10353000DF931F92CDB7DEB782E0898342E450E08B
:1035400069E274E180E80E941F1A0E946519DC019B
:1035500012960D911C9113970115110569F0D80170
:10356000ED91FC910280F381E02DBE016F5F7F4FF2
:10357000C801099597FF07C089810F90DF91CF910E
:103580001F910F910895F80100851185E5CF1F92D5
:103590000F920FB60F9211248F939F938091E100A9
:1035A0009091E100937F9093E10083FF0FC0109210
:1035B000E90091E09093EB001092EC0092E390937D
:1035C000ED001092E30198E09093F00082FF20C09C
:1035D00093E09093E9009091F200992319F09AE317
:1035E0009093E8009091E001992339F09091E001E7
:1035F00091509093E001992389F19091E2019923F0
:1036000039F09091E20191509093E201992341F1B8
:1036100084FF10C08091E2008E7E81608093E20082
:103620008091E1008F7E8093E1008091E1018E7EA8
:10363000806111C080FF16C08091E2008E7E8061A3
:103640008093E2008091E1008E7E8093E100809182
:10365000E1018E7E81608093E10104C05D9ACDCF4F
:10366000289AD6CF9F918F910F900FBE0F901F90E9
:1036700018951F920F920FB60F921124CF92DF92DE
:10368000EF92FF920F931F932F933F934F935F936C
:103690006F937F938F939F93AF93BF93EF93FF931A
:1036A000CF93DF93CDB7DEB76C97DEBFCDBF10925F
:1036B000E9008091E80083FFFAC168E0CE014596F9
:1036C0000E94461A82EF8093E8008D8987FF05C02B
:1036D0009091E80090FFFCCF03C09EEF9093E8002C
:1036E000982F907609F0C6C09E892F89188D911168
:1036F0000CC0803829F4809154088093F10002C0F6
:103700001092F1001092F10047C1422F50E0512B6E
:10371000913051F4811140C14130510509F03CC153
:10372000809154088D7F0BC0933061F4811134C1B6
:103730004130510509F030C1809154088260809376
:1037400054082AC1953041F48091E80080FFFCCFF5
:1037500020682093E30020C1963009F05FC0EB8C15
:10376000FC8C1092E90010925908109258081230FF
:1037700091F510925708109256080E94951A99E0F8
:10378000BE016F5F7F4FDB01E92F1D92EA95E9F7DC
:1037900099831A8391E09E8390EA98879AEF99879C
:1037A0002091580830915908275F3F4F3C832B8365
:1037B0008D831092E9001092590810925808F092E7
:1037C0005708E092560849E050E080E00E941F1A36
:1037D0000E94951AE1C0F0925708E09256080E94A4
:1037E0006519DC011296ED90FC901397E114F10439
:1037F00009F4C0C0D701ED91FC910480F581E02D62
:10380000BE016B5E7F4FC7010995009719F00CF060
:10381000C3C0C6C0F701E084F184E8CF973009F453
:10382000BFC0983021F481E08093F100B5C0993099
:1038300009F0B2C0837009F0B3C0E3EAF1E081E0BF
:1038400021E036E39081992361F08093E900209391
:10385000EB0091919093EC003093ED008F5F8730F7
:1038600089F78EE78093EA001092EA008F898093AF
:10387000E30192C08B8D9C8D1092E9001092590843
:10388000109258089093570880935608898D81119B
:1038900056C08E899D89913A59F4813209F080C0D1
:1038A00047E050E060E271E080E00E941F1A74C0BF
:1038B000913209F075C0833289F4888D90E0982F99
:1038C00088272F89822BA0E0B0E080932801909375
:1038D0002901A0932A01B0932B015EC0803269F4C4
:1038E0008091E80082FFFCCF67E080E291E00E94D7
:1038F000461A8BEF8093E80006C0823209F04CC074
:103900008F898093270180915308882319F0EEEF67
:10391000FAE002C0E0E0F8E08091200190912101FE
:10392000A0912201B0912301803B9440A105B105F3
:1039300009F088C08091270180FFA0C083C00E9449
:103940006519DC0112960D911C9113970115110553
:1039500039F1D801ED91FC910190F081E02DBE018B
:103960006B5E7F4FC8010995811116C0F801008573
:103970001185ECCF1130C1F0133091F48F89882379
:1039800009F455C08230E9F440E867E08BE794E140
:103990000E94E219882321F08EEF8093E80087C00F
:1039A00081E28093EB0083C08B8D9C8D089711F48E
:1039B0001093550880915508811136C063E874E171
:1039C00038C0813029F440E86BE08FE694E1E0CF25
:1039D000833031F70E946519DC011296ED90FC905E
:1039E00013978E010F5F1F4F6801E114F10479F006
:1039F000D701ED91FC910680F781E02DB801C70158
:103A00000995080F111DF701E084F184EECFD8016C
:103A10001C92F60101900020E9F73197BF016C1963
:103A20007D0940E0C601B4CF65E974E102C06BE6F0
:103A300074E16115710509F4B3CFFB01449150E0C5
:103A400080E833CF0FB6F894A89580916000886124
:103A500080936000109260000FBEA895EE3F2AE0B0
:103A6000F20739F08091FE0A9091FF0A91838083DA
:103A700093CF1092FF0A1092FE0A8ECFEE3F8AE09B
:103A8000F80731F0808191819093FF0A8093FE0ABC
:103A900087E797E7918380839BE088E10FB6F894EE
:103AA000A895809360000FBE9093600075CF6C96D0
:103AB0000FB6F894DEBF0FBECDBFDF91CF91FF915F
:103AC000EF91BF91AF919F918F917F916F915F9196
:103AD0004F913F912F911F910F91FF90EF90DF90A9
:103AE000CF900F900FBE0F901F901895789484B5CB
:103AF000826084BD84B5816084BD85B5826085BDEA
:103B000085B5816085BD80916E00816080936E0077
:103B10001092810080918100826080938100809169
:103B2000810081608093810080918000816080931A
:103B3000800080919100826080939100809191003B
:103B400081608093910080919000816080939000CB
:103B50008091C10084608093C1008091C100826027
:103B60008093C1008091C10081608093C1008091E9
:103B7000C30081608093C3008091C0008260809305
:103B8000C0008091C20081608093C20080917A0061
:103B9000846080937A0080917A00826080937A00BA
:103BA00080917A00816080937A0080917A008068A9
:103BB00080937A001092E301109254081092E10170
:103BC0008091D70081608093D70080EA8093D800ED
:103BD00089B5806189BD89B5826089BD09B400FE5F
:103BE000FDCF61E070E080E090E00E9433148091AE
:103BF000D8008F7C80618093D8008091E000807F26
:103C00008093E0008091E1008E7E8093E1008DE062
:103C10008093E200559A209AEEEFFFE78591949108
:103C20008B3F9C4D19F481E080935308CFB7F894F3
:103C30008091D701811127C0EBE6F3E18491EEE397
:103C4000F3E19491E82FF0E0EE0FFF1FEB52FD4EF1
:103C5000A591B491EC91E92321F461E081E10E9406
:103C6000D51261E081E10E945F138CB580618CBD4B
:103C70008CB580648CBD61E08FE00E945F1361E0D1
:103C800080E10E945F138091D7018F5F8093D701FD
:103C9000CFBFC0EFD2E1FE018491319664918823B9
:103CA00021F022960E945F13F6CF61E086E00E9429
:103CB000D51261E070E080E090E00E94331460E093
:103CC00086E00E94D5126AE070E080E090E00E94F9
:103CD000331461E086E00E94D512E6E6F3E1E49158
:103CE000F0E0EE0FFF1FE45BFC4E85919491909302
:103CF000DD018093DC01E9E3F3E1E491E093DB0192
:103D0000EEE5F3E1E491F0E0EE0FFF1FE45BFC4E23
:103D1000859194919093DA018093D901E1E3F3E1E5
:103D2000E491E093D8018CB58C7F8CBD8DB581601A
:103D30008DBDE091DC01F091DD0190818091DB018E
:103D4000982B9083A091D901B091DA012C91909198
:103D5000D801909592239C939081809589238083AC
:103D6000E3EEF2E122E1E03FF20749F084918EBDFB
:103D700000000DB407FEFDCF8EB53196F3CFE09174
:103D8000D901F091DA0190818091D801892B80834B
:103D9000E091DC01F091DD0190818091DB01809563
:103DA0008923808380916400816080936400809186
:103DB00064008260809364008091640080688093D6
:103DC0006400809164008064809364008091650049
:103DD0008160809365000E949A0B87FF1AC080E083
:103DE00094E01EBC00000DB407FEFDCF2EB5019778
:103DF000C1F760E070E08AE00E949B1360E070E031
:103E00008BE00E949B1360E070E089E00E949B13AE
:103E1000FFCFCEEEDFEF18E1CC24CA94D12C812F56
:103E20008C1BB601681B71098AE00E949B136FEF1F
:103E300070E08BE00E949B136FEF70E089E00E94BE
:103E40009B130E94B418EE24E39400E128E545E2B8
:103E500052E1BE0184E190E00E94811587EB93E07E
:103E60000E94B70B6BE170E080E090E00E94331499
:103E7000C03F31F46AEF70E080E090E00E943314BC
:103E80002196C931D10559F66EEE72E080E090E0DE
:103E90000E9433146FEF70E08AE00E949B136FEF73
:103EA00070E08BE00E949B136FEF70E089E00E944E
:103EB0009B1385E00E94C3188DE00E94C3181092E6
:103EC000C10182E090E00E948B22882369F08091FA
:103ED0006400877F8093640080916500877F809372
:103EE000650081E08093D6018FE08093A90382E48E
:103EF0008093AC031092CD011092CC0161E08DE073
:103F00000E945F138091C100877F8093C1008091E0
:103F1000C1008B7F8093C1008091C1008D7F809311
:103F2000C1008091C10081608093C1008091C00078
:103F300082608093C0008091C30081608093C30041
:103F40008091C3008D7F8093C3008091C0008F77E4
:103F50008093C0008091C00080648093C0008091F5
:103F60007200846080937200CA9AE3E0F3E1E49106
:103F7000E0930502E4E0F3E1E491E0930602E5E07A
:103F8000F3E1E491E0930302E6E0F3E1E491E093EE
:103F90000402E7E0F3E1E491E093200281E0809302
:103FA000C3018093C2011092C401EEECF1E088E0FD
:103FB000DF011D928A95E9F70E948F1080E00E9430
:103FC000571187EB93E00E94B70B90E5892E99E992
:103FD000992EA12CB12C18E1C0E0D0E001E02FE037
:103FE000722EC12CD12C7601EA948091C7018823CE
:103FF00009F480C18091DE019091DF019093C601A8
:104000008093C5011092C70180911F018150809358
:104010001F0187FF6AC070921F014091F701509104
:10402000F8016091F9017091FA0141155105BFEF56
:104030006B07710530F58091FB019091FC01A09117
:10404000FD01B091FE01840F951FA61FB71FAC01A3
:10405000BD01442755276627452B462B472B49F49E
:104060008093F7019093F801A093F901B093FA01BE
:1040700008C0C092F701D092F801E092F901F092E5
:10408000FA0140911302509114026091150270914F
:10409000160241155105EFEF6E07710530F580915D
:1040A000170290911802A0911902B0911A02840F80
:1040B000951FA61FB71FAC01BD01442755276627D2
:1040C000452B462B472B49F48093130290931402FF
:1040D000A0931502B093160208C0C0921302D092AA
:1040E0001402E0921502F092160240E050E0BA018C
:1040F0008BEE91E00E942812AC01990F660B770BB2
:104100008CE0440F551F661F771F8A95D1F787E013
:1041100092E00E9428129093DF018093DE0180914B
:104120002A02882361F18091280290912902019747
:10413000909329028093280297FF21C00E9468175C
:104140002091230230E040E050E0C501B4010E941C
:1041500093222F5F3F4F129FC001139F900D112498
:1041600001979093290280932802809124028F5F07
:10417000803118F48093240202C0109224022FB7D9
:10418000F8948091C8019091C901A091CA01B091A1
:10419000CB012FBF2091B503222391F02091AD03D5
:1041A000F82FF21BF093B6032091AA033091AB03D2
:1041B0002F5F3F4F3093AB032093AA031092B503B8
:1041C0004091B1035091B2036091B3037091B40375
:1041D00084179507A607B7077CF4481B423008F4FC
:1041E00089C083B7817F83BF83B7816083BF889590
:1041F00083B78E7F83BF7EC02091AC03AC01BD012D
:10420000420F511D611D711D4093B1035093B203C4
:104210006093B3037093B4038093AD039093AE03A4
:10422000A093AF03B093B0030093B50326EF31E141
:1042300040E86FEC71E08EEC91E00E941111382E95
:1042400027EE31E140E161ED71E080ED91E00E9407
:104250001111282E2DE33BE040E260E070E082ED9A
:1042600091E00E941111482E2AE23BE040E460E018
:1042700070E083ED91E00E941111582E2FE73AE093
:1042800048E060E070E084ED91E00E941111682E3A
:1042900027EF30E144E060E070E085ED91E00E94BE
:1042A00011112091CC013091CD0121303105B9F4AB
:1042B0002091250290912402291789F080912602ED
:1042C0000E941118809125020E94111880912502E8
:1042D00080932602809124028093250207C0322811
:1042E00043285428652811F4882321F087EB93E0B4
:1042F0000E94B70B209709F478CE0E94000075CE7B
:10430000CF93DF931092CE071092CD0788EE93E003
:10431000A0E0B0E08093CF079093D007A093D1079F
:10432000B093D2078EE891E09093CC078093CB07AF
:104330008FEF9FEF9093D8078093D7071092A60333
:104340001092A5038EE991E09093A4038093A303B8
:104350008CE38093A90380E18093AC031092AB03BC
:104360001092AA031092B1031092B2031092B303F9
:104370001092B4031092B5031092B8071092B707C9
:104380001092BA071092B90781E08093BB07C3E28D
:10439000D2E08BE292E048E731E020E14883FC0183
:1043A00037971082319610823196108231961082A2
:1043B0001E821D8233963083EAE7F1E0DC01522F42
:1043C00001900D925A95E1F76896489653E0C33AEA
:1043D000D50721F7EBEEF1E080E090E021E01082DC
:1043E000118212821382148615861686178614820D
:1043F000158216821782108A118A128A138A158AE8
:10440000148A178A168ADC01A551BE4F5B962C933D
:104410005B9759961C92599758961C9258975A96A2
:104420001C924C967C9688339105C9F6EBE1F8E036
:1044300080E090E021E010821182128213821486C3
:104440001586168617861482158216821782108AA0
:10445000118A128A138A158A148A178A168ADC012D
:10446000A55EB74F5B962C935B9759961C92599714
:1044700058961C9258975A961C924C967C96883364
:104480009105C9F6DF91CF910895991B79E004C099
:10449000991F961708F0961B881F7A95C9F7809583
:1044A000089597FB072E16F4009407D077FD09D0E6
:1044B0000E94722207FC05D03EF4909581959F4F93
:1044C0000895709561957F4F0895EE0FFF1F059039
:1044D000F491E02D09940E94D422B7FF0895821B25
:1044E000930B0895AA1BBB1B51E107C0AA1FBB1F5A
:1044F000A617B70710F0A61BB70B881F991F5A9570
:10450000A9F780959095BC01CD01089581E090E0D8
:10451000F8940C94E322F999FECF92BD81BDF89AEC
:10452000992780B50895052E97FB1EF400940E94EC
:10453000AA2257FD07D00E94B22207FC03D04EF4F6
:104540000C94AA2250954095309521953F4F4F4F9E
:104550005F4F089590958095709561957F4F8F4F2F
:104560009F4F0895A1E21A2EAA1BBB1BFD010DC08F
:10457000AA1FBB1FEE1FFF1FA217B307E407F50713
:1045800020F0A21BB30BE40BF50B661F771F881FEF
:10459000991F1A9469F760957095809590959B0185
:1045A000AC01BD01CF010895A29FB001B39FC0012E
:1045B000A39F700D811D1124911DB29F700D811D4F
:0A45C0001124911D0895F894FFCF17
:1045CA000100070B150F29000F23152729003F3B70
:1045DA00153F29000F53155729000F6B156F290F27
:1045EA0000E1000000000000FFFFFFFF01000000E3
:1045FA00000000000603070B053616091C361709CA
:10460A00343617094C3617096436180900000000B9
:10461A0005021B0102000705260502000509200202
:10462A000200000822080700070320010200040113
:10463A00100102FE0401080302FE3C3C43434545C7
:10464A0043FF414140403E3E3CFF000000007919D3
:10465A006D149A19531A711A8F1900000000790EF5
:0A466A00AA1200C1808100000000C8
:00000001FF
