:100000000C948B090C94B3090C94B3090C94B309A8
:100010000C94B3090C94B3090C94B3090C94B30970
:100020000C94B3090C94B3090C94B2170C942418D3
:100030000C94B3090C94B3090C94B3090C94B30950
:100040000C94B3090C94B3090C94B3090C94B30940
:100050000C94B3090C94B3090C94B3090C94370BAA
:100060000C94B3090C94B3090C94B3090C94B30920
:100070000C94B3090C94B3090C94B3090C94B30910
:100080000C94B3090C94B3090C94B3090C94B30900
:100090000C94B3090C94B3090C94B3090C94B309F0
:1000A0000C94B3090C9461110C94B3090B0A0E0A59
:1000B000FD09010A050A2F0A2F0A2F0A120A160A39
:1000C0001A0A200A240A2F0A2A0A93159615991546
:1000D0009C159F15A215A515A815AB15AE15B11544
:1000E00000000000003E5B4F5B3E3E6B4F6B3E1CD2
:1000F0003E7C3E1C183C7E3C181C577D571C1C5EE9
:100100007F5E1C00183C1800FFE7C3E7FF001824BF
:100110001800FFE7DBE7FF30483A060E2629792969
:1001200026407F050507407F05253F5A3CE73C5A9E
:100130007F3E1C1C08081C1C3E7F14227F22145F7B
:100140005F005F5F06097F017F006689956A6060D6
:1001500060606094A2FFA29408047E040810207ED0
:10016000201008082A1C08081C2A08081E10101055
:10017000100C1E0C1E0C30383E3830060E3E0E069B
:10018000000000000000005F0000000700070014EE
:100190007F147F14242A7F2A1223130864623649AD
:1001A0005620500008070300001C22410000412295
:1001B0001C002A1C7F1C2A08083E0808008070309A
:1001C0000008080808080000606000201008040209
:1001D0003E5149453E00427F40007249494946210F
:1001E00041494D331814127F1027454545393C4A83
:1001F000494931412111090736494949364649499A
:10020000291E0000140000004034000000081422E1
:10021000411414141414004122140802015909064F
:100220003E415D594E7C1211127C7F494949363E50
:10023000414141227F4141413E7F494949417F0936
:100240000909013E414151737F0808087F00417F41
:1002500041002040413F017F081422417F4040403F
:10026000407F021C027F7F0408107F3E4141413ED7
:100270007F090909063E4151215E7F091929462659
:100280004949493203017F01033F4040403F1F205D
:1002900040201F3F4038403F631408146303047834
:1002A00004036159494D43007F4141410204081054
:1002B00020004141417F040201020440404040408F
:1002C000000307080020545478407F2844443838FD
:1002D00044444428384444287F385454541800086F
:1002E0007E090218A4A49C787F0804047800447D49
:1002F00040002040403D007F1028440000417F40E6
:10030000007C047804787C08040478384444443839
:10031000FC1824241818242418FC7C080404084819
:100320005454542404043F44243C4040207C1C206A
:1003300040201C3C4030403C44281028444C9090C5
:10034000907C4464544C440008364100000077001F
:1003500000004136080002010204023C2623263C2C
:100360001EA1A161123A4040207A385454555921B7
:1003700055557941215454784121555478402054A1
:100380005579400C1E5272123955555559395454ED
:10039000545939555454580000457C410002457D5C
:1003A000420001457C40F0292429F0F0282528F05E
:1003B0007C545545002054547C547C0A097F4932B2
:1003C000494949323248484832324A4848303A412D
:1003D00041217A3A42402078009DA0A07D394444D2
:1003E00044393D4040403D3C24FF2424487E49435D
:1003F000662B2FFC2F2BFF0929F620C0887E0903CE
:1004000020545479410000447D413048484A3238F4
:100410004040227A007A0A0A727D0D19317D262920
:10042000292F28262929292630484D402038080818
:10043000080808080808382F10C8ACBA2F1028344C
:10044000FA00007B000008142A142222142A14083F
:100450009500220095AA005500AAAA55AA55AA00FF
:100460000000FF00101010FF00141414FF00101003
:10047000FF00FF1010F010F0141414FC001414F717
:1004800000FF0000FF00FF1414F404FC1414171004
:100490001F10101F101F1414141F00101010F00054
:1004A0000000001F101010101F10101010F010008E
:1004B0000000FF101010101010101010FF1000009E
:1004C00000FF140000FF00FF00001F10170000FCD9
:1004D00004F414141710171414F404F40000FF00AB
:1004E000F714141414141414F700F7141414171434
:1004F00010101F101F141414F4141010F010F0003A
:10050000001F101F0000001F14000000FC1400005A
:10051000F010F01010FF10FF141414FF141010103E
:100520001F00000000F010FFFFFFFFFFF0F0F0F0F1
:10053000F0FFFFFF0000000000FFFF0F0F0F0F0F85
:1005400038444438447C2A2A3E147E0202060602BD
:100550007E027E0263554941633844443C04407E38
:10056000201E2006027E020299A5E7A5991C2A49B1
:100570002A1C4C7201724C304A4D4D30304878483C
:1005800030BC625A463D3E494949007E0101017E28
:100590002A2A2A2A2A44445F444440514A4440407B
:1005A000444A51400000FF0103E080FF00000808BA
:1005B0006B6B083612362436060F090F060000183A
:1005C000180000001010003040FF0101001F010161
:1005D0001E00191D1712003C3C3C3C0000000000AE
:1005E0000000000200090F0000030401000C0000DD
:1005F000000000000000000000000000000000F00B
:10060000F89C8E8783878E9CF8F00000FEFF030322
:10061000030303070EFCF80000FEFF0303030303BC
:10062000070EFCF80000FFFF00000000000000FFC4
:10063000FF0000FEFF8383838383C7EE7C380000C6
:10064000F8FC0E07030303070EFCF800003F7FE0F1
:10065000C08080C0E07F3FFFFF0101010101010177
:10066000FFFF0000FFFF0C0C0C0C1C3E77E3C100E9
:10067000007FFFC0C0C0C0C0E0703F1F00001F3F30
:1006800070E0C0C0C0E0703F1F00007FFFC1C1C16B
:10069000C1C1E3773E1C00001F3F70E0C0C0C0E056
:1006A000703F1F000000000001FFFF01000000007C
:1006B000000000240027002A002D003000D5F08D16
:1006C00014A1C881CFD9F1AF200004080201104065
:1006D00080401020408040800802040180402010AB
:1006E000020110801020404020000000002500285A
:1006F000002B002E0031000404040404030405024E
:1007000002020204030202020206060606060604AC
:100710000402020204041402130212021502070268
:1007200008020A020A010B020B0109020901040175
:100730000C0106010005012001020007052C05023D
:100740000005092002020000082208070007032014
:100750000102000401100102FE0401080302FE0070
:100760007F9E797674866FCB6A4466EE61C75DCDF5
:1007700059FF555952DC4E844B50483F45504280FA
:100780003FCF3C3B3AC33766352233F730E42EE7A0
:100790002CFF2A2D296E27C2252824A0222821C01B
:1007A0001F671E1D1DE11BB31A91197C1872177368
:1007B0001680159614B713E112141250119410E01C
:1007C0000F340F8F0EF10D590DC90C3E0CB90B3AB9
:1007D0000BC00A4B0ADB0970090A09A8084A08F08D
:1007E000079A074707F806AD0664061F06DC059D55
:1007F0000560052605EE04B804850454042504F8B4
:1008000003CD03A4037C03560332030F03EE02CE91
:1008100002B002930277025C0243022A021202FC37
:1008200001E601D201BE01AB0199018801770167A0
:1008300001580149013B012E01210115010901FE69
:1008400000F300E900DF00D600CD00C400BC00B416
:1008500000AC00A5009E00970091008A0085007FF3
:10086000007A00740070006B00660062005E005A3F
:1008700000560052004F004C004800450042004026
:10088000003D003A0038003500330031002F002DC4
:10089000002B00290027002600240023002100202F
:1008A000001E001D001C001B001A00180017001677
:1008B00000150015001400130012001100110010A3
:1008C000000F000F000E000D000D000C000C000BBF
:1008D000000B000A000A00090009000900080008CE
:1008E00000080007000700070006000600060006D3
:1008F00000050005000500050005000400040004D3
:1009000000040004000300030003000300030003CD
:1009100000030003000200020002000200020002C5
:1009200000020002000200020002000200010001B9
:1009300000010001000100010001000100010001AF
:10094000000100010001000100010001000100019F
:10095000000100010001000100010000000000FF93
:1009600065554C45403C383532302E2C2A282725F9
:10097000242321201F1E1D1C1B1A191918171616B7
:10098000151414131312111110100F0F0E0E0D0D5C
:100990000D0C0C0B0B0B0A0A0A09090908080808B8
:1009A00007070706060606050505050504040404F1
:1009B0000403030303030302020202020202010111
:1009C000010101010101010100000000000000001F
:1009D0000000000000000000000000000000000017
:1009E0000100030C0300010000D8DCD80000FEFE6B
:1009F000FEFEFEFEFEFEFEFEFEFEFEFEFEFEFEFE17
:100A0000FEFE00AA15CAE522E5CA15AA00FFFF00EE
:100A10000000FF000000FFFF00FFFF000000FF00DC
:100A20000000FF000000FFFF00FFFF000000FF00CC
:100A30000000FFFF00FFFF000000FF000000FF00BC
:100A40000000FFFF00FFFF000000FF000000FFFFAD
:100A500000FFFF000000FF000000FF000000FFFF9C
:100A600000FFFFFF00AA55A850A851A850A853ABFB
:100A700053030303030303030303030303AB53AB56
:100A800053AB50AA007FFF80FF7F00AA00FFFFFC4E
:100A900000FCFFFC00FCFFFF00FFFFFC00FCFFFC74
:100AA00000FCFFFC00FCFFFF00FFFFFC00FCFFFC64
:100AB00000FCFFFF00FFFFFC00FCFFFC00FCFFFC54
:100AC00000FCFFFF00FFFFFC00FCFFFC00FCFFFF41
:100AD00000FFFFFC00FCFFFC00FCFFFC00FCFFFF34
:100AE00000FFFFFF00AA55AA552A152A55AA55AAA4
:100AF0005528142854A854A85428142854AA55AA90
:100B0000552A152A55AA54AA542A152A54A955A972
:100B10005429152954A955A95429152954A955A969
:100B20005429152954A955A95429152954A955A959
:100B30005429152954A955A95429152954A955A949
:100B40005429152954A955A95429152954A955A939
:100B50005429152954A955A95429152954A955A929
:100B60005429152954AA5500FEFF01FFFE00550027
:100B7000FEFF01FFFE005500FEFF01FFFE005500D5
:100B8000FEFF01FFFE000100FEFF01FFFE00550019
:100B9000FEFF01FFFE005500FEFF01FFFE005500B5
:100BA000FEFF01FFFE000100FEFF01FFFE005500F9
:100BB000FEFF01FFFE005500FEFF01FFFE00550095
:100BC000FEFF01FFFE000100FEFF01FFFE005500D9
:100BD000FEFF01FFFE005500FEFF01FFFE00550075
:100BE000FEFF01FFFE005500FFFF00FFFF00550064
:100BF000FFFF00FFFF005500FFFF00FFFF00550053
:100C0000FFFF00FFFF000000FFFF00FFFF00550097
:100C1000FFFF00FFFF005500FFFF00FFFF00550032
:100C2000FFFF00FFFF000000FFFF00FFFF00550077
:100C3000FFFF00FFFF005500FFFF00FFFF00550012
:100C4000FFFF00FFFF000000FFFF00FFFF00550057
:100C5000FFFF00FFFF005500FFFF00FFFF005500F2
:100C6000FFFF00FFFF005500FFFF00FFFF005500E2
:100C7000FFFF00FFFF005500FFFF00FFFF005500D2
:100C8000FFFF00FFFF000000FFFF00FFFF00550017
:100C9000FFFF00FFFF005500FFFF00FFFF005500B2
:100CA000FFFF00FFFF000000FFFF00FFFF005500F7
:100CB000FFFF00FFFF005500FFFF00FFFF00550092
:100CC000FFFF00FFFF000000FFFF00FFFF005500D7
:100CD000FFFF00FFFF005500FFFF00FFFF00550072
:100CE000FFFF00FFFF005500FFFF00FFFF00550062
:100CF000FFFF00FFFF005500FFFF00FFFF00550052
:100D0000FFFF00FFFF000000FFFF00FFFF00550096
:100D1000FFFF00FFFF005500FFFF00FFFF00550031
:100D2000FFFF00FFFF000000FFFF00FFFF00550076
:100D3000FFFF00FFFF005500FFFF00FFFF00550011
:100D4000FFFF00FFFF000000FFFF00FFFF00550056
:100D5000FFFF00FFFF005500FFFF00FFFF005500F1
:100D6000FFFF00FFFF0055803F7F607F3FC0558041
:100D70003F7F607F3FC05D803F7F607F3FC0558089
:100D80003F7F607F3FC050803F7F607F3FC0558086
:100D90003F7F607F3FC055803F7F607F3FC0558071
:100DA0003F7F607F3FC050803F7F607F3FC0558066
:100DB0003F7F607F3FC055803F7F607F3FC0558051
:100DC0003F7F607F3FC050803F7F607F3FC0558046
:100DD0003F7F607F3FC055803F7F607F3FC0558031
:100DE0003F7F607F3FC055AA44AA11AA440201C2B6
:100DF000E4C20102A4F2F1F2F4F2F1F2F4F2F1F23F
:100E0000F4F2F1F2F4F2F1F2F4F2F1F2F4F2F1F2BE
:100E1000F4F2F1F2F4F2F1F2F4F2F1F2F4F2F1F2AE
:100E2000F4F2F1F2F4F2F1F2F4F2F1F2F4F2F1F29E
:100E3000F4F2F1F2F4F2F1F2F4F2F1F2F4F2F1F28E
:100E4000F4F2F1F2F4F2F1F2F4F2F1F2F4F2F1F27E
:100E5000F4F2F1F2F4F2F1F2F40211AA44AA11AAA6
:100E600044AA11AA44AA11AA44AA11AA448000863D
:100E70004E8600804A9F1F9F5F9F1F9F5F9F1F9FFF
:100E80005F9F1F9F5F9F1F9F5F9F1F9F5F9F1F9F72
:100E90005F9F1F9F5F9F1F9F5F9F1F9F5F9F1F9F62
:100EA0005F9F1F9F5F9F1F9F5F9F1F9F5F9F1F9F52
:100EB0005F9F1F9F5F9F1F9F5F9F1F9F5F9F1F9F42
:100EC0005F9F1F9F5F9F1F9F5F9F1F9F5F9F1F9F32
:100ED0005F9F1F9F5F9F1F9F5F8011AA44AA11AA57
:100EE00044AA11AA44AA11AA44AA11AA44AA110206
:100EF000A4F2F1F2F4F2F1F2F4F2F1F2F4F201AA56
:100F000044AA11AA44AA1102A4F2F1F2F4F2F1F2F5
:100F1000F4F2F1F2F4F201AA44AA11AA44AA1102CD
:100F2000A4F2F1F2F4F2F1F2F4F2F1F2F4F201AA25
:100F300044AA11AA44AA1102A4F2F1F2F4F2F1F2C5
:100F4000F4F2F1F2F4F201AA44AA11AA44AA11029D
:100F5000A4F2F1F2F4F2F1F2F4F2F1F2F4F201AAF5
:100F600044AA11AA44AA11AA44AA11AA44AA118007
:100F70004A9F1F9F5F9F1F9F5F9F1F9F5F9F00AAAA
:100F800044AA11AA44AA11804A9F1F9F5F9F1F9FD6
:100F90005F9F1F9F5F9F00AA44AA11AA44AA1180C5
:100FA0004A9F1F9F5F9F1F9F5F9F1F9F5F9F00AA7A
:100FB00044AA11AA44AA11804A9F1F9F5F9F1F9FA6
:100FC0005F9F1F9F5F9F00AA44AA11AA44AA118095
:100FD0004A9F1F9F5F9F1F9F5F9F1F9F5F9F00AA4A
:100FE00044AA11AA44AA11AA44AA11AA44AAF17AAD
:100FF0001C0E0706030303030306070E1C7AF1AA5F
:1010000044AA11AA44AAF17A1C0E0706030303039B
:101010000306070E1C7AF1AA44AA11AA44AAF17A7F
:101020001C0E0706030303030306070E1C7AF1AA2E
:1010300044AA11AA44AAF17A1C0E0706030303036B
:101040000306070E1C7AF1AA44AA11AA44AAF17A4F
:101050001C0E0706030303030306070E1C7AF1AAFE
:1010600044AA11AA44AA11AA44AA11AA44AF3FF063
:10107000C08000000000000000000080C0F03FAF12
:1010800044AA11AA44AF3FF0C08000000000000055
:1010900000000080C0F03FAF44AA11AA44AF3FF067
:1010A000C08000000000000000000080C0F03FAFE2
:1010B00044AA11AA44AF3FF0C08000000000000025
:1010C00000000080C0F03FAF44AA11AA44AF3FF037
:1010D000C08000000000000000000080C0F03FAFB2
:1010E00044AA11AA44AA11AA44AA11AA042A112A9C
:1010F00085AB93AB86AE16AE86AB93AB852A112A31
:10110000042A512A04AA112A05AB13AB862E96AEE7
:1011100006AB932B85AA91AA042A512A042A112AE4
:1011200085AB93AB86AE162E86AB132B052A112A00
:10113000042A512A042A91AA85AB93AB062E96AEB7
:1011400086AB932B052A91AA042A512A04AA91AAB4
:1011500085AB932B06AE96AE86AB132B05AA91AA50
:10116000042A11AA44AA11AA44AA11AA0080008044
:101170003FBF0484048000BF3FA424A43F9B0080A1
:101180000080558000BF3F8E3FBF009F3FA03F9F24
:1011900000BF3FA000BF3F800080558000800080DE
:1011A00000803FBF008000803FBF20A020A00080C3
:1011B00000805580008020BF3FA020BF1F803FBF20
:1011C0000C9C37A300813FBF0080558000A03FBF2B
:1011D00020A03F9F00BF3F8C1CB7238031B92CA7B4
:1011E000238000AA44AA11020202020201010101A5
:1011F00001020702000502050001020406080A0CAC
:101200000E1012141418181E1E4B22CA224C23CF83
:10121000235524DC246525F0257E260D279E2732C4
:1012200028C8286029FA29962A342BD52B792C1E18
:101230002DC62D712E1E2FCD2F7F303431EB31A5D1
:101240003261332134E334A8356F363A370838D861
:1012500038AC39833A5D3B3A3C1A3DFD3DE43ECE25
:101260003FBC40AD41A2429A43000408101418202C
:1012700024283034384044485054586064687074AE
:1012800078808488909498A0A44141636377777FA5
:101290006363637F7F080B00020202010009040000
:1012A00000010202000005240010010524010101D3
:1012B00004240206052406000107058103100040EE
:1012C00009040100020A00000007050202400000B4
:1012D0000705830240000004030904417264756934
:1012E0006E6F204C4C430041726475626F7900123E
:1012F000010002000000404123368000010102038A
:101300000112010002EF0201404123368000010179
:1013100002030100461E11241FBECFEFDAE0DEBF3C
:10132000CDBF27E0A2E6B2E001C01D92AA37B20706
:10133000E1F712E0A0E0B1E0EAE2FFE302C00590CD
:101340000D92A236B107D9F719E0CBE8D9E004C075
:101350002197FE010E94071FCA38D107C9F70E94D2
:10136000611A0C94931F0C940000CF92DF92EF92BD
:10137000FF920F931F93CF93DF936C017A018B0140
:10138000C0E0D0E0CE15DF0589F0D8016D918D0168
:10139000D601ED91FC910190F081E02DC6010995F7
:1013A000892B11F47E0102C02196ECCFC701DF9199
:1013B000CF911F910F91FF90EF90DF90CF90089504
:1013C000362F90E0FC01E052FA4F4491FC01E653C5
:1013D000F94F2491FC01E950F94F8491882309F4D5
:1013E00051C04423E1F150E0FA013197EF30F105AB
:1013F000B0F5EA5AFF4F0C94071F909180009F7739
:1014000007C0909180009F7D03C090918000977FDE
:101410009093800024C094B59F7702C094B59F7DBF
:1014200094BD1DC0909190009F7707C0909190004F
:101430009F7D03C090919000977F909390000FC084
:101440009091C0009F7703C09091C0009F7D9093C2
:10145000C00005C09091C200977F9093C200E82F12
:10146000F0E0EE0FFF1FE751F94FA591B4918FB750
:10147000F894EC91311103C020952E2301C02E2B3E
:101480002C938FBF0895CF93DF9390E0FC01E65338
:10149000F94F2491FC01E950F94F8491882361F1BF
:1014A00090E0880F991FFC01E155F94FC591D49147
:1014B000FC01E751F94FA591B491611109C09FB7A3
:1014C000F8948881209582238883EC912E230BC089
:1014D000623061F49FB7F8943881822F809583231E
:1014E0008883EC912E2B2C939FBF06C08FB7F89466
:1014F000E8812E2B28838FBFDF91CF9108953FB7CE
:10150000F8948091730290917402A0917502B09149
:10151000760226B5A89B05C02F3F19F00196A11DA4
:10152000B11D3FBFBA2FA92F982F8827820F911D79
:10153000A11DB11DBC01CD0142E0660F771F881FC0
:10154000991F4A95D1F708951F93CF93DF931F9268
:10155000CDB7DEB7162F682F8AE049830E94E009D5
:10156000612F8BE00E94E0094981642F89E00F9090
:10157000DF91CF911F910C94E00983B7817F83BFE6
:1015800083B7816083BF889583B78E7F83BF0895BB
:10159000E0917D02F0917E02908180917C02982BF7
:1015A0009083A0917A02B0917B022C919091790264
:1015B000909592239C9390818095892380830895B0
:1015C000E0917A02F0917B02908180917902892BDF
:1015D0008083E0917D02F0917E02908180917C0277
:1015E00080958923808308958EBD00000DB407FE89
:1015F000FDCF8EB508950E94281F8F929F92AF92C3
:10160000BF92CF92DF92EF92FF926B017C010E941A
:101610007F0A4B015C01C114D104E104F104F1F033
:101620000E947F0ADC01CB0188199909AA09BB092C
:10163000883E9340A105B10570F321E0C21AD1089C
:10164000E108F10888EE880E83E0981EA11CB11C09
:10165000C114D104E104F10419F7DDCFFF90EF903C
:10166000DF90CF90BF90AF909F908F9008951F9282
:101670000F920FB60F9211242F933F938F939F9346
:10168000AF93BF938091810290918202A0918302D7
:10169000B09184023091720223E0230F2D3720F4A1
:1016A0000196A11DB11D05C026E8230F0296A11DBC
:1016B000B11D209372028093810290938202A093C5
:1016C0008302B09384028091730290917402A0917E
:1016D0007502B09176020196A11DB11D809373022F
:1016E00090937402A0937502B0937602BF91AF916C
:1016F0009F918F913F912F910F900FBE0F901F9050
:1017000018958FB12CB193B130E0209530952074AD
:101710003327A90123E0559547952A95E1F7292F0D
:1017200030E02095309520713327359527953595F4
:101730002795242B8095807F822B08950F931F93EC
:10174000CF93DF931F92CDB7DEB7182F062F61E03E
:1017500089E049830E94E00968EC70E080E090E055
:101760000E94FD0A60E0802F0E94E00982E090E084
:101770000E942D1F4981481729F0642F82E090E0D4
:101780000E94351F64EF71E080E090E00E94FD0A46
:1017900061E0802F0E94E0090E94810B8123811764
:1017A000D9F30F90DF91CF911F910F9108952F9250
:1017B0003F924F925F926F927F928F929F92AF92E1
:1017C000BF92CF92DF92EF92FF920F931F93CF932E
:1017D000DF93CDB7DEB728970FB6F894DEBF0FBE04
:1017E000CDBFFB0135E0C39EE00DF11D11241E1697
:1017F0001F060CF067C02C2C312CFA01A8E0CA9E01
:10180000E00DF11D11241E161F060CF05BC05E8357
:101810004D8335E0239FF0011124FA83E983788713
:101820006F83A12CB12CAC014C5F5F4F5C834B8369
:1018300055E0A516B10441F0E981FA81EA0DFB1DDE
:10184000E052FF4F149101C010E04D805E8088E0AF
:10185000D82E10FD02C0FE2C01C0F02EF11009C0E0
:10186000E01207C01695DA94420C531CD110F1CF48
:101870001BC08F809884882DAF818A1B8C1590F7B0
:101880003201862D84198C1558F42F2DA301B40133
:101890008B819C810E94910E8FEF681A780AF1CF9C
:1018A0009FEF891A990AE7CFBFEFAB1ABB0AEF8106
:1018B000F885E20DF31DF887EF83F6E0AF16B1046B
:1018C00009F0B6CF28960FB6F894DEBF0FBECDBF95
:1018D000DF91CF911F910F91FF90EF90DF90CF900C
:1018E000BF90AF909F908F907F906F905F904F9040
:1018F0003F902F900895FC01840F911D1816190632
:10190000E4F5E038F105CCF5F7FF02C0E0E0F0E0E7
:101910008138910514F080E890E0382F3E1BAB0130
:1019200077FF02C0495F5F4F83E0559547958A95E1
:10193000E1F75695542F442757954795E40FF51F27
:10194000E357FD4F6770772781E090E001C0880F73
:101950006A95EAF7482F222349F0213071F431507B
:1019600020F08081842B8193FACF089580953150A7
:1019700020F0908198239193FACF089590912F01B0
:1019800081E0892780932F018091680290916902FC
:10199000019711F40C9460140895CF92EF920F9375
:1019A0001F93CF93C0912801C80FC0932801C13F56
:1019B00020F4C83318F4C8E301C0C0EF08E010E019
:1019C00021E047E062E070E0C8010E9492120F5FE0
:1019D0001F4F0A311105A1F7C43698F08C2F64E629
:1019E0000E94E71E20E3280FCC24C394EE24E39446
:1019F00000E042E050E068E070E085EC96E00E9494
:101A0000D70B8C2F64E60E94E71E492F62E08EE020
:101A10000E948814C0932801CF911F910F91EF90DD
:101A2000CF9008950F931F93CF93DF93C0916202DD
:101A3000C13039F008F454C0C23049F0C331D9F490
:101A40004FC0DF91CF911F910F910C94CD0CC0919D
:101A50002C01C80FC33024F4CE3F1CF4CEEF01C0DC
:101A6000C2E00E94D015C0932C01DF91CF911F914D
:101A70000F910C94D015C3500C2F10E0085D1E4F31
:101A8000F8019085D92FD80F97FF22C0181634F18E
:101A900087FD1CC080912B01C81303C08C2F0E94AE
:101AA00062158C2F0E94E915F801D0878C2F0E94B7
:101AB000E91580912B01C81313C08C2F0E94621569
:101AC000DF91CF911F910F910C94B914D4E5E2CF1F
:101AD00080ED8D0F8532F0F2DFEFDCCFD0E3DACF8F
:101AE000DF91CF911F910F910895EF920F93209165
:101AF000880291E0922790938802813071F49923B3
:101B000011F001E001C000E02BE047E060E070E090
:101B100080E090E00E94BE1214C0823031F0880F45
:101B2000880F880F885163E102C060E08DE170E0AA
:101B300093E0E92E04E027E040EE59E090E00E94B7
:101B4000F3120F91EF900895CF93C82F80918802E0
:101B5000882321F0809162020E94750DC33120F428
:101B6000C23018F4C1E001C0C3E0C09362028C2F00
:101B70000E94750D80912F01811113C0C33088F030
:101B800080912B010E9462158DEF8C0F80932901AB
:101B900080932A0180932B010E946215CF910C94AF
:101BA000B914CF9108950F932091880291E0922764
:101BB00090938802E82FF0E0992359F0EE0FFF1F71
:101BC000EE0FFF1FE85BFE4F618170E0808101E056
:101BD0000AC0EE0FFF1FEE0FFF1FE85BFE4F618193
:101BE00070E0808100E02381428190E00E94BE127B
:101BF0000F910895CF93C82F80918802882321F0F8
:101C0000809163020E94D30DC73020F4C11103C03C
:101C1000C1E001C0C6E0C09363028C2FCF910C9449
:101C2000D30D8091680290916902009719F0019795
:101C300031F00895809163028F5F0C94FA0D8091CA
:101C400062028F5F0C94A40D8091680290916902EA
:101C5000009719F0019731F0089580916302815047
:101C60000C94FA0D8091620281500C94A40DCF92D5
:101C7000EF920F93603871052CF44034510514F441
:101C80000E94D70B0F91EF90CF900895CF92EF92D3
:101C90000F93CF93DF93EC016A3069F4288D8C8920
:101CA0009D8938E0239F800D911D11249D8B8C8B85
:101CB0001B8A1A8A2EC06D3061F1262F4C895D89EE
:101CC0006A897B89C88CEF880E890E94370E288D1F
:101CD000422F50E08A899B8936E0239F800D911D19
:101CE00011249B8B8A8B298D222399F06AEF640340
:101CF0009001659F300D112420583F4F2817390758
:101D000044F4E881F9810190F081E02D6AE0CE0190
:101D1000099581E090E0DF91CF910F91EF90CF9006
:101D200008956038710518F54034510500F5E42F29
:101D3000E695E695E695F0E047705527F695FE2F77
:101D4000EE27F795E7956E0F7F1FFB01E357FD4FD9
:101D500081E090E001C0880F4A95EAF7222319F04C
:101D60009081892B03C08095908189238083089579
:101D70004F925F926F927F928F929F92AF92BF929B
:101D8000CF92DF92EF92FF920F931F93CF93DF9347
:101D9000EC01462EA8810A2E000CBB0B2FE130E08F
:101DA0000E940D1F2981022E000C330B440B550B92
:101DB0000E94431F0D8110E0F901E857FE4F80811A
:101DC000682F880F770BD801A60FB71FCC81D0E002
:101DD000F901E859FE4F8081082E000C990B7E0115
:101DE000E80EF91E9B0177FF03C03195219531095B
:101DF00097FF03C0919581959109552453948217BB
:101E0000930714F0512C0AC09E2D8F2D7D01A92F10
:101E1000B82F9C2F8D2FE801092F182FEC16FD06E7
:101E200054F4902F812F8D01A92FB82F9C2F8D2F27
:101E3000E701E92EF82E37016C1A7D0A5D01A01A20
:101E4000B10AB7FE03C0B194A194B108630177FE53
:101E500003C08FEFC81AD80AD594C7940A171B0776
:101E600014F08FEF01C081E0882E880F9908EC16DE
:101E7000FD06B4F0242D552019F0AE01B80102C0C2
:101E8000A801BE0189EC96E00E94910ECA18DB08F9
:101E9000D7FE04C0080D191DC60CD71C2196E7CF2C
:101EA000DF91CF911F910F91FF90EF90DF90CF9036
:101EB000BF90AF909F908F907F906F905F904F906A
:101EC0000895CF92DF92EF92FF920F931F93CF93DB
:101ED000DF93EC01162F60E00E94B80E17FD02C0E0
:101EE000188301C018828981988189170CF488832E
:101EF000CB80D12CEA8000E010E0F12CC8018E0DDF
:101F00009F1D0F5F1F4F0D30110531F021E047E09D
:101F1000B6010E949212F2CF48816B818A810E94A1
:101F20008814809102018093A70680910801809314
:101F3000A80680910E018093A506809114018093DC
:101F4000A60680911A018093C20661E0CE01DF915E
:101F5000CF911F910F91FF90EF90DF90CF900C9455
:101F6000B80ECF92EF920F931F93CF93DF930E94FF
:101F700005161092DA061092D9061092D806109221
:101F8000D706109288021092870280916802909181
:101F900069020097A9F0019709F065C0EE24E39467
:101FA00000E420E847EE59E060E070E080E090E077
:101FB0000E94F3120E9460140E94D015C0E03CC041
:101FC000EE24E39400E420E847EE5DE060E070E09A
:101FD00080E090E00E94F312C091640280E1C802A8
:101FE000E0011124CE52DE4F1FE02991222379F027
:101FF000612F70E0CC24C394EE24E39400E045E02C
:1020000050E085EC96E00E94370E1A5FEECFC2E0FA
:10201000D1E06881CE010E94610F269681E0C03236
:10202000D807B9F780916302DF91CF911F910F918B
:10203000EF90CF900C94D30D8C2F0E94E915CF5FB9
:10204000C031D1F780912B010E94621580E00E947F
:10205000CD0C80916202DF91CF911F910F91EF9093
:10206000CF900C94750DDF91CF911F910F91EF9050
:10207000CF900895EAE6F2E088E0DF011D928A95AC
:10208000E9F78091680290916902892B39F481E027
:1020900090E0909369028093680204C010926902F4
:1020A000109268020C94B10FAF92BF92CF92DF9260
:1020B000FF920F931F93CF93DF931F92CDB7DEB79D
:1020C0006C018B01F42E59018FEF8983672B19F472
:1020D0008E010F5F1F4FF60180818823A1F00E94BF
:1020E000810B8F2119F4F601108209C0F80180815B
:1020F000882311F0815011C081E0F8018083F5013F
:10210000099581E00CC00E94810B8F218F1106C0C0
:1021100081E0F601808385E0F801808380E00F9004
:10212000DF91CF911F910F91FF90DF90CF90BF90E3
:10213000AF900895AF92BF92CF92EF920F931F93FB
:10214000CF93DF93C82F87FD04C087301CF0C6E013
:1021500001C0C0E0C09364020DE010E021E049E05E
:1021600064E070E0C8010E9492120F5F1F4F0237B7
:102170001105A1F720E1C202C0011124FC01EE52B9
:10218000FE4F5F01DFE0F50121915F01222379F02D
:102190006D2F70E0CC24C394EE24E39400E045E07E
:1021A00050E085EC96E00E94370EDA5FECCF82E0DB
:1021B000A82E81E0B82EF6E0CF02E001112400E065
:1021C00010E0F801EC0FFD1FE855FE4F6081C501DE
:1021D0000E94610F0F5F1F4F26E0A20EB11C053059
:1021E000110579F7809102018093A706809108017B
:1021F0008093A80680910E018093A506809114011A
:102200008093A60680911A018093C206DF91CF9138
:102210001F910F91EF90CF90BF90AF900895909144
:1022200063029330B9F028F4913049F0923061F0B4
:1022300008959530D9F0A0F09630F1F0089590917E
:102240006402890F0C949A1060910201680F82E079
:1022500091E017C060910801680F88E091E011C01B
:1022600060910E01680F8EE091E00BC06091140147
:10227000680F84E191E005C060911A01680F8AE15E
:1022800091E00C94610F809168029091690200972F
:1022900019F0019721F008958FEF0C940F118FEF33
:1022A0000C94120D8091680290916902009719F0C8
:1022B000019721F0089581E00C940F1181E00C94B6
:1022C000120D1F920F920FB60F9211242F938F931E
:1022D0009F938091010181508093010187FF0CC081
:1022E00021E020930101809165029091660290584F
:1022F0009093CF00209367029F918F912F910F9021
:102300000FBE0F901F901895CF92DF92EF92FF9221
:102310000F931F93DC015A96EC915A9754968D9126
:102320009C915597EE2329F101E010E08230910550
:1023300014F400E010E021E030E05696ED90FC90BF
:102340005797F2E0EF16F10414F420E030E0020FAA
:10235000131F012E000C220B330BEC5F04C0000F87
:10236000111F221F331FEA95D2F7400F511F621F22
:10237000731F0D911D912D913C911397400F511F8B
:10238000621F731F1496CD90DD90ED90FC9017970F
:102390000C0D1D1D2E1D3F1D0D931D932D933C9364
:1023A0001397E62FEF7767FF03C020E82E1BE22F7D
:1023B000F0E0E15AF64F24911E96EC911E97F0E062
:1023C000E20FF11D9F012227232B11F0EFEFF0E028
:1023D000EE0FFF1FE15AF84F2591349157969C93C9
:1023E0008E93569770FF03C031952195310955960C
:1023F0003C932E93549754968D919C9155971F9191
:102400000F91FF90EF90DF90CF9008958F929F9261
:10241000AF92BF92CF92DF92EF92FF920F931F93F2
:10242000CF93DF935C016B018A01809127018823A0
:1024300009F45EC080918C02882309F459C0809110
:102440008A0280FF05C08091E00082608093E000F6
:10245000E8018AEFF82E93E0E92E2FE3822E3AE38B
:10246000932E209709F43DC08FB7F894E092E900CD
:102470009091E80095FF06C09091F200282D291B4D
:10248000922F01C090E08FBF91110AC0FA94FF20F3
:1024900079F161E070E080E090E00E94FD0AE1CF18
:1024A000292F30E0C217D3070CF49C2F8FB7F89474
:1024B000E092E9002091E80025FF11C0292F30E0CB
:1024C000C21BD30BF601915020F041914093F100D3
:1024D000FACFC20ED31E9091E80095FF13C08FBFB4
:1024E000C0CF5D9884E6809389021016110644F0EF
:1024F00081E090E0F5019383828380E090E005C065
:10250000C80103C09092E800EACFDF91CF911F91FC
:102510000F91FF90EF90DF90CF90BF90AF909F9082
:102520008F900895DF92EF92FF920F931F93CF93B6
:10253000DF937C01D22E8B01040F111DEB0177FF7D
:102540000EC0C0E0D0E00BC0C417D5077CF42D2D21
:10255000AE01B70189EC96E00E94910E2196A80188
:10256000013411058CF340E450E0EECFDF91CF91C0
:102570001F910F91FF90EF90DF900895DF92EF92FF
:10258000FF920F931F93CF93DF93EC017B01D42E27
:10259000122F6034710520F4202FCE010E947B0C95
:1025A000B701610F711D615071096034710528F424
:1025B000202F4D2DCE010E947B0C202F412FB701E3
:1025C000CE010E949212CE018D0D911D202F412F20
:1025D000B7010197DF91CF911F910F91FF90EF907D
:1025E000DF900C9492122F923F924F925F926F92D3
:1025F0007F928F929F92AF92BF92CF92DF92EF9293
:10260000FF920F931F93CF93DF93CDB7DEB72D9734
:102610000FB6F894DEBF0FBECDBFED82E22EF12CD7
:102620009C012E0D3F1D37FD32C1803891050CF005
:102630002EC19B01200F311D37FD29C1603471056A
:102640000CF025C1DB0177FF04C0AA27BB27A61B1E
:10265000B70BA770BB279B0177FF02C0295F3F4FD5
:1026600013E0359527951A95E1F777FF08C02150BB
:10267000310968E070E0FB01EA1BFB0BDF01E02F92
:10268000E695E695E695CE2ED12C077019F0FFEF72
:10269000CF1ADF0AB9017695762F66277795679569
:1026A000680F791F63577D4F8601020F131F19872B
:1026B0000887C12CD12CF8E0AF2EB12C85010A1B64
:1026C0001B0B1F830E83088519852017310709F41A
:1026D000DEC02830310509F4DAC02F3F1FEF310783
:1026E0000CF4CAC08B0100581F4F1D870C874B018B
:1026F0003B012B011C011C830B831A8309831B865E
:102700001A860A851B850E151F050CF0B5C010E84A
:102710002116310409F4B0C037FC89C02F3FEFEF18
:102720003E0709F4B0C00A851B850C0D1D1DFD81F7
:10273000F13079F4F801E40FF51FE491F0E08F0136
:102740000A2E01C0000F0A94EAF7F301B0800B29AA
:1027500025C0FD81F11114C0F801E40FF51FE491CB
:10276000F0E00A2E02C0EE0FFF1F0A94E2F78F017D
:1027700000951095F401A080B12C0A211B210EC0F8
:10278000F801E40FF51FE491F0E08F010A2E01C07B
:10279000000F0A94EAF7F201B0800B25008310972E
:1027A00009F445C02730310509F441C00A851B856D
:1027B0000C0D1D1DFD81F13089F4F801E40FF51FAA
:1027C000E4910E2F10E00E8002C0159507950A9433
:1027D000E2F7EC85FD85B0800B2928C0FD81F11161
:1027E00015C0F801E40FF51FE4910E2F10E00E80E4
:1027F00002C0159507950A94E2F700951095E981B6
:10280000FA81A080B12C0A211B2110C0F801E40F2D
:10281000F51FE4910E2F10E00E8002C0159507956C
:102820000A94E2F7EB81FC81B0800B2500830A85D6
:102830001B850F5F1F4F1B870A870C851D850F5F48
:102840001F4F1D870C8709811A810F5F1F4F1A8345
:1028500009830B811C810F5F1F4F1C830B831FEFAC
:10286000211A310AEFEF4E1A5E0AFFEF6F1A7F0A44
:102870000FEF801A900A45CF2F5F3F4F60587F4F70
:10288000CE0CDF1C20CF109709F090CFD0CF2D9623
:102890000FB6F894DEBF0FBECDBFDF91CF911F9171
:1028A0000F91FF90EF90DF90CF90BF90AF909F90EF
:1028B0008F907F906F905F904F903F902F900895F2
:1028C000EF920F93CF93DF93CEE0D0E021E047E08B
:1028D0006BE070E0CE010E9492122196C431D105C6
:1028E000A9F780912F01E12C07E026E0882319F059
:1028F00049E852E102C04FE852E16BE070E08EE03F
:1029000090E00E94F312DF91CF910F91EF90089524
:10291000AF92BF92CF92EF920F931F93CF93DF931B
:10292000C82F842FA62EB12CD0E06AE00E94E71EAB
:10293000192F20E3280FCC24C394EE24E39400E065
:10294000A501BE0185EC96E00E94370E20E3210F21
:10295000BE016A5F7F4FA50185EC96E00E94370EAD
:10296000DF91CF911F910F91EF90CF90BF90AF90DB
:1029700008954F925F926F927F929F92AF92BF9213
:10298000CF92DF92EF92FF920F931F93CF93DF933B
:10299000E0912901F0E0E85DFE4F908497FC82C051
:1029A00080912C012CE0829F900C1124892D092DFF
:1029B000990C110B159507951595079507591D4EFF
:1029C0008370982ECDE8D6E0E12CF12C52E0A52EB4
:1029D000B12C65E9462E55245394612C712CF801D5
:1029E00045915491E42FEF70E92938E0E39FF0011D
:1029F0001124E75FFD4E25913491C7018357994F0C
:102A00006C01DC015B96EC91F0E0E750FE4EA49186
:102A1000B0E00E94841F552724E0559547952A95DC
:102A2000E1F7DC01CB0104C0880F991FAA1FBB1F6F
:102A30004A95D2F78C839D83AE83BF831882198217
:102A40001A821B82BD8AAC8AF601808D90E0A0E0DC
:102A5000B0E031E1880F991FAA1FBB1F3A95D1F74B
:102A60008C879D87AE87BF87818D811105C0188AAD
:102A7000198A1A8A1B8A0DC0A301920104C0220F71
:102A8000331F441F551F8A95D2F7288B398B4A8BE9
:102A90005B8B3CE1E30EF11C6C9648E3E416F10419
:102AA00009F09DCFDF91CF911F910F91FF90EF9093
:102AB000DF90CF90BF90AF909F907F906F905F908E
:102AC0004F900895EF920F93CF93DF93C82FD0E0EC
:102AD000C85DDE4F988597FD5EC06CE6691B70E0AF
:102AE000880F880F880F8F5F23E0E22E03E025E038
:102AF00044EF51E190E00E94F312C88580ED8C0F05
:102B0000853208F048C0D0E0E097CE016CE070E07C
:102B10000E94F31EFC013197EB30F10528F5EB59CB
:102B2000FF4F0C94071FE4E028E220C0ECE02AE20B
:102B30001DC0E4E02CE21AC0ECE02EE217C0ECE08D
:102B400022E314C0E4E024E311C0ECE026E30EC06D
:102B5000E4E028E30BC0ECE02AE308C0E4E02CE367
:102B600005C0ECE02EE302C0ECE026E2F0E0CE018E
:102B70006CE070E00E94F31E822F9CE1699F800D43
:102B8000112493E0E92E03E023E041EF51E1BF017E
:102B900090E00E94F312DF91CF910F91EF90089592
:102BA000EF920F9380912C0165E070E0681B710932
:102BB00087FD7395660F70E083E0E82E01E025E065
:102BC0004CEE51E18EE190E00E94F3120F91EF90F4
:102BD0000895EF920F93E82FF0E0E85DFE4F9085A7
:102BE00097FD10C06CE6691B70E0880F880F880F96
:102BF0008F5F93E0E92E03E025E047EE51E190E09E
:102C00000E94F3120F91EF90089520E08DE892E07A
:102C1000B22FB111BFEFFC010024B193B193B19376
:102C2000B1930394D1F7089580918D028EBDEEE8A3
:102C3000F2E081910DB407FEFDCF8EBD86E0ED3848
:102C4000F807B9F70DB407FEFDCF0895FC01809198
:102C50008C02811103C08FEF9FEF08959FB7F89406
:102C600082E08093E9002091F20030E01216130612
:102C700014F421E030E02115310559F0289884E65C
:102C800080938B028091F10080838091F2008823F1
:102C900019F09FBFC90108958BE68093E800F9CF32
:102CA0008091E30681110DC082E08093DF0684E00D
:102CB0008093E0061092E2061092E10681E0809394
:102CC000E3068FED96E00895CF93DF931F92CDB783
:102CD000DEB76983DC01ED91FC910280F381E02D88
:102CE00041E050E0BE016F5F7F4F09950F90DF918B
:102CF000CF91089583E08093E9008091F2008823CA
:102D000019F08AE38093E8000895FC018485958595
:102D100097FD0BC09FB7F89482E08093E900809103
:102D2000F2009FBF90E0019608959FB7F89482E06B
:102D30008093E9008091F2009FBF90E00895409158
:102D400078075091790720917607309177074217DD
:102D50005307B4F49091E8009570E1F39091E80086
:102D600092FD19C08093F1008091780790917907C6
:102D700001968F739927892B19F48EEF8093E800C1
:102D800080917807909179070196909379078093C5
:102D9000780781E0089580E00895CF92DF92EF9266
:102DA000FF920F931F93CF93DF931F92CDB7DEB7A0
:102DB000182F062FE42E862F880F8E5F99830E948E
:102DC0009F1683E00E949F16F12EC12E9981D92E65
:102DD0008C2D8F19801798F4F601E7FE02C08491BC
:102DE00001C080810E949F16182F80E00E949F16CC
:102DF0008123FFEFCF1ADF0A8111EACF01C081E002
:102E00000F90DF91CF911F910F91FF90EF90DF9086
:102E1000CF900895DF92EF92FF920F931F93CF937D
:102E2000DF93D82E8A017B01E40EF51EEB01CE154F
:102E3000DF0571F0D7FE03C0FE01849101C08881D7
:102E40000E949F1621968111F2CF8FEF9FEF01C054
:102E5000C801DF91CF911F910F91FF90EF90DF900C
:102E60000895615030F02091F100FC01208301961B
:102E7000F8CF289884E680938B020895CF93DF9350
:102E80001F92CDB7DEB7FC018485958597FD05C0FF
:102E90002FEF3FEF358724870BC0CE0101960E94AC
:102EA0002616019719F4898190E002C08FEF9FEFF9
:102EB0000F90DF91CF9108950F931F93CF93DF93DE
:102EC0001F92CDB7DEB78C01FC018485958597FFF5
:102ED0000EC0CE0101960E942616019719F4298191
:102EE00030E002C02FEF3FEFF80135872487F8016B
:102EF000848595850F90DF91CF911F910F91089553
:102F00000F931F93CF93DF931F92CDB7DEB782E06D
:102F1000898342E450E065E972E180E80E940A1783
:102F20000E945016DC0112960D911C911397011509
:102F3000110569F0D801ED91FC910280F381E02D3B
:102F4000BE016F5F7F4FC801099597FF07C0898158
:102F50000F90DF91CF911F910F910895F801008597
:102F60001185E5CF1F920F920FB60F9211248F9308
:102F70009F938091E1009091E100937F9093E10015
:102F800083FF0FC01092E90091E09093EB00109244
:102F9000EC0092E39093ED0010928C0298E09093F5
:102FA000F00082FF20C093E09093E9009091F2003E
:102FB000992319F09AE39093E8009091890299235C
:102FC00039F090918902915090938902992389F167
:102FD00090918B02992339F090918B0291509093AC
:102FE0008B02992341F184FF10C08091E2008E7E14
:102FF00081608093E2008091E1008F7E8093E10008
:1030000080918A028E7E806111C080FF16C08091FF
:10301000E2008E7E80618093E2008091E1008E7EEE
:103020008093E10080918A028E7E816080938A0283
:1030300004C05D9ACDCF289AD6CF9F918F910F90E3
:103040000FBE0F901F9018951F920F920FB60F9200
:103050001124CF92DF92EF92FF920F931F932F9341
:103060003F934F935F936F937F938F939F93AF9310
:10307000BF93EF93FF93CF93DF93CDB7DEB76C97FA
:10308000DEBFCDBF1092E9008091E80083FFFAC156
:1030900068E0CE0145960E94311782EF8093E800E8
:1030A0008D8987FF05C09091E80090FFFCCF03C099
:1030B0009EEF9093E800982F907609F0C6C09E8905
:1030C0002F89188D91110CC0803829F480917407D4
:1030D0008093F10002C01092F1001092F10047C1FC
:1030E000422F50E0512B913051F4811140C14130B9
:1030F000510509F03CC1809174078D7F0BC093305E
:1031000061F4811134C14130510509F030C1809121
:1031100074078260809374072AC1953041F48091CE
:10312000E80080FFFCCF20682093E30020C19630A8
:1031300009F05FC0EB8CFC8C1092E90010927907CB
:1031400010927807123091F5109277071092760757
:103150000E94801799E0BE016F5F7F4FDB01E92F6E
:103160001D92EA95E9F799831A8391E09E8390EA8C
:1031700098879AEF99872091780730917907275F90
:103180003F4F3C832B838D831092E9001092790787
:1031900010927807F0927707E092760749E050E0C6
:1031A00080E00E940A170E948017E1C0F092770722
:1031B000E09276070E945016DC011296ED90FC908A
:1031C0001397E114F10409F4C0C0D701ED91FC910B
:1031D0000480F581E02DBE016B5E7F4FC70109952C
:1031E000009719F00CF0C3C0C6C0F701E084F18469
:1031F000E8CF973009F4BFC0983021F481E0809384
:10320000F100B5C0993009F0B2C0837009F0B3C0C5
:10321000EBE5F2E081E021E036E39081992361F073
:103220008093E9002093EB0091919093EC00309310
:10323000ED008F5F873089F78EE78093EA00109268
:10324000EA008F8980938C0292C08B8D9C8D1092A6
:10325000E90010927907109278079093770780938E
:103260007607898D811156C08E899D89913A59F4CE
:10327000813209F080C047E050E060E271E080E018
:103280000E940A1774C0913209F075C0833289F424
:10329000888D90E0982F88272F89822BA0E0B0E0BE
:1032A0008093400190934101A0934201B093430168
:1032B0005EC0803269F48091E80082FFFCCF67E055
:1032C00080E291E00E9431178BEF8093E80006C006
:1032D000823209F04CC08F89809327018091730757
:1032E000882319F0EEEFFAE002C0E0E0F8E0809108
:1032F000200190912101A0912201B0912301803BF6
:103300009440A105B10509F088C08091270180FF94
:10331000A0C083C00E945016DC0112960D911C9132
:1033200013970115110539F1D801ED91FC91019028
:10333000F081E02DBE016B5E7F4FC80109958111C0
:1033400016C0F80100851185ECCF1130C1F01330A3
:1033500091F48F89882309F455C08230E9F440E85C
:1033600067E087EE92E10E94CD16882321F08EEF70
:103370008093E80087C081E28093EB0083C08B8D4F
:103380009C8D089711F41093750780917507811132
:1033900036C06FEE72E138C0813029F440E86BE04E
:1033A0008BED92E1E0CF833031F70E945016DC01C3
:1033B0001296ED90FC9013978E010F5F1F4F6801DE
:1033C000E114F10479F0D701ED91FC910680F781C9
:1033D000E02DB801C7010995080F111DF701E08420
:1033E000F184EECFD8011C92F60101900020E9F79C
:1033F0003197BF016C197D0940E0C601B4CF61E08F
:1034000073E102C067ED72E16115710509F4B3CF94
:10341000FB01449150E080E833CF0FB6F894A895B3
:1034200080916000886180936000109260000FBE00
:10343000A895EE3F2AE0F20739F08091FE0A9091BC
:10344000FF0A9183808393CF1092FF0A1092FE0AA5
:103450008ECFEE3F8AE0F80731F080819181909322
:10346000FF0A8093FE0A87E797E7918380839BE0BA
:1034700088E10FB6F894A895809360000FBE9093F2
:10348000600075CF6C960FB6F894DEBF0FBECDBF4F
:10349000DF91CF91FF91EF91BF91AF919F918F916C
:1034A0007F916F915F914F913F912F911F910F915C
:1034B000FF90EF90DF90CF900F900FBE0F901F9076
:1034C0001895789484B5826084BD84B5816084BD8C
:1034D00085B5826085BD85B5816085BD80916E00B2
:1034E000816080936E0010928100809181008260E3
:1034F0008093810080918100816080938100809120
:103500008000816080938000809191008260809330
:103510009100809191008160809391008091900052
:103520008160809390008091C10084608093C1008D
:103530008091C10082608093C1008091C100816050
:103540008093C1008091C30081608093C30080910B
:10355000C00082608093C0008091C200816080932F
:10356000C20080917A00846080937A0080917A0012
:10357000826080937A0080917A00816080937A00E3
:1035800080917A00806880937A0010928C02109269
:10359000740710928A028091D70081608093D700CF
:1035A00080EA8093D80089B5806189BD89B5826041
:1035B00089BD09B400FEFDCF61E070E080E090E0DD
:1035C0000E94FD0A8091D8008F7C80618093D80092
:1035D0008091E000807F8093E0008091E1008E7E0A
:1035E0008093E1008DE08093E200559A209AEEEFFF
:1035F000FFE7859194918B3F9C4D19F481E0809376
:103600007307CFB7F89480917802811127C0E8E062
:10361000F7E08491EBEDF6E09491E82FF0E0EE0F07
:10362000FF1FE155F94FA591B491EC91E92321F4E5
:1036300061E081E10E94E00961E081E10E94430ACA
:103640008CB580618CBD8CB580648CBD61E08FE0F1
:103650000E94430A61E080E10E94430A809178025F
:103660008F5F80937802CFBFC6E1D7E0FE018491DF
:10367000229631966491882319F00E94430AF6CF6E
:1036800061E086E00E94E00961E070E080E090E0A7
:103690000E94FD0A60E086E00E94E0096AE070E0B6
:1036A00080E090E00E94FD0A61E086E00E94E0096F
:1036B000E3E0F7E0E491F0E0EE0FFF1FE751F94F90
:1036C0008591949190937E0280937D02E6EDF6E0E1
:1036D000E491E0937C02EBEFF6E0E491F0E0EE0F92
:1036E000FF1FE751F94F8591949190937B0280934E
:1036F0007A02EEECF6E0E491E09379028CB58C7FEF
:103700008CBD8DB581608DBD0E94C80ACDEBD6E021
:103710001C2F135FFE0184910E94F40A21961C1352
:10372000F9CF0E94E00A8091640081608093640078
:10373000809164008260809364008091640080685E
:103740008093640080916400806480936400809121
:103750006500816080936500C0E0D4E080E00E9455
:10376000F40A2197D9F70E94810B87FF3CC00E9481
:10377000C80A85EA0E94F40A0E94E00A40E060E07C
:1037800080E00E94A40A0E94810B84FD03C00E9475
:10379000BD0AF9CF41E061E081E00E94A40A0E94E5
:1037A000C80A84EA0E94F40A0E94E00A1CC060E091
:1037B00089E00E94E0090E94810B8478843821F41A
:1037C0004FEF6BE00E949E0B0E94810B847184314D
:1037D00021F440E06AE00E949E0B68EC70E080E01B
:1037E00090E00E94FD0A0E94810B82FDE0CF61E023
:1037F00089E00E94E00960E08AE00E94E009CEEEE4
:10380000DFEF1C2FCC3F19F441E060E004C0C83169
:1038100029F440E061E081E00E94A40A0E940516BC
:10382000EE24E39400E128E54FEF55E0BE0184E18A
:1038300090E00E94F3120E9414166BE170E080E0A9
:1038400090E00E94FD0A103F31F46AEF70E080E0E2
:1038500090E00E94FD0A2196C931D10591F66EEEE5
:1038600072E080E090E00E94FD0A61E089E00E9441
:10387000E00982E090E00E942D1F882359F061E06A
:1038800085E00E94430A61E08DE00E94430A81E0E6
:103890008093770282E48093CC06109269021092A2
:1038A000680261E08DE00E94430A8091C100877F39
:1038B0008093C1008091C1008B7F8093C100809173
:1038C000C1008D7F8093C1008091C1008160809391
:1038D000C1008091C00082608093C0008091C300CD
:1038E00081608093C3008091C3008D7F8093C3006B
:1038F0008091C0008F778093C0008091C000806469
:103900008093C00080917200846080937200CA9A94
:10391000E5E3F7E0E491E093A706E6E3F7E0E4915E
:10392000E093A806E7E3F7E0E491E093A506E8E377
:10393000F7E0E491E093A606E9E3F7E0E491E09391
:10394000C20681E080936302809362021092640257
:10395000EAE6F2E088E0DF011D928A95E9F70E942D
:10396000B10F80E00E949A100E94141690E5892EF3
:1039700099E9992EA12CB12C18E1C0E0D0E001E02A
:103980002FE0722EC12CD12C7601EA94809167022F
:10399000882309F475C180917F02909180029093F1
:1039A0006602809365021092670280910001815047
:1039B0008093000187FF6AC07092000140919906D0
:1039C00050919A0660919B0670919C064115510595
:1039D000BFEF6B07710530F580919D0690919E06B3
:1039E000A0919F06B091A006840F951FA61FB71F38
:1039F000AC01BD01442755276627452B462B472B95
:103A000049F48093990690939A06A0939B06B093ED
:103A10009C0608C0C0929906D0929A06E0929B0636
:103A2000F0929C064091B5065091B6066091B7069B
:103A30007091B80641155105EFEF6E07710530F52D
:103A40008091B9069091BA06A091BB06B091BC06D0
:103A5000840F951FA61FB71FAC01BD014427552732
:103A60006627452B462B472B49F48093B506909348
:103A7000B606A093B706B093B80608C0C092B506C4
:103A8000D092B606E092B706F092B80640E050E059
:103A9000BA018DE896E00E948411AC01990F660B83
:103AA000770B8CE0440F551F661F771F8A95D1F75F
:103AB00089EA96E00E9484119093800280937F02AD
:103AC00080912F01882361F180912D0190912E0129
:103AD000019790932E0180932D0197FF21C00E94A2
:103AE000B9142091280130E040E050E0C501B40154
:103AF0000E94431F2F5F3F4F129FC001139F900DE5
:103B00001124019790932E0180932D01809129011A
:103B10008F5F803118F48093290102C0109229012F
:103B20002FB7F8948091810290918202A091830234
:103B3000B09184022FBF2091D506222391F02091CD
:103B4000CD06F82FF21BF093D6062091CA063091CD
:103B5000CB062F5F3F4F3093CB062093CA061092BF
:103B6000D5064091D1065091D2066091D30670914E
:103B7000D40684179507A607B70738F4481B4230C8
:103B800008F47EC00E94BD0A7BC02091CC06AC0127
:103B9000BD01420F511D611D711D4093D10650930F
:103BA000D2066093D3067093D4068093CD0690938B
:103BB000CE06A093CF06B093D0060093D50622E59B
:103BC00031E140E86BE672E08AE692E00E94541030
:103BD000382E23E431E140E16DE672E08CE692E0BC
:103BE0000E945410282E24E23EE040E260E070E0A3
:103BF0008EE692E00E945410482E21E13EE040E41F
:103C000060E070E08FE692E00E945410582E2EEB98
:103C10003CE048E060E070E080E792E00E945410F1
:103C2000682E2AE330E144E060E070E081E792E052
:103C30000E945410209168023091690221303105B0
:103C4000B9F420912A0190912901291789F08091D6
:103C50002B010E94621580912A010E9462158091B9
:103C60002A0180932B018091290180932A0106C0AB
:103C7000322843285428652809F481110E9414161B
:103C8000209709F483CE0E94000080CE1092EE06A9
:103C90001092ED0688EE93E0A0E0B0E08093EF068E
:103CA0009093F006A093F106B093F20686E492E0BA
:103CB0009093EC068093EB068FEF9FEF9093F806BE
:103CC0008093F7061092C8061092C70680E1809391
:103CD000CC061092CB061092CA061092D106109212
:103CE000D2061092D3061092D4061092D50686E51D
:103CF00092E09093C6068093C5061092D806109263
:103D0000D7061092DA061092D90681E08093DB067E
:103D10001092DC068093DD061092DE06EDE8F6E0F8
:103D200080E090E021E010821182128213821486DA
:103D30001586168617861482158216821782108AB7
:103D4000118A128A138A158A148A178A168ADC0144
:103D5000A357B94F5B962C935B9759961C92599732
:103D600058961C9258975A961C924C967C9688337B
:103D70009105C9F6EBE3F7E080E090E021E01082E6
:103D80001182128213821486158616861786148273
:103D9000158216821782108A118A128A138A158A4E
:103DA000148A178A168ADC01A55CB84F5B962C939F
:103DB0005B9759961C92599758961C9258975A9609
:103DC0001C924C967C9688339105C9F60895991BF0
:103DD00079E004C0991F961708F0961B881F7A9502
:103DE000C9F78095089597FB072E16F4009407D025
:103DF00077FD09D00E94141F07FC05D03EF4909572
:103E000081959F4F0895709561957F4F0895EE0FAE
:103E1000FF1F0590F491E02D09940E94841FB7FFC5
:103E20000895821B930B0895AA1BBB1B51E107C089
:103E3000AA1FBB1FA617B70710F0A61BB70B881F3A
:103E4000991F5A95A9F780959095BC01CD010895C9
:103E500081E090E0F8940C94931FF999FECF92BD05
:103E600081BDF89A992780B50895262FF999FECF3C
:103E70001FBA92BD81BD20BD0FB6F894FA9AF99A87
:103E80000FBE01960895052E97FB1EF400940E9424
:103E90005A1F57FD07D00E94621F07FC03D04EF443
:103EA0000C945A1F50954095309521953F4F4F4F98
:103EB0005F4F089590958095709561957F4F8F4FD6
:103EC0009F4F0895A1E21A2EAA1BBB1BFD010DC036
:103ED000AA1FBB1FEE1FFF1FA217B307E407F507BA
:103EE00020F0A21BB30BE40BF50B661F771F881F96
:103EF000991F1A9469F760957095809590959B012C
:103F0000AC01BD01CF010895A29FB001B39FC001D4
:103F1000A39F700D811D1124911DB29F700D811DF5
:0A3F20001124911D0895F894FFCFBD
:103F2A000F0100070B150F29000F23152729003F42
:103F3A003B153F29000F53155729000F6B156F29A1
:103F4A0000E100000000000078000000000000010D
:103F5A003C3C4343454543FF414140403E3E3CFFD4
:103F6A00FFFFFFFF01000000000000000603070B2F
:103F7A00053616091C361709343617094C3617093F
:103F8A006436180900000000FDFCFBFAFAF9F9F999
:103F9A00F9FAFBFCFDFEFFFF000102030405060718
:103FAA00070707070605040306050403020100FFC5
:103FBA00FEFDFCFBFAFAFAF9F9F9FAFAFBFCFDFE46
:103FCA00FF0001020304050605021B0102000705A2
:103FDA00260502000509200202000008220807003F
:103FEA000703200102000401100102FE0401080374
:103FFA0002FE41636F7573746963205069616E6F65
:10400A000000456C656374726963205069616E6F64
:10401A000000547562756C61722042656C6C7300A5
:10402A0000004D6172696D626100000000000000CD
:10403A0000004A617A7A204775697461720000004B
:10404A00000046696E676572204261737300000062
:10405A000000536C6170204261737300000000001D
:10406A000000000000006416061285163E175C1751
:10407A007A1600000000460EB50900C180810000D2
:02408A00000034
:00000001FF
